:1000000000800020BD010000793E00003D3E000060
:100010003D3E00003D3E00003D3E00003D3E0000F4
:100020003D3E00003D3E00003D3E0000793E0000A8
:10003000793E00003D3E0000793E00002D3E00006C
:10004000793E0000793E0000793E0000793E0000D4
:10005000793E0000793E0000793E0000793E0000C4
:10006000793E0000793E0000793E0000793E0000B4
:10007000793E0000793E0000793E0000793E0000A4
:10008000793E0000793E0000793E0000793E000094
:10009000793E0000793E0000793E0000793E000084
:1000A000B12E0000793E0000793E0000793E00004C
:1000B000793E0000793E0000793E0000793E000064
:1000C000793E0000793E0000793E0000793E000054
:1000D000793E0000793E0000793E0000793E000044
:1000E000793E0000793E0000793E0000793E000034
:1000F000793E0000DD5D0000793E0000D96300001C
:10010000793E0000F9680000793E0000793E000069
:10011000793E0000793E0000793E0000793E000003
:10012000793E0000793E0000793E0000793E0000F3
:10013000793E0000793E0000793E0000793E0000E3
:10014000793E0000793E0000793E0000793E0000D3
:10015000793E0000793E0000793E0000793E0000C3
:10016000793E00002D460000793E0000793E0000F7
:10017000793E0000793E0000793E0000793E0000A3
:10018000793E0000793E0000793E0000793E000093
:10019000793E0000793E0000793E0000793E000083
:1001A000793E0000793E0000793E0000793E000073
:1001B000793E0000793E0000FD520000574B4CF2A2
:1001C000205210B51A804DF628121A8000BF00BFC9
:1001D00003F056FE524B4FF010621A60514A9A607B
:1001E000514ADA60A3F53043203B1A6812F480725A
:1001F00004D14E490A604FF4A8521A604C4B1A7849
:10020000110703D51A7842F008021A70494B4A4C7C
:100210004A482A221A704A4A00239918A14203D256
:10022000195899500433F8E7464B474900228B424E
:1002300002D243F8042BFAE74448454900235A58B0
:100240001A500433B3F5DE7FF9D1424B424A802184
:1002500003F8011B9342FBD1404B3C4A1A60404BD0
:100260000A221A70A3F5805324225A70A0221A7011
:100270009A799207FCD59A79D406FCD4394A9379B5
:1002800003F00C03082B374BF9D105221A714322D6
:100290005A719A799006FCD5324A9179314B4906C8
:1002A000FBD5314A4FF08171116005215160202248
:1002B0001A709A7902F00C020C2AFAD12B4B2C4AB4
:1002C0001A602C4B2C4A1A6000225A60072243F80D
:1002D000042C2A4AC3F80C2D62B604F069F8134BBB
:1002E0001B68DA0705D5264803F0C4FF254B264ACC
:1002F0001A60264B1B785B0609D5224C224A2368DC
:10030000934204D11E4803F0B5FF0023236008F098
:10031000F3FD03F0BBFD05F061FAFEE70E2005409A
:1003200030800440823F04000100002B14D00340C1
:1003300002D0074000E00740909AFF1F84AB000006
:100340006091FF1F909AFF1FF0590020008CFF1F43
:100350000000000000E400E05FE400E008ED00E0E1
:1003600000500640004006404480044004800440A1
:10037000C010050014E000E03F190100000020203B
:10038000057723581CE00340A5C3945A00F00740AA
:10039000FFFFFFFFFFFFFFFFFFFFFFFFFFFFFFFF6D
:1003A000FFFFFFFFFFFFFFFFFFFFFFFFFFFFFFFF5D
:1003B000FFFFFFFFFFFFFFFFFFFFFFFFFFFFFFFF4D
:1003C000FFFFFFFFFFFFFFFFFFFFFFFFFFFFFFFF3D
:1003D000FFFFFFFFFFFFFFFFFFFFFFFFFFFFFFFF2D
:1003E000FFFFFFFFFFFFFFFFFFFFFFFFFFFFFFFF1D
:1003F000FFFFFFFFFFFFFFFFFFFFFFFFFFFFFFFF0D
:10040000FFFFFFFFFFFFFFFFFFFFFFFFFEFFFFFFFD
:1004100010B5054C237833B9044B13B10448AFF33E
:1004200000800123237010BD909AFF1F0000000080
:1004300084AB000008B5064B1BB106480649AFF374
:1004400000800648036813B1054B03B1984708BD07
:100450000000000084AB0000949AFF1F909AFF1FD9
:10046000000000000122014B1A707047B89BFF1F6B
:100470000122014B1A707047B99BFF1F10B504464B
:10048000034A40F8202B02F0A7F8204610BD00BF19
:1004900000A7000038B5064D05F595447034103DB1
:1004A000204605F045F8103CAC42F9D138BD00BFFC
:1004B000E09BFF1F38B5064D05F595447034103D9F
:1004C000204605F035F8103CAC42F9D138BD00BFEC
:1004D000A0FBFF1F0F4B03604172026100230372F8
:1004E000C36039B11946026942F823100133427AD8
:1004F0009A42F8DC084B1A680AB9186004E053699C
:100500000BB11A46FBE75061002343618380C3802F
:10051000704700BF88A20000A457002010B5044611
:100520000F4B03600023437203610372C3600D4BE2
:100530001A680AB9186004E053690BB11A46FBE760
:10054000546100236361A380E3802046064B40F89A
:10055000203B02F031F8204603F024F8204610BD7D
:1005600088A20000A457002000A700002DE9F04752
:10057000AEB005468846794E794FDFF80C9204A854
:100580002946002201F050FD9DF83530032B00F282
:10059000CE8068460DF1360105F016F86846314602
:1005A00005F0E4F8002800F0C68011A8394605F0EF
:1005B0000BF8684611A905F0CDF8002840F0BD8081
:1005C00015A8494605F000F8684615A905F0C2F8D7
:1005D000D0F1010438BF002415A804F0A9FF00E001
:1005E000002411A804F0A4FF002C35D05D4805F0CC
:1005F000EDF804465C4B1B689842C4BF5A4B186028
:1006000000EB8003C3EB0313DFF86CA15AF8202042
:100610001A44564800EB02100DF1360104F0FEFFBB
:100620005AF824009DF83530012B94BF0999002118
:1006300004EB8402C2EB021213184D4A42F8231055
:100640004C4800EB0310474904F0D2FF4A4B53F8E3
:100650002420013243F824209DF83530023BDBB2E0
:10066000012B70D819A8454904F0AEFF684619A9B6
:1006700005F070F8002868D11DA8414904F0A4FFD6
:1006800068461DA905F066F8D0F1010438BF0024C2
:100690001DA804F04DFF00E0002419A804F048FF55
:1006A000002C3AD02F480DF1360104F0B7FF9DF829
:1006B00014308DF88830069B23939DF81C308DF8FC
:1006C0009030304B2193089B2593099B26930A9BDE
:1006D00027930B9B28930C9B29939DF834308DF81E
:1006E000A8309DF835308DF8A930DDF83610DDF8EA
:1006F0003A20DDF83E30CDF8AA10CDF8AE20CDF886
:10070000B2309DF842308DF8B63021A808F10101D1
:10071000FFF72CFF21A801F05FFF04A802F070F89A
:10072000684604F005FF04A801F056FF27E704A877
:1007300001F052FF0EE0002300E00123002B7FF4C4
:100740004FAF002450E7002300E00123002BA3D18A
:100750000024A5E72EB0BDE8F08700BF38FAFF1FE0
:1007600094A20000ECF9FF1F58FAFF1FA0FBFF1F27
:100770000CE7FF1FE09BFF1F04FBFF1F98A2000078
:10078000A0A2000078A4000090A20000B0B584B040
:1007900000AF04460D463846144904F015FF3846AC
:1007A000214604F087FF3846114904F065FF04EB49
:1007B0008404C4EB0414254438460E4901EB0511AA
:1007C00004F052FFBA6802F1080323F00703ADEB0F
:1007D000030D384669460132002304F0DFFF384636
:1007E00004F0A6FE68461037BD46B0BD00A3000069
:1007F000A8A20000A0FBFF1F08B54FF4FA7003F099
:10080000C1FD024A024B1A6008BD00BF0400FA0590
:100810000CED00E010B504460620C4F3C00103F05F
:1008200039FD0520C4F3800103F034FD0420C4F336
:10083000400103F02FFD032004F0010103F02AFD25
:1008400010BD00BF38B572B62F4B1B7F03F0FF02FF
:1008500013B100212C4B197762B6002A52D02B4BD2
:100860001A682B4B1A6072B6274BB3F92000B3F904
:100870001E20801A47F6FF72DA834FF400421A8472
:1008800062B608F0BFF8234908F0C4F94FF081417F
:1008900008F00CF90446002108F0BAFA38B12046F5
:1008A0004FF07C5107F0FAFF08F0C6FA06E0204648
:1008B0004FF07C5107F0F0FF08F0BEFA07F0C0FCE3
:1008C00002460B4600204FF0804106F08FFA0446A6
:1008D0000D460022002307F09FFF40B12046294625
:1008E00000220D4B07F060FB07F0AAFF07E020464F
:1008F00029460022084B07F055FB07F0A1FF0138FD
:10090000FFF788FF38BD00BF389BFF1FAC560020A3
:100910009CFBFF1F00FF7F470000E03F08B504F08D
:1009200055FF012814BF0020012008BD30B59DB03F
:1009300004460D464F4904F0D7FE58B16846294693
:1009400004F060FE6846FFF7E9FF4B4B18706846FD
:1009500004F0EEFD2046494904F0C6FE20B12846C9
:1009600004F034FF464B18602046464904F0BCFEB4
:1009700058B104A8294604F045FE04A8FFF7CEFFAD
:10098000414B187004A804F0D3FD20463F4904F001
:10099000ABFE20B1284604F019FF3D4B18602046FD
:1009A0003C4904F0A1FE58B108A8294604F02AFEEB
:1009B00008A8FFF7B3FF384B187008A804F0B8FD7B
:1009C0002046364904F090FE58B10CA8294604F0A0
:1009D00019FE0CA8FFF7A2FF314B18700CA804F009
:1009E000A7FD20462F4904F07FFE58B110A82946E4
:1009F00004F008FE10A8FFF791FF2B4B187010A809
:100A000004F096FD2046294904F06EFE58B114A862
:100A1000294604F0F7FD14A8FFF780FF244B187057
:100A200014A804F085FD2046224904F05DFE20B1A3
:100A3000284604F0CBFE204B186020461F4904F0E6
:100A400053FE58B118A8294604F0DCFD18A8FFF79A
:100A500065FF1B4B187018A804F06AFD2046194961
:100A600004F042FE20B1284604F0B0FE164B186098
:100A70001DB030BD6CA3000020FAFF1F74A300005E
:100A80007891FF1F7CA300007C91FF1F88A30000CA
:100A90007491FF1F94A300008491FF1FA8A300007E
:100AA0008591FF1FB8A30000FCF9FF1FCCA3000035
:100AB000CC9BFF1FE0A300008891FF1FF0A3000064
:100AC0008C91FF1FF8A300006891FF1F30B5A7B0FD
:100AD00001A8002104F078FD05A8002104F074FDB0
:100AE00009A85149002201F019FC504C9DF828300A
:100AF00023710B9BA3609DF8303023730D9B236102
:100B00000E9B63610F9BA361109BE361119B2362AA
:100B10009DF8483084F824309DF8493084F8253019
:100B200026AB53F84E5D58689968C4F82650C4F84F
:100B30002A00C4F82E101B7B84F8323009A801F07B
:100B40004BFD94F82530032B5BD8254650E0284612
:100B500001F006FEC4B23D2C14D016A801A904F081
:100B600051FD16A8214604F0B9FD014601A804F084
:100B70003FFD16A804F0DCFC284601F0F1FDC4B2EC
:100B80003D2CEAD1284601F0EBFDC4B20A2C2FD04F
:100B90001AA805A904F036FD1AA8214604F09EFD06
:100BA000014605A804F024FD1AA804F0C1FC28465B
:100BB00001F0D6FDC4B20A2CEAD11EA801A904F0A6
:100BC00021FD22A805A904F01DFD1EA822A9FFF7FA
:100BD000ADFE22A804F0ACFC1EA804F0A9FC144C45
:100BE00001A8214604F01AFD05A8214604F016FDCF
:100BF000284601F0D1FC0028A9D10C4801F000FEE4
:100C000009E00C4C23685B6820460B491A22984780
:100C1000204604F029FC05A804F08AFC01A804F091
:100C200087FC27B030BD00BFFCA30000F49AFF1F73
:100C300000A30000D45700200CA4000030B58FB0F2
:100C400001A86749012201F069FB664C9DF8083054
:100C50002371039BA3609DF810302373059B2361D0
:100C6000069B6361079BA361089BE361099B236269
:100C70009DF8283084F824309DF8293084F82530F8
:100C80000EAB53F80E5D58689968C4F82650C4F846
:100C90002A00C4F82E101B7B84F8323001A801F022
:100CA0009BFC23685B6820464F49052298472046F5
:100CB0004E4B197804F024FC204604F0D5FB236841
:100CC0005B6820464A49082298472046494B1968E4
:100CD00004F016FC204604F0C7FB23685B6820463E
:100CE00045490A2298472046444B197804F008FCED
:100CF000204604F0B9FB23685B68204640490A227D
:100D0000984720463F4B196804F0FAFB204604F050
:100D1000ABFB23685B6820463B491122984720467D
:100D20003A4B197804F0ECFB204604F09DFB236855
:100D30005B6820463649102298472046354B197883
:100D400004F0DEFB204604F08FFB23685B6820463E
:100D50003149122298472046304B197804F0D0FBD5
:100D6000204604F081FB23685B6820462C49112251
:100D7000984720462B4B197804F0C2FB204604F01C
:100D800073FB23685B68204627490F22984720465B
:100D9000264B196804F0B4FB204604F065FB236879
:100DA0005B6820462249082298472046214B197843
:100DB00004F0A6FB204604F057FB23685B6820463E
:100DC0001D490422984720461C4B196804F098FBE3
:100DD000204604F049FB204601F012FD0FB030BD63
:100DE000FCA30000F49AFF1FF0A2000020FAFF1FEE
:100DF000F8A200007891FF1F04A300007C91FF1F60
:100E000010A300007491FF1F1CA300008491FF1F1A
:100E100030A300008591FF1F44A30000FCF9FF1FD1
:100E200058A30000CC9BFF1F28A400008891FF1F3F
:100E300038A400008C91FF1F44A400006891FF1F9C
:100E4000F0B59BB00220002103F056FA08200021E3
:100E500003F052FA0920002103F04EFA1420002179
:100E600003F04AFA0B20012103F046FA0620012183
:100E700003F042FA0520012103F03EFA042001218B
:100E800003F03AFA0320012103F036FA6F4B186899
:100E9000FFF7C0FC6E48072104F010F96D4B1A787B
:100EA00042F005021A700A2001F0B2FCC8B90A2605
:100EB0000F27642510E03846FFF7ACFC284603F006
:100EC00061FA0020FFF7A6FC284603F05BFA013424
:100ED000062C01DDFFF790FC304601F099FC00285C
:100EE000E9D05D4B4BF233329A61DA6168465B4977
:100EF000002201F013FA5A4B9DF804201A71029A4D
:100F00009A609DF80C201A73049A1A61059A5A6126
:100F1000069A9A61079ADA61089A1A629DF8242063
:100F200083F824209DF8252083F8252003F126014D
:100F30001AAA52F8425D54689068C3F82650C3F864
:100F40002A40C3F82E00137B0B73684601F044FB64
:100F5000444801F0BFFA10B1FFF7B8FD01E0FFF718
:100F60006DFE3F4B1A798DF838209A680F921A7BE4
:100F70008DF840203C4A0D921A6911925A691292DA
:100F80009A691392DA6914921A6A159293F82420D6
:100F90008DF8582093F825208DF8592053F8260F06
:100FA00059689A68CDF85A00CDF85E10CDF86220E5
:100FB0001B7B8DF866300DA80021FFF7D7FA0DA82E
:100FC00001F00AFB002002F005FF284B1B68984245
:100FD00005DC1E4B18600122254B1A7003E000202F
:100FE000014602F00BFF09202249032203F0E2F838
:100FF00014202149032203F0DDF820482049002273
:1010000002F0CCF81F4B186807F0FCFC01461E48A4
:1010100007F000FE0446002107F0FAFE38B1204632
:101020004FF07C5107F03AFC07F006FF06E020463F
:101030004FF07C5107F030FC07F0FEFE134B1860B8
:10104000134B1A68134B1A601BB0F0BD289BFF1F8F
:101050000082FF1FD05700206CFAFF1FA8A20000DB
:10106000B49AFF1FFCA3000078A4000058FAFF1FE9
:101070006491FF1F65040000710400004CFBFF1F1A
:101080002EBAE8026891FF1FC07FA1495CFAFF1FDA
:10109000AC56002060FAFF1F2DE9F04F87B0804B5F
:1010A0001B68002B1BDD00263546344637464FF0C3
:1010B000170A4FF01509DFF8E881504602F0A6FD47
:1010C0000744484602F0A2FD0444162002F09EFDAB
:1010D00005440136D8F80030B342EEDC02E00025CA
:1010E0002C462F4697FBF3F7002694FBF3F495FB71
:1010F000F3F56C4B1B6804936B4BD3F800B06B4B50
:101100001B6805936A4B1B68E31A83EAE371A1EB42
:10111000E3710291674BD3F80080674B1B68EB1AB1
:1011200083EAE372A2EBE372039240F2FF394F4588
:10113000B4BF38464846DFF8C8A1DAF800205F4B54
:1011400053F82230009320EAE07031464FF4806279
:10115000334604F0DFF95A4B19685A4B1A68DAF82B
:10116000003003EB8303C3EB031303EB020E564B78
:1011700053F82EE0554BA3FB0EC3C3EB0E0E03EB4F
:101180005E0E4FEA5E2E01FB0EFE63194B4528BF33
:101190004B46B3FBF1F303FB0EF3904217D00499D7
:1011A0007A1A002AB8BF52425A456EDD484A10608A
:1011B000484A1178484A11703A4A176065E0444A33
:1011C0001060464A1178444A1170384A1660029AF3
:1011D000424509DD424A1360424A1360424A11788F
:1011E000424A1170324A1460DDF80CC0E04509DA59
:1011F0003B4A13603B4A13603D4B1A783B4B1A70D5
:101200002D4B1D603B4801F01BFF38B1394801F000
:10121000F9FE003018BF0120344B1870364C266898
:10122000364D2B68F61A082003F058F8236806FBA1
:10123000103028602368181AB0F5C87F2CD9304ABE
:101240001368013313602F4A1268934202DD0022B3
:101250002B4B1A602A4B1968184B53F821301C4A43
:101260001268934202DC013B194A136001221A4BB7
:101270001A70214B1868214A10601A68224B1A60B4
:101280000020C9B202F0BAFD06E0059A002AB8BFF4
:101290005242934593DB9AE707B0BDE8F08F00BF59
:1012A0009491FF1F309BFF1F7091FF1FAC9AFF1F8F
:1012B000B09AFF1F8091FF1FEC9AFF1F04FBFF1FD6
:1012C0008891FF1F2CFAFF1F0CE7FF1F051040003D
:1012D000A4FAFF1F8491FF1F6491FF1F8591FF1FD8
:1012E0002C9BFF1F64FAFF1FFCF9FF1FB89BFF1F19
:1012F000CC9BFF1F48FAFF1FAC560020A0460020E1
:10130000289BFF1F58FAFF1F349BFF1FF8B55D4B4A
:101310001B681BB95C4B1A685A4B1A605B4B93F8FD
:10132000583013F0FF0F04D1594B1B78002B40F0BD
:101330005D81584B93F8583013F0FF0F04D1544B94
:101340001B78002B40F06081534B1A68534B1A6096
:101350004E4B1B7E0BB1FFF74FFA514B1B78002B06
:101360002ED0504C504B18682168FFF70FFA0146F9
:101370004E4B186022684E4B1A604E4B1B7833B9A7
:10138000434B1B781BB1404B1A684B4B1A604A4CBD
:10139000226822F00F0222603C4802F027F93D4803
:1013A000424B1968226802F021F93F4B1868FFF799
:1013B00031FA00223A4B1A70374B1A68374B1A60D1
:1013C0003C4B1B7843B1304B1B683B4A13602D4AA2
:1013D00013600022374B1A70384B1B7823B9354BFA
:1013E0001B78002B00F0C6802F4B1868304B196813
:1013F000FFF7CCF901462D4B18602F4B1A6822F0ED
:101400000F021A60244B1B682D4B1B78002B63D0F6
:10141000204802F0EBF8204F38682A4E3368C01A93
:1014200007F0ECFA284907F041FB07F02BFDC0EB71
:10143000C000C0EB8010411D244DA5FB0131C9083F
:101440004FF0FF342248B4FBF1F1002201F0A6FE78
:1014500038683368C01A07F0D1FA1B4907F026FB39
:1014600007F010FDC0EBC000C0EB80100530A5FBFD
:101470000035E9081748B4FBF1F1012201F08EFEB6
:1014800062E000BF24FAFF1F64FAFF1F5C9BFF1F8E
:101490008C91FF1FA8FAFF1FAC560020E89AFF1F8F
:1014A0006491FF1FA4FAFF1F289BFF1F48FBFF1F2B
:1014B0002CFAFF1FB89BFF1F30FAFF1FB99BFF1FBD
:1014C000F09AFF1F60FAFF1FCDCCCC3DCDCCCCCC29
:1014D0004CFBFF1F74FBFF1F534802F087F8534F6C
:1014E0003868534E3368C01A07F088FA514907F03C
:1014F000DDFA07F0C7FCC0EBC000C0EB8010411D57
:101500004D4DA5FB0131C9084FF0FF344B48B4FBEA
:10151000F1F1012201F042FE38683368C01A07F089
:101520006DFA444907F0C2FA07F0ACFCC0EBC0000A
:10153000C0EB80100530A5FB0035E9084048B4FB3E
:10154000F1F1002201F02AFE3E4B1A7882F00102EE
:101550001A703D4A3D4B196813680B4413603C4AAE
:10156000136000233B4A13703B4A13702F4B1A68D9
:101570002F4B1A602D4B1A68384B1B68D31A384A08
:1015800012689A4205D8FFF787FD284B1A68334B3B
:101590001A60264B1A68334B1B68D31A324A1268FA
:1015A0009A4203D2214B1A682E4B1A601F4C2168B5
:1015B0002E4B1B68C91A0B2009298CBF0021012161
:1015C00002F068FE22682A4B1B68D31A532B29D9D4
:1015D0002268284B1B68D31A274A12689A4221D2E4
:1015E000264B1B78F3B1FFF72DF9F8BD244B186893
:1015F000244B1968FFF7CAF80146234B18600A48C4
:10160000002201F0F3FF94E61D4B18681D4B19688A
:10161000FFF7BCF801461C4B18601C48002201F083
:10162000E5FF91E6F8BD00BF5C9BFF1FAC560020B4
:1016300060FAFF1FCDCCCC3DCDCCCCCC4CFBFF1FFA
:1016400074FBFF1FF09AFF1F24FAFF1F5CFAFF1FB5
:1016500030FAFF1FB99BFF1FB89BFF1F68FAFF1FDF
:101660009091FF1F44FBFF1F6C91FF1FE89AFF1F23
:101670009CFBFF1F349BFF1F7491FF1F7C91FF1F7A
:10168000289BFF1F2CFAFF1F48FBFF1FA8FAFF1F14
:101690002DE9F84F02F064FB8E4C204600F08CFFE1
:1016A000DFF8849220468C494A4607F00BFC8B4DAC
:1016B0002846042105F12802FEF70CFF884B2B6019
:1016C0004FF48033AB61EB612B626B62854C20463B
:1016D000FEF724FF844E204631464A4607F0F2FBCF
:1016E000DFF88CB25846FEF719FF584631464A4695
:1016F00007F0E8FBDFF87C824046012108F1240274
:10170000FEF7E8FEDFF870A2C8F800A04FF0FF3641
:10171000C8F81860754F3846012107F12402FEF71A
:10172000D9FEC7F800A0BE61714E3046012106F116
:101730001802FEF7CFFE6F4B336047F6FF73F3835B
:101740004FF400433384DFF834A2504601210AF1FC
:101750001802FEF7BFFE684BCAF80030504601F091
:101760002DFE66480460C0F80480002404724472B0
:10177000C46003F095FD6248C0F800B04760047291
:101780004472C46003F08CFD5E480560C0F804A09C
:1017900004724472C46003F083FD5B48C0F80080AB
:1017A000456004724472C46003F07AFD57480760D4
:1017B0004560047201234372C46003F071FD544814
:1017C0000560466004724472C46003F069FD514CC8
:1017D0002046514903F0F8FE204650494A4607F09A
:1017E00071FB4F4D05F5966705F59F4808F13008E8
:1017F00000260BE02046314603F0E6FE1034AC42F2
:10180000F8D13D4607F59667474503D02C4605F5C8
:101810009665EFE700204349434A07F053FB434DE9
:1018200005F5966705F59F4808F1300800260BE09E
:101830002046314603F0C8FE1034AC42F8D13D4694
:1018400007F59667474503D02C4605F59665EFE703
:10185000354C00203649224607F034FB354D2846EA
:10186000354903F0B1FE28462C49224607F02AFBF1
:10187000324D284600F0A0FE28461749224607F0C0
:1018800021FB2F480821142201F0AAFB2D48022138
:10189000142201F0A5FB2C4B19682C4A1160196821
:1018A0002B4A116019682B4A116019682A4A116085
:1018B00019682A4A11601968294A11601968294A69
:1018C00011601968284A11601A68284B1A60BDE82F
:1018D000F88F00BFF49AFF1FD92500006CFAFF1F94
:1018E000E0A600005C9BFF1F7D04000074FBFF1F4F
:1018F000389BFF1FC0A60000F0A60000BC9BFF1F86
:10190000D09BFF1F10FAFF1FCCF9FF1F00FAFF1F2B
:10191000DCF9FF1F38FAFF1F4CA40000315500000E
:10192000A0FBFF1FB50400006091FF1FE09BFF1F9D
:1019300095040000ECF9FF1F50A40000B49AFF1FAB
:1019400048FAFF1FFCE6FF1FAC56002034FAFF1FC9
:1019500028FAFF1F60FAFF1F44FBFF1FE89AFF1FD2
:10196000A046002068FAFF1F349BFF1F9CFBFF1F4F
:10197000A8FAFF1F4CFBFF1FD0A60000E0E6FF1FE8
:1019800072B60D4B4FF0FF30002203F65461C3F8DE
:10199000000283F8082283F8092203F5037343F851
:1019A000083C8B42F3D3002243F8082C024A034B35
:1019B0001A6062B6704700BFA8460020A446002007
:1019C00003684BB172B6036893F80822013A83F8B2
:1019D000082262B600230360704700BF2DE9F84378
:1019E00080460F4691462C4B1B680BB9FFF7C8FF8A
:1019F000D8F8000030B1D0F80032BB424AD040469F
:101A0000FFF7DEFF72B6244B1868034600252E460A
:101A10002A46D3F80012B94214D119463AB1D3F884
:101A20000442C2F80442C3F804021B4A136091F84E
:101A30000822013281F8082262B6C8F80010184660
:101A4000BDE8F88393F80842002C08BF1546002C27
:101A500008BF1E46D3F8044214B11A462346D8E7FD
:101A6000B9F1000F13D096B13DB1D6F80432C5F8E4
:101A70000432C6F80402084B1E60012386F80832BF
:101A8000C6F80072002386F80932C8F8006062B612
:101A9000D8F80000BDE8F883A4460020F8B50D464C
:101AA00017463D4B1B78002B28D072B63A4B1B785B
:101AB00013F0010F07D0394B1968394A12680A40F0
:101AC00038490A601A60344B1B7813F0020F07D0B4
:101AD000354B1968324A52680A4032494A601A60E6
:101AE0002D4B1B7813F0040F07D0304B19682C4A8C
:101AF00092680A402B498A601A6062B62C4BDB68F8
:101B0000B3F1384F0AD02A4B2A4A1A604FF03842B4
:101B1000DA604FF078421A61274A1A60294601229A
:101B2000FFF75CFF0446A8B190F8093213F0010FEB
:101B300001D0064611E006462846214600F0BCF9D1
:101B400050B11FB9012384F8093206E0052384F857
:101B5000093202E0002600E000260F4B1B78C3B1DB
:101B600013F0010F03D00F4B1A68144B1A600A4B85
:101B70001B7813F0020F03D00A4B5A68104B1A60FF
:101B8000054B1B7813F0040F03D0064B9A680D4BDE
:101B90001A603046F8BD00BF1C56002080E100E00E
:101BA000045600201056002084E100E088E100E0A7
:101BB00000C0024001401F0000001F8000E100E063
:101BC00004E100E008E100E0F8B505460E461746DE
:101BD000414B1B78002B28D072B63F4B1B7813F07B
:101BE000010F07D03D4B19683D4A12680A403D4934
:101BF0000A601A60384B1B7813F0020F07D03A4B7B
:101C00001968374A52680A4036494A601A60324BAE
:101C10001B7813F0040F07D0344B1968304A9268D0
:101C20000A4030498A601A6062B6314BDB68B3F112
:101C3000384F0AD02E4B2F4A1A604FF03842DA60E4
:101C40004FF078421A612C4A1A6028463146002229
:101C5000FFF7C4FE044620B190F8093213F0010FDB
:101C600005D13046394600F027F9064600E0012646
:101C7000194B1B78C3B113F0010F03D0194B1A682D
:101C80001E4B1A60144B1B7813F0020F03D0154B38
:101C90005A681B4B1A60104B1B7813F0040F03D0CB
:101CA000104B9A68174B1A60A4B194F8093213F0DC
:101CB000010F0AD0384621464FF4007201F0FEFDB4
:101CC0002846FFF77DFE0120F8BD2846FFF778FE85
:101CD0003046F8BD3046F8BD1C56002080E100E0DB
:101CE000045600201056002084E100E088E100E066
:101CF00000C0024001401F0000001F8000E100E022
:101D000004E100E008E100E01B4B1B68012283F8BE
:101D100000211A4B4FF00042DA62020A5A631A4657
:101D2000D36A002BFCDA154B9A6B4FF00042DA6253
:101D30000A0C42F080525A631A46D36A002BFCDA2E
:101D40000E4B9A6B4FF00042DA6289B241F080513B
:101D500059631A46D36A002BFCDA084B9A6B4FF092
:101D60000042DA62C0B258631A46D36A002BFCDA2A
:101D7000024B9B6B704700BFFC54002000C0024028
:101D800030B40921094A4FF00045FF24D56254635D
:101D9000D36A002BFCDA906B10F0800F03D04B1E3F
:101DA00013F0FF01F2D1C0B230BC704700C0024056
:101DB0000D4B4FF00042DA620C4A5A631A46D36A5E
:101DC000002BFCDA084B986B00044FF00042DA62FB
:101DD000064A5A631A46D36A002BFCDA024B9B6B05
:101DE0009BB21843704700BF00C00240FFFF0010C5
:101DF000084B1B68012283F88020074B4FF00042FC
:101E0000DA62FF225A631A46D36A002BFCDA024BCD
:101E10009B6B7047FC54002000C0024010B544F298
:101E200095000021FFF770FFFFF7AAFF0446FFF7B8
:101E3000DFFF204610BD00BF10B544F687004FF409
:101E4000D571FFF761FFFFF79BFF012818BF4FF027
:101E5000004403D1FFF7ACFF0446FFE7FFF7C8FFDC
:101E6000204610BD10B5044647F2FF700021FFF771
:101E70004BFFFFF785FFFFF7BBFF46F6FF1021463C
:101E8000FFF742FFFFF77CFF0446FFF7B1FF204654
:101E900010BD00BF10B547F6FF200021FFF734FF4B
:101EA000FFF76EFF18B9FFF783FF044600E0002438
:101EB000FFF79EFF204610BD70B503460D46324A1F
:101EC0001278012A98BF430245F2FF101946FFF726
:101ED0001BFFFFF755FF18B1FFF78AFF002070BD09
:101EE0002A4A4FF00044FF20D4625063D36A002B8B
:101EF000FCDA936BDBB2FE2B05D0FF2BF4D0FFF79F
:101F000077FF002070BD05F5FF76204B204A5A630D
:101F10005A63B54213D2A81C05F500751A461C4C2D
:101F2000D36A13F0F00FFBD05463936B190A00F8D7
:101F3000021C00F8013C0230A842F1D100E02E461C
:101F4000124AD36A13F0F00FFBD0104B9B6B1A0AA6
:101F5000327073700D4AD36A13F0F00FFBD00B4B45
:101F60009A6B0C4A1268012182F880104FF00042EF
:101F7000DA62FF225A631A46D36A002BFCDA034B5B
:101F80009B6B012070BD00BF0055002000C00240C7
:101F9000FFFF0010FC54002010B400230361CB6944
:101FA00043618A8A4B8B43EA02438361C361CB7AE4
:101FB00003F01003DBB2002B0CBF0023022380F8D8
:101FC00025300A78202A08BF00F1260308D020E037
:101FD00014F8012F202A03D003F8012B8342F7D1F4
:101FE0000A7A202A12D02E221A700A7A5A704A7A55
:101FF000202A02D1981C093102E0D81C0A319A70BB
:102000000A78202A1ABF431C0270034600221A7065
:1020100006E000F1270380F826200C462E30D7E793
:102020005DF8044B704700BF2DE9F04F87B0824642
:102030000D46144600F0C0FA002C40F0A38095F83D
:102040002530032B08D12B695C0AAB69E318019397
:102050006B695B0A039318E0022B40F093804B4BB3
:102060001B7803F10900012202FA00F00138296906
:1020700001404C0AE969023901FA03F04449096850
:102080000144214401919A4003922E69C6F34316FC
:10209000DFF800B1DFF80091CDF808A0A2460022D9
:1020A00006A840F8042D0199FFF7F8FC00285BD042
:1020B00000EB46173C4607F50077A7EB46174FF0B5
:1020C0000B08E37A0F2B29D02378002B4FD0E52B78
:1020D00024D020464946424607F0E2F9F0B12046B6
:1020E0005946424607F0DCF9C0B1DDF808A0504679
:1020F0002146FFF751FF05A8FFF762FC2B6920334B
:102100002B61224A12780932012101FA02F2013AC6
:102110001A422ED1284600F0F1F92AE02B6920332B
:102120002B612034BC42CCD105A8FFF749FC0AF151
:10213000010A039B534512D895F82530032B1CD078
:10214000284600F0DBF9C0B1EB69023B0F4A127878
:1021500093400F4A12689A1801924FF0000A05A89E
:10216000FFF72EFC00269AE7DDF808A001E0DDF875
:1021700008A005A8FFF724FC04E0DDF808A005A8E6
:10218000FFF71EFC504607B0BDE8F08F0C5500204D
:102190000855002060A4000054A400002DE9F04F71
:1021A00087B0064691460B78002B00F0A3802F2BBA
:1021B0000DD1A5E011F8013F002B00F0A2802F2BDC
:1021C0000CD19EE002F8011B9A42FBD321E003AA46
:1021D00005A820240DF1150C0DF117052E2B0BD1A0
:1021E000824214D2134603F8014B8342FBD1531CA5
:1021F000C3EB0C031A440AE07E2B08D8A3F1610755
:10220000FFB2192F9CBF203BDBB213700132AA42F0
:10221000D0D396F82530032B05D1D6F818B07369C2
:102220005B0A01930EE0022B66D1B269F261394B71
:102230001B78023A02FA03FB374A126893440122E0
:102240009A4001920021009101278A4639E006A8B0
:1022500040F810AD59465246FFF720FC044648B3FB
:1022600055464FF00B08204603A9424607F018F9DF
:1022700028B948462146FFF78FFE01241DE0237848
:102280003FB10BB1E52B05D1C9F820B089F8245036
:1022900057468BB133692033336120340135102D1B
:1022A000E1D10BF1010B02A8FFF78AFB009A013282
:1022B000009206E0002400E0002402A8FFF780FB63
:1022C00023E0009B01998B42C1D396F82530032B64
:1022D00014D0304600F012F90446B0B1F369023B65
:1022E0000C490A7803FA02FB0B4A13689B44CDF8A9
:1022F00000A0E6E7002408E0002406E0002404E053
:1023000003AA20210DF117035CE7204607B0BDE8C2
:10231000F08F00BF0C5500200855002030B59BB051
:1023200005460C4600F048F9684B1A798DF80420F0
:102330009A6802921A7B8DF80C20654A00921A69FD
:1023400004925A6905929A690692DA6907921A6AA2
:10235000089293F824208DF8242093F825208DF8F6
:10236000252053F8260F59689A68CDF82600CDF835
:102370002A10CDF82E201B7B8DF8323000E001347E
:1023800023782F2BFBD043BB9DF804302B71029B8D
:10239000AB609DF80C302B73049B2B61059B6B612C
:1023A000069BAB61079BEB61089B2B629DF8243079
:1023B00085F824309DF8253085F825301AAB53F880
:1023C000424D58689968C5F82640C5F82A00C5F8F6
:1023D0002E101B7B85F8323071E00DA800F0ECF870
:1023E000684621460DAAFFF7D9FE631C1C4613F868
:1023F000012B2F2A5DD0002AF8D15DE09DF83830FE
:102400002B710F9BAB609DF840302B73119B2B61A0
:10241000129B6B61139BAB61149BEB61159B2B6251
:102420009DF8583085F824309DF8593085F82530CE
:102430001AAB53F80E4D58689968C5F82640C5F890
:102440002A00C5F82E101B7B85F832302DE09DF850
:1024500038308DF804300F9B02939DF840308DF892
:102460000C30119B0493129B0593139B0693149BB2
:102470000793159B08939DF858308DF824309DF8EC
:1024800059308DF825301AAB53F80E0D59689A68FB
:10249000CDF82600CDF82A10CDF82E201B7B8DF824
:1024A00032300DA800F098F86AE70DA800F094F813
:1024B00005E00028CBD1F8E700289FD1F5E7684672
:1024C00000F08AF828461BB030BD00BF1055002030
:1024D00078A4000010B58EB0014601A80022FFF7D5
:1024E0001DFF9DF82940032C8CBF0024012401A866
:1024F00000F072F820460EB010BD00BF30B583B0BA
:10250000044600230193174B1968C569164B1B78C5
:10251000102B0AD101A801EB15210122FFF7BEFA09
:10252000B0B1EDB230F815300AE001A801EBD511D9
:102530000122FFF7B3FA68B105F07F0550F82530A6
:10254000E3610A4A1468A3428CBF0024012402E01C
:10255000002400E0002401A8FFF732FA204603B06F
:1025600030BD00BF44550020485500204C55002088
:1025700010B582B002AB03F8011D02685468194619
:102580000122A04702B010BD90F82530012B1CBFDE
:10259000012303710020704790F82530012B07D8E4
:1025A00003694069C01A0028B8BF6FF00040704747
:1025B00000207047704700BF002202714FF47A710B
:1025C0008160027303490160042180F8251080F8BE
:1025D0002620704778A40000044A0260042280F894
:1025E0002520002280F82620704700BF78A4000034
:1025F0002DE9F04F83B00646884690F82530012B30
:1026000000F2A38003694169C91A8A4234BF914626
:102610008946B9F1000F00F09A804F4A127802F112
:102620000901012000FA01F101390B40F1698C1E0A
:1026300094404A4A1068044404EB5324C3F3080549
:10264000002D3CD0002202A840F8042D2146FFF7BF
:1026500025FA014610B3C5F5007BCB4509D94046A4
:1026600029444A4601F02AF933694B4433614D4607
:1026700015E0404629445A4601F020F933695B448D
:10268000336101A8FFF79CF90134334B1B78012219
:1026900002FA03F3013B1C420BD104E0002501A820
:1026A000FFF78EF954E03046FFF728FF08B95D4682
:1026B0004EE0CB4501D2D84403E05D4648E04FF000
:1026C000000BCBEB09075D46CBEB080BDFF888A0CE
:1026D0000BEB050800230193B7F5007F0FD201A88B
:1026E00021461A46FFF7DAF9014608B340463A4652
:1026F00001F0E4F833693B4433614D4618E001A82A
:1027000021464246FFF760FA90B1336903F5007342
:10271000336105F5007501A8FFF752F901349AF805
:102720000030012202FA03F3013B1C4208D103E00E
:1027300001A8FFF745F90BE03046FFF7DFFE38B19F
:10274000A7F50077A945C3D802E0002500E00025E1
:10275000284603B0BDE8F08F0C5500200855002036
:1027600000B583B00DF107010122FFF741FF0128F9
:102770000CBF9DF807004FF0FF3003B05DF804FB7D
:1027800070B582B004460669C5690DF107010122E2
:10279000FFF72EFF012803BF2661E5619DF80700C2
:1027A0004FF0FF3002B070BDF8B505460E4690F808
:1027B0002530012B1DD843698B421CD3C7690F4BB1
:1027C0001B78093321FA03F4026922FA03F3E31AAE
:1027D00052BF1C468369C36144B12846FFF78EFE91
:1027E000034608B9EF6107E0013CF6D12E610123F1
:1027F00002E0002300E000231846F8BD0C5500203D
:10280000042380F82530002380F82630704700BF6D
:102810002DE9F04F83B07B4D7B4B53F830302B606C
:1028200001247A4B1C70214601F066FD2B6883F869
:10283000804000F0C1FF764B1B78002B28D072B689
:10284000734B1B7813F0010F07D0724B1968724A53
:1028500012680A4071490A601A606D4B1B7813F0C8
:10286000020F07D06E4B19686B4A52680A406B49D9
:102870004A601A60664B1B7813F0040F07D0694B4F
:102880001968654A92680A4064498A601A6062B6AB
:10289000654BDB68B3F1384F0AD0634B634A1A606B
:1028A0004FF03842DA604FF078421A61604A1A609D
:1028B00005215D4A4FF000445E48D4625063D36AFC
:1028C000002BFCDA936B4B1E13F0FF01F5D15A4B32
:1028D0001D684F4CDFF87091DFF868A1DFF8448184
:1028E0004F4F4C4EFFF79AFA012856D02378B3B1D8
:1028F00013F0010F03D0494B1A68504B1A6023782C
:1029000013F0020F03D0454B5B68CAF80030237800
:1029100013F0040F03D0414B9B68C9F80030464BBD
:102920001B685B1BFA2B00F2BD81237823B372B6C0
:10293000237813F0010F06D03268374B1B68134021
:10294000364A13603360237813F0020F06D03A68DA
:10295000314B5B681340314A53603B60237813F07E
:10296000040F08D0D8F800202B4B9B6813402B4A4B
:102970009360C8F8003062B62B4BDB68B3F1384F78
:10298000B0D0294B294A1A604FF03842DA604FF034
:1029900078421A61264A1A60A4E7FFF74DFAB0F1AF
:1029A000004F04D10122264B1A7000254EE0B0F5ED
:1029B000D57F05D10222224B1A704FF0804545E0A9
:1029C000134B1B78002B00F06F8113F0010F03D025
:1029D000124B1A68194B1A600D4B1B7813F0020F3B
:1029E00003D00E4B5A68174B1A60094B1B7813F033
:1029F000040F00F05B81094B9A68134B1A600024A6
:102A000059E100BFFC5400204CA7000001550020F4
:102A10001C56002080E100E00456002010560020E3
:102A200084E100E088E100E000C0024001401F00B6
:102A300000001F80FFFF0010AC56002000E100E006
:102A40000055002004E100E008E100E09C4B1E6816
:102A50009C4CDFF898A2DFF890B2DFF8B092DFF874
:102A6000B082994F2846FFF7FDF9024600285DD055
:102A70002378B3B113F0010F03D0944B1968944B32
:102A80001960237813F0020F03D0904B5B68CBF8EA
:102A90000030237813F0040F03D08C4B9B68CAF8E6
:102AA0000030012A00F20481854B1A68921B40F223
:102AB000DC539A4200F2FE80237833B372B6237857
:102AC00013F0010F06D03A68824B1B6813407F4A0F
:102AD00013603B60237813F0020F08D0D8F8002071
:102AE0007C4B5B681340794A5360C8F80030237808
:102AF00013F0040F08D0D9F80020764B9B681340E0
:102B0000724A9360C9F8003062B6734BDB68B3F168
:102B1000384FA7D0704B714A1A604FF03842DA60D4
:102B20004FF078421A616E4A1A609BE76D4B1B7832
:102B3000022B07D1FFF7AEF9800F032802D1032241
:102B4000684B1A705F4B1B78C3B113F0010F03D0B1
:102B50005E4B1A685E4B1A605A4B1B7813F0020FDB
:102B600003D05A4B5A68604B1A60564B1B7813F0CF
:102B7000040F03D0554B9A685C4B1A60002202A8E0
:102B800040F8042D1146FEF789FFB0F8FE214AF601
:102B900055239A4277D190F8C231062B03D00B3BD4
:102BA000DBB2012B02D8D0F8C64100E0002401A816
:102BB000FEF706FF01A821460022FEF76FFFB0F8DE
:102BC000FE214AF655239A425FD1B0F80B30B3F597
:102BD000007F5CD1037C022B5BD1C589002D5AD0CC
:102BE000427BB2FA82F2C2F11F02414B1A70C38AD1
:102BF00003B9436AB0F8117007F10F0E4FEA1E1EB9
:102C0000B0F8136006B9066A61193A4C216019449C
:102C1000394C216003EB0E0C8C44384CC4F800C0D6
:102C2000741BCEEB0404A4EB430424FA02F2551CFB
:102C3000334C256040F6F474A2422ED94FF6F4745A
:102C4000A2420BD810202F4A10702F4A7F015761E3
:102C50000B449361032382F825300AE02022294B9C
:102C60001A70294B00225A61C26A9A61022283F8C3
:102C70002520254B9A69DA6100221A6101A8FEF726
:102C80009FFE01240AE0002408E0002406E000245E
:102C900004E0002402E0002400E0002401A8FEF784
:102CA0008FFE08E0002406E0002404E0002402E097
:102CB000002400E00024204603B0BDE8F08F00BFF0
:102CC000AC5600201C56002080E100E01056002089
:102CD00000E100E00456002000C0024001401F0057
:102CE00000001F800055002004E100E008E100E042
:102CF0000C550020445500200455002008550020A4
:102D00004C550020485500201055002088E100E077
:102D100084E100E010B5054C2046FFF74DFC20464D
:102D20000349044A06F0CEF810BD00BF105500203C
:102D3000D92500006091FF1F014A024B1A607047BD
:102D400000000238505500200B4B1B7813B90B4B79
:102D50001B7873B10A4B1B78202B03D90123037115
:102D600000207047581C064A1070064AD1540120B2
:102D700070470020704700BFBE55002080550020DE
:102D8000BF5500205C550020704700BF024B1878EB
:102D9000024B1B78C01A7047BD550020BC5500205F
:102DA000074B1B78074A12789A4205D9591C044AE6
:102DB0001170054AD05C70474FF0FF30704700BF7C
:102DC000BC550020BD55002084550020054B1B78C4
:102DD000054A12789A4286BF044AD05C4FF0FF3011
:102DE000704700BFBC550020BD5500208455002011
:102DF00008B5104BDB7813F0200F0CD1122001F036
:102E000021FA0D4B1B689BB100210C4A11700C4A32
:102E10001078984708BD0B4A13780133DBB2137062
:102E2000012B02D8084B1B7813B9122001F00AFAC3
:102E300008BD00BF0060064058550020BC5500206A
:102E4000BD550020A85500208055002038B51446F7
:102E50000D4B1B7813B90D4B1B7893B10C4B1D78A0
:102E6000C5F12103A34202D2012202711C46094886
:102E70002844224600F022FD2544054B1D702046C3
:102E800038BD002038BD00BFBE5500208055002051
:102E9000BF5500205C550020002202714FF47A716A
:102EA00081600273014A0260704700BF98A400006D
:102EB00008B53D4BDB78DBB213F0100F06D01021C4
:102EC000394AD17013F0400F03D108BD13F0400F01
:102ED0002CD013F0040F1BD00023344A1370344A53
:102EE0001370344B1B681BB19847314B1B782BB9BF
:102EF00001222F4B1A7000222F4B1A702A4BD0221E
:102F00009A702D4A12781A7101222C4B1A7009E01E
:102F10000122264B1A700022294B1A70224BC02224
:102F20009A701B790222204BDA7008BD1E4A9278F3
:102F300012F0100F1CD013F0010F14D11F4B1B788F
:102F40001B4A12789A4207D9591C1C4A11701A4A16
:102F5000D25C154B1A7102E00022134B1A71D02279
:102F6000114B9A701BE0104BC0229A701B7916E02F
:102F70000022144B1A7012201349032201F01AF98F
:102F8000094B1B79DAB20E4B1B781F2B07D8074968
:102F9000097821B1581C0A4908700C49CA54022208
:102FA000014BDA7008BD00BF006006405455002098
:102FB000BF550020A45500205C550020C0550020BE
:102FC000BD550020A8550020F12D0000845500209B
:102FD00008B50248FFF760FF08BD00BFAC550020F0
:102FE00038B504460D46426000238360044B1B68DD
:102FF0000360084601F072F920736573204638BDFE
:10300000AC560020007B704710B50446407B01F0B1
:1030100065F9237B83420CD0084B1A682368D21AC7
:1030200063689A4207D3054B1B6823602073012015
:1030300010BD002010BD002010BD00BFAC56002008
:1030400010B50446FFF7E0FF034620B10023A3605C
:103050000123A37311E0A2686AB1094908682168D5
:10306000411A8A4207D8064B1B6823600023A360DD
:103070000123A37301E00022A273184610BD00BF14
:10308000AC560020F8B50646002102F0D9F80746F4
:10309000B8B1031D00F58275B6F91E40B6F92010CF
:1030A00033F9022B9442A8BF14469142B8BF11468F
:1030B0009D42F5D8F483318401233377384602F0FA
:1030C00089F8F8BD2DE9F04F83B0019084693CB9CF
:1030D000002102F0B5F800285AD002F07BF857E042
:1030E000B4F1FF3F0FD10198002102F0A9F8044686
:1030F00000284DD001982146002202F08BF820468E
:1031000002F068F844E00198002102F0A5F880463A
:1031100000283DD0019BD3F81CC093F820900023D9
:103120001D4F9B464FF0FF3A4E46200EC4F30F2131
:1031300008EB0302B2F90450C1F5803E37F9109054
:10314000013037F9100001FB00F109FB0E110914E1
:1031500001FB05F1C913918026B1E243944506D2E3
:10316000644407E0A44504D2CCEB040402E05446D6
:1031700000E05C460233B3F5807FD6D1019B9C61B1
:1031800018464146002202F045F8404602F022F877
:1031900003B0BDE8F08F00BFB0A4000072B6836931
:1031A00013B90123836105E0B3F1FF3F04BF6FF062
:1031B00001038361C16180F8202062B6704700BFBF
:1031C00010B5044602F036F9204610BD08B5034894
:1031D0000349044A05F076FE08BD00BFC45500202F
:1031E000C13100006091FF1F08B503480349044A3C
:1031F00005F068FE08BD00BFCC550020C1310000BD
:103200006091FF1F2DE9F84381468046002637462E
:10321000F7B94846314602F01FF80746002853D058
:10322000D8F81810B1F5803F4ED0031D00F5827418
:103230001A6831FB02F031FB12F200F30F0002F3C7
:103240000F02C0EA024243F8042B9C42F0D83BE054
:103250004846314601F0F4FF8446A8B33B1D051DE6
:10326000D8F8184007F5827EB4F5803F16D107F1F3
:103270000C040C3054F8082C50F8081C92FA11F287
:1032800044F8082C5A6850F8041C92FA11F25A605B
:103290000833083408309E45ECD812E055F8042B6A
:1032A00034FB02F034FB12F200F30F0002F30F02C2
:1032B000C0EA0242196892FA11F143F8041B9E45D4
:1032C000ECD8604601F086FF013608F10408042EB0
:1032D0009ED13FB148463946002201F09BFF384657
:1032E00001F078FFBDE8F88308B5002101F0A8FFE0
:1032F0000246A0B172B60A4B186810B91A6062B6DD
:1033000008BD084B1B681BB9064B1A6062B608BDA6
:1033100003490B60034B1A6062B601F05BFF08BD06
:10332000E4550020D455002038B51C4B1A681268AB
:1033300019791B4B19701B4B9A4206D2A3F5807466
:1033400004F5807304F5007402E0174B03F58074F4
:10335000164A106898B1021D47F6FF7532F9021B34
:103360002944091123F8021B9C42F7D801F032FFCF
:103370000F4B1A680D490A6000221A6005E040F2FE
:10338000FF7223F8022B9C42FBD80A4B1B781BB11F
:103390004FF08042084B1A6038BD00BFD85500205E
:1033A0001F8000401C8AFF1F1C89FF1FE45500205E
:1033B000D4550020E055002008E200E070B54F48E9
:1033C000012101F0D9FF4E4B1A6842F480521A6075
:1033D000802203F5032303F6F5731A700024494E87
:1033E00001253480284600F0CDFF0834A4B223B272
:1033F000B3F5006FF5D1444B1B6813F4800F16D062
:10340000424B1A6848F6A2731A409A420FD1404BB9
:103410001A6840F22F339A4209D13E4B1B68012BA8
:1034200005D13D4B1A6840F201139A4217D0364B32
:103430001A6842F480021A600122A3F59033303BEF
:103440001A6040F22F32083B1A60043B48F6A37220
:103450001A60324A1A6040F2011210331A60274C87
:1034600023681A6800222E49196023680221197105
:103470005A7101209871D87119725A729A72DA725F
:103480001A736FF0010159734FF0FF319973D973BB
:1034900019691C4919611A755A75D98A4FF48071D6
:1034A000D9821A765A769A76DA76D88BD983998B1E
:1034B00006219983237903F1804303F504331A70BD
:1034C000B0221A7001F004FF164B18702279164BC7
:1034D0001A70227902F110011448154B43F82100AB
:1034E00053119B0003F1604303F5614302F01F0297
:1034F000012101FA02F21A6070BD00BFD855002008
:103500002C80044000C00C403C800440006003401C
:10351000046003400C60034010600340A28F010070
:103520001C89FF1FE05500201B800040293300004C
:10353000008CFF1F08B503480349044A05F0C2FC8C
:1035400008BD00BFD8550020C13100006091FF1FA9
:1035500008B503480349044A05F0B4FC08BD00BFA0
:10356000E8550020C13100006091FF1F08B50348F5
:103570000349044A05F0A6FC08BD00BFF055002031
:10358000C13100006091FF1F08B503480349044A98
:1035900005F098FC08BD00BFF8550020C1310000BF
:1035A0006091FF1F002380F858304365C361704766
:1035B00008B572B690F8583013F0FF0F12D0002300
:1035C00080F8583062B62030FFF71AF9064B1B8896
:1035D00023B1013B9BB2044A138023B95E2000F063
:1035E0004FF908BD62B608BD0056002070B58EB018
:1035F00004460E461546FFF7DBFF5E2000F026F975
:103600002D4B1A8801321A8072B601A83146002269
:10361000FEF784FE9DF8083084F82430039BA362F3
:103620009DF8103084F82C30059B2363069B636360
:10363000079BA363089BE363099B23649DF82830E1
:1036400084F844309DF8293084F845300EAB53F8A7
:103650000E6D58689A68C4F84660C4F84A00C4F809
:103660004E201B7B84F8523001A8FEF7B5FF62B6EE
:1036700094F84530032B0BD9104C23685B68204627
:103680000F4917229847204601F0EEFE002010E077
:10369000012B94BF636B0023E361B5FBF3F104F1ED
:1036A000200003FB1151FFF77FF86565012084F8C6
:1036B00058000EB070BD00BF00560020D457002047
:1036C00008A700002DE9F041074690F8583013F0A4
:1036D000FF0F68D001F022FD8046002863D007F17B
:1036E00020042046FEF758FF002848D0204608F165
:1036F00004014FF48072FEF77BFF0546B0F5807F32
:1037000024D92A4E33685B683046294903229847FA
:10371000304629460A22002301F0B6FE304601F069
:10372000A3FE2046FFF76CF8224B1B8823B1013B18
:103730009BB2204A138013B95E2000F0A1F8002349
:1037400087F8583001233B76BDE8F0817B6D034458
:103750007B6500233B7645087F2D0AD86E00C6F5B1
:10376000807608EB45051C46EA1894800233B34284
:10377000FAD138464146002201F04CFD10E02046C7
:10378000FFF73EF80B4B1B8823B1013B9BB2094A64
:10379000138013B95E2000F073F8002387F85830C7
:1037A000404601F017FDBDE8F08100BFD45700206E
:1037B00020A7000000560020184B1A6842F48052DF
:1037C0001A60174B174A1A60174ADA6002F18042F2
:1037D0001A61164A1A60164B1B7813F0010F07BFC7
:1037E0004FF41072134B4FF40072134B1A60104BCE
:1037F0001B7813F0020F4FF400720CBF0F4B104BED
:103800001A600B4B1B7813F0040F07BF4FF41072B4
:103810000C4B4FF400720C4B1A6070473C80044014
:1038200000C0024001401F000110003800001F804E
:10383000D057002018B0044008C004401CB0044019
:103840000CC0044014B0044004C0044030B45E28EE
:1038500010D84309084A012101FA03F514782C43D2
:103860001470064A00F01F00814052F823400C43B8
:1038700042F8234030BC70471C56002004560020FC
:103880005E2815D8430900F01F00012202FA00F05B
:10389000084A52F8231021EA000042F8230038B900
:1038A000054A012101FA03F3117821EA0303137099
:1038B000704700BF045600201C560020844641EA91
:1038C000000313F003036DD1403A41D351F8043B98
:1038D00040F8043B51F8043B40F8043B51F8043BEA
:1038E00040F8043B51F8043B40F8043B51F8043BDA
:1038F00040F8043B51F8043B40F8043B51F8043BCA
:1039000040F8043B51F8043B40F8043B51F8043BB9
:1039100040F8043B51F8043B40F8043B51F8043BA9
:1039200040F8043B51F8043B40F8043B51F8043B99
:1039300040F8043B51F8043B40F8043B51F8043B89
:1039400040F8043B51F8043B40F8043B403ABDD2F8
:10395000303211D351F8043B40F8043B51F8043B9A
:1039600040F8043B51F8043B40F8043B51F8043B59
:1039700040F8043B103AEDD20C3205D351F8043B29
:1039800040F8043B043AF9D2043208D0D2071CBFF5
:1039900011F8013B00F8013B01D30B88038060461E
:1039A000704700BF082A13D38B078DD010F0030394
:1039B0008AD0C3F10403D21ADB071CBF11F8013B04
:1039C00000F8013B80D331F8023B20F8023B7BE753
:1039D000043AD9D3013A11F8013B00F8013BF9D27E
:1039E0000B7803704B7843708B7883706046704718
:1039F00030B4394A3949136813F0800FFBD10B6892
:103A000013F0800FF7D172B6354B1B78002B5FD0C7
:103A1000344B1C6804331D68043318680433196878
:103A200004331A6804331B682C44204401440A44BC
:103A30001A44C2F34E0242F400422B4B1A602C335C
:103A40001C6804331D680433186804331968043390
:103A50001A6804331B682C44204401440A441A4465
:103A6000C2F34E0242F40042204B1A6003F10813E5
:103A70001C6804331D680433186804331968043360
:103A80001A6804331B682C44204401440A441A4435
:103A9000C2F34E0242F40042154B1A602C331C68EC
:103AA00004331D68043318680433196804331A6832
:103AB00004331B682C44204401440A441A44C2F3D2
:103AC0004E0242F400420B4B1A600022044B1A7063
:103AD00062B630BC704700BF24B0034024B00B4036
:103AE0001E56002038B003402CB0034030B00340D5
:103AF0002CB00B4030B00B4060223A4B1A70E122E0
:103B000001331A70384B1B78082B10D1012203F1B6
:103B1000804303F56C331A60132334490B6001F5BD
:103B2000FF2101F2FC710A60314A13601FE00A2B89
:103B30000DD119222F4B1A6013232C490B6001F56C
:103B4000FF2101F2FC710A60294A13600FE00C2B7F
:103B50000CBF15223D22274B1A60122323490B600C
:103B600001F5FF2101F2FC710A60214A1360224B2A
:103B70001B7833B10123214A136002F50022136040
:103B800005E000231D4A136002F5002213601C4B60
:103B90001B78012B06D880231A4A136002F50022F5
:103BA00013601AE0042B06D88423164A136002F52A
:103BB0000022136011E0082B06D88523114A1360F8
:103BC00002F50022136008E0102B94BF86238723A0
:103BD0000C4A136002F50022136001220A4B1A708E
:103BE000704700BF004007409891FF1F0CB0034092
:103BF0000CB00B4008B003402156002020B0034019
:103C00009991FF1F24B003401E5600202DE9F84370
:103C10000D2813D9172802D80E38C0B20EE0A0F133
:103C20001A03DBB2052B02D80938C0B206E0A0F1B6
:103C30002203DBB2062B73D81838C0B23A4B1E5C95
:103C40003A4B1B780BB1FFF7D3FE16F0800F29D14A
:103C500072B6374C374D4FF0010726602F7062B6B1
:103C600072B6236813F0800F04D12B7813F0FF0F86
:103C70000FD1F2E7304B186800222E4B1A7062B653
:103C80002E4B1B781841BDE8F8832B7813F0FF0FFB
:103C9000E3D062B601F0D6FD72B6236813F0800F50
:103CA000F3D0E7E772B606F040095FFA89F9244FCE
:103CB000244C06F03F06244D4FF00108B9F1000FE7
:103CC00004D03B6823F010033B6003E03B6843F003
:103CD00010033B60266085F8008062B672B62368E8
:103CE00013F0800F04D12B7813F0FF0F0FD1E5E70D
:103CF000164B18680022144B1A7062B60F4B1B78D3
:103D00001841BDE8F8832B7813F0FF0FD6D062B6C8
:103D100001F098FD72B6236813F0800FF3D0E7E747
:103D20000020BDE8F88300BF24A700001E56002035
:103D300000B003402056002010B003401D56002064
:103D40000CB00B4000B00B401F56002010B00B40D1
:103D5000024A137813F0010FFBD0704701000240B4
:103D600010B584B0174B6C46186859689A68DB68C0
:103D70000FC4154B1B7813F0020F19D08022134B80
:103D80001A70332204331A700322013B1A7072B680
:103D90006B4643F001030E4C2046984762B62378E9
:103DA00013F0700304D0237009E0013B03D106E057
:103DB00044F6216304490A7812F0010FF5D004B0EB
:103DC00010BD00BF3CA700000100024007000240F8
:103DD0000000024010B50446B0F5006F0AD2064B51
:103DE0001B7813F0010F01D1FFF7BAFF04F1A054C3
:103DF000207810BD002010BD0100024038B50446F7
:103E00000D46B0F5006F0ED2074B1B7813F0010F73
:103E100001D1FFF7A5FF04F1A0542378AB4202D0F3
:103E20002570FFF795FF38BD01000240024B1A686C
:103E300001321A60704700BFAC56002008B50D4C27
:103E4000236813F4802F01D000F0F0FB236813F4F3
:103E5000806F01D001F0C2FF236813F4006F01D01E
:103E600002F0BAFA236813F4805FE9D002F044FD4F
:103E7000E6E700BF3480044008B5FFF7DFFF00BF6E
:103E80001022014B1A80704700200540704700BF88
:103E9000024A136818441060184670479C91FF1F2F
:103EA000FEE700BFEFF31383ABB9EFF31083ABB9B9
:103EB000EFF3058323B10F2B05D9094A985C03E082
:103EC0004FF4807000E00020EFF311833BB1834298
:103ED00038BF184670474FF0FF30704700207047DA
:103EE000F0E300E010B5154B1C681C6014F4805F13
:103EF00005D0134BDB6813B1114BDB68984714F402
:103F0000005F05D00E4B1B6913B10D4B1B69984721
:103F100014F0200F05D00A4B1B6E13B1084B1B6E1B
:103F2000984714F0100F07D0054BD3F884301BB11D
:103F3000034BD3F88430984710BD00BFA0900440D5
:103F40002456002010B5274B1C681C6014F4803FD9
:103F500005D0254B1B6813B1234B1B68984714F4FD
:103F6000003F05D0204B5B6813B11F4B5B6898473F
:103F700014F0010F05D01C4B1B6C13B11A4B1B6CBA
:103F8000984714F0020F05D0174B5B6C13B1164B1A
:103F90005B6C984714F0080F05D0134B9B6C13B162
:103FA000114B9B6C984714F0040F05D00E4BDB6C43
:103FB00013B10D4BDB6C984714F4002F05D00A4B5E
:103FC0005B6E13B1084B5B6E984714F4802F07D0DB
:103FD000054BD3F880301BB1034BD3F880309847A2
:103FE00010BD00BFA0A004402456002010B5384BDF
:103FF0001C681C6014F0080F05D0364B5B6A13B1C7
:10400000344B5B6A984714F0100F05D0314B9B6A14
:1040100013B1304B9B6A984714F0400F05D02D4BDD
:10402000DB6A13B12B4BDB6A984714F0800F05D085
:10403000284B1B6B13B1274B1B6B984714F0200FB9
:1040400005D0244B5B6B13B1224B5B6B984714F08C
:10405000010F05D01F4BDB6B13B11E4BDB6B984779
:1040600014F0020F05D01B4B9B6D13B1194B9B6DC8
:10407000984714F0040F05D0164BDB6D13B1154BA8
:10408000DB6D984714F4007F05D0124BDB6E13B143
:10409000104BDB6E984714F4807F05D00D4B1B6FDF
:1040A00013B10C4B1B6F984714F4806F05D0094B6C
:1040B0005B6F13B1074B5B6F984714F4006F05D02B
:1040C000044B9B6F13B1034B9B6F984710BD00BF10
:1040D000A0B004402456002010B5264B1C681C607C
:1040E00014F0010F05D0244B9B6813B1224B9B6841
:1040F000984714F0800F05D01F4B5B6913B11E4B1E
:104100005B69984714F0100F05D01B4B9B6913B1E6
:10411000194B9B69984714F0040F05D0164BDB69C7
:1041200013B1154BDB69984714F0080F05D0124BFB
:104130001B6A13B1104B1B6A984714F0020F05D08D
:104140000D4B9B6B13B10C4B9B6B984714F0200FDE
:1041500005D0094B1B6D13B1074B1B6D984714F02D
:10416000400F05D0044B5B6D13B1034B5B6D98475B
:1041700010BD00BFA0C004402456002010B50B4B5A
:104180001C681C6014F0020F05D0094B9B6E13B124
:10419000074B9B6E984714F0010F05D0044BDB6F63
:1041A00013B1034BDB6F984710BD00BFA0D0044094
:1041B0002456002030B4212831D8042A2FD8DFE833
:1041C00002F00709050B03000B2406E00A2404E0B3
:1041D000082402E00C2400E00924124B03EBC00386
:1041E0005A68114B114DC3F89C51114DC3F8A051A1
:1041F000104DC3F8A451104DC3F8A8510F4DC3F88A
:10420000AC5172B6136823F4702313600C4D45F85B
:10421000201043F0807343EA0444146062B630BC5B
:10422000704700BF4CA70000008CFF1FE53E000058
:10423000453F0000ED3F0000D94000007D410000F7
:1042400024560020094B03EBC0035A6872B613686A
:1042500023F0877323F4803343F0807313600022CC
:10426000034B43F8202062B6704700BF4CA7000004
:1042700024560020044B00221A6004490A60044AB4
:10428000106010221A60704714D0034004D003401D
:1042900000D0034021281ED80F4B53F8303093F83C
:1042A000802212F0FF0F08D019B1012283F880207C
:1042B0007047012283F800217047074B03EBC000D1
:1042C000436821B11A6842F003021A6070471A6805
:1042D00022F002021A6070474CA70000212806D87D
:1042E000044B53F8303093F80002C0B270470020FE
:1042F000704700BF4CA7000021281CD80E4B03EBD1
:10430000C0035B68012908D10B4A52F8302082F8BB
:1043100080124FF4A2721A607047074A52F8302098
:10432000002082F8800219B94FF480721A60704739
:1043300040F203121A6070474CA7000072B60D4B92
:104340001B680D4A12680D49096862B611F0806F4A
:1043500002D0322B88BF0132C3F58C3303F23F13F6
:104360000749A1FB03031B094FF47A7000FB0230DD
:10437000704700BF18E000E0AC56002004ED00E0FC
:10438000398EE33838B50546FFF7D8FF044625B91E
:1043900038BD013D0AD004F57A74FFF7CFFF001B4A
:1043A000B0F57A7FF5D201F04DFAF6E738BD00BFDF
:1043B00010B5254B4FF400021A604FF080721A605E
:1043C0004FF000721A604FF080621A604FF0006286
:1043D0001A6000201D4B186048F6FF710433196005
:1043E00028231B4A13600832136008321360083216
:1043F0001360083213600832136008321360083209
:1044000013600922134C226004F5805404342060A8
:10441000043421600434236008342360143C226097
:1044200004F5FE24043420600B4801600B490B6046
:1044300008310B600A4B1A60FFF75EFBFA20FFF7AA
:10444000A1FF00F073FC10BD08E100E00480034010
:104450000C8003400080034008800B400C800B4020
:1044600000800B4030B40E4B1B7843F002020D4C21
:1044700004EBC20460600C48007800280CBF88245C
:10448000C82444EA0141074D45F8321080F001008C
:10449000054A107083F00103014A137030BC704765
:1044A000185700200080FF1F9157002010B4431EB2
:1044B000032B11D872B60A4A52F8230050B1426851
:1044C000074941F82320074A32F813400188611A4E
:1044D00022F8131062B600E000205DF8044B70472C
:1044E00008570020D8590020013803280DD872B68B
:1044F000074B53F820302BB1002001305B68002BB4
:10450000FBD100E0002062B670470020704700BF7A
:104510005C57002038B572B601231B491B4C5A1852
:1045200012F8012C12F0080F24D09A0054F83250DF
:104530006DB9164B03EBC20108304860144943F8CB
:104540003210144B1A78013A1A7062B638BD42F034
:10455000010254F832506DB90C4B03EBC201083024
:1045600048600D4943F832100A4B1A78013A1A7024
:1045700062B638BD0133052BD1D162B60022054B9E
:104580001A7000F037FC38BD80A800000080FF1FC3
:104590008800400086570020C800400010B4431E29
:1045A000032B37D8400140F010001C4A104472B66B
:1045B0001B4AD25C032A09D8DFE802F019021B0566
:1045C0000830022216E00830042213E0154A52F89F
:1045D00023201AB9134A42F8231003E0124A52F872
:1045E00023205160104A42F8231062B612E00322E1
:1045F00000E005220A4CE25401F10803436000F098
:104600000803002B0CBF8823C8230A8843EA02430F
:10461000036062B65DF8044B704700BF0080FF1F67
:10462000C45600205C5700206C5700202DE9F84F3D
:10463000A34CDFF8E092DFF8E0A2DFF8E0B22578E3
:10464000EDB215F0040F1DD09E4B1B7813F0FF0F39
:1046500016D09D4B1B7803F0FF022BB1531EDBB22B
:10466000994A137003B900BE984B1B7803F0FF0200
:1046700033B1531EDBB2954A13700BB900F0FAFC4C
:104680000423237015F0080F00F0E48299F800303D
:10469000DBB21D0940F021828D4D9E0805EBC6035B
:1046A0005A6855F83630C3F38303013B0C2B00F2F4
:1046B0001082DFE813F0CB01CB010E020E020E02D6
:1046C0000E020E020E02E8010E020E020E020D0094
:1046D000804913680B6052684A607F4A45F836206B
:1046E00000227E490A607A490A618A6101217C4A76
:1046F00011709BB240F28162934218D8B3F5D06F2B
:104700002ED2B3F5817F00F01E8106D8802B00F0F9
:10471000C980822B00F0CC8066E140F202329342E5
:1047200000F02681B3F5A06F00F062815CE142F2F7
:104730002102934200F0868107D8B3F5086F00F09C
:10474000AB80B3F5106F11D04EE142F221229342BB
:1047500000F0418142F22132934200F0498143E16D
:10476000604B5D68002D40F0188130E1594B9A781C
:10477000544B1A70564D05F180062B6A13F0800FCA
:1047800003D0686A083800F035FB0835B542F4D12B
:10479000DFF88C8100263746534AB05828B1456867
:1047A00000F028FB0DB12846F9E700234E4973506D
:1047B0004E4AB3504E4BF05828B1456800F01AFBF2
:1047C0000DB12846F9E7002349497350494AB350CF
:1047D00028F8023F484BFB5C023B032B0AD8DFE87A
:1047E00003F0020602060022434BDA5502E00122E2
:1047F000414BDA5501370436102ECDD100223F4B04
:104800001A7001253E4EDFF81C81314F05EB08037D
:1048100013F8013C06F8043B13F0080F2DD000F00C
:10482000C9FA48B1A90007EB451200F1080353602B
:10483000344A47F8312007E0AB00002247F8332024
:104840002E4B1A7801321A7000F0B4FA58B1AB004E
:1048500043F0010307EBC30100F108024A601E4A5E
:1048600047F8332009E0AB0043F00103002247F88A
:104870003320224B1A7801321A70AA0042F002014A
:10488000002347F8313042F0030247F83230013557
:104890001D4B9E42BAD11EE20A4B1B781B4D2B705A
:1048A0000127AAE0194D00232B706B700227A4E0AA
:1048B000084B9B88042B37D90F22154B1A70C1E087
:1048C0008020074090570020195700209257002061
:1048D0000080FF1F7C570020C8004000B056002019
:1048E0009157002084A8000008570020B4560020EB
:1048F0005C5700206C570020C456002086570020CB
:10490000C420074088004000D4200740885700207A
:10491000C02007409020074094200740982007407F
:10492000D659002080A80000A04A002111705170C3
:104930009F4A12F8233013F0020F5CD09B4D0123E5
:104940002B70022759E09B4B9B8803F07F03042BBD
:1049500002DC984A52881AB10F22954B1A7071E006
:10496000934A12F8231021F0020102F82310B2E159
:10497000904B9B8803F07F03042B02DC8D4A528806
:104980001AB10F228A4B1A705CE0894A12F8231080
:1049900041F0020102F823109DE1864B5E889F885A
:1049A000854BA3F10C02114633F80C0CB04209D12F
:1049B00033F80A0CB84205D1360A032E0CBF2F7803
:1049C00017891AE00D690C330C32002DEBD10F2240
:1049D000774B1A7036E0794B1A68794B1A60754B31
:1049E0009A78784B1A7076E10F22714B1A7029E091
:1049F00000273D4601E002276C4D6E4BDB889F424D
:104A000028BF1F46402F34BF3E4640262846314629
:104A1000FFF728FD3544BF1B03D13F2E00F2608114
:104A200010E0402F34BF3E46402628463146FFF76F
:104A300019FD3544BF1B01D13F2E03D9624B1D60C8
:104A4000624B1F8001238AF8003042E0594B1988DD
:104A500042F22103994212D15D4BD81D12F8011B7D
:104A600003F8011F8342F9D15A4B1B68862B02D1F0
:104A70000F22594B1A7000200146FFF7F3FC574BE9
:104A800045F8363025E0504B1E68BEB14F4FB7F8A1
:104A90000080B8F1400F34BF4546402530462946D6
:104AA000FFF7E0FCC5EB08039BB23B800BB9402D40
:104AB00001D1354400E00025434B1D603D4B1B8870
:104AC000B3F5A06F05D13B4B00225A709B788BF851
:104AD000003001238AF80030B9E0414E9F0806EB10
:104AE000C708D8F80420A2F10800013DEDB213F088
:104AF000080F47D000F07EF93A4B53F825304BB3FE
:104B00005A68384941F8252003F10802C8F8042002
:104B1000354A525D032A12D8DFE802F002060A0E77
:104B20000321314A51550AE002212F4A515506E02E
:104B300005212D4A515502E004212B4A515518F008
:104B4000080F0CBF8822C8221B8842EA034346F89C
:104B500037307CE0244B5B5D032B0BD8DFE803F0A0
:104B6000777702060022204B5A5570E001221E4B37
:104B70005A556CE018F0080F0CBF022203221A4BA2
:104B80005A5564E056F837301B0C22F8083C002BCD
:104B900055D0002322F8063C42F8043C134B53F84E
:104BA00025302BBB114B43F8250025E0885700200A
:104BB000C02007407C57002090A80000AC56002081
:104BC000E8590020A0570020B0560020845700204C
:104BD000DF590020E059002019570020C80040008C
:104BE0000080FF1F5C570020C4560020085700209B
:104BF0003F4B53F8253058603D4B43F825003D4B63
:104C000033F8151032F8082C0A4423F8152000F068
:104C1000D1F860B100F10803C8F8043018F0080FAB
:104C2000354B364A08BF134646F837300FE00023AD
:104C300046F83730324B1A7801321A7007E018F014
:104C4000080F2D4B2D4A08BF134646F8373008236E
:104C50002370F4E415F0010F22D02A4902230B70CF
:104C60000022294B1A70294B24481860284C5C609C
:104C700098602848D8601A619A610D20264B1870F8
:104C8000FF23264803700838037018300270244A46
:104C900013709F22234B1A7001230B70BDE8F88F0D
:104CA00015F0800F05D00D221B4B1A708022403B5F
:104CB0001A7015F0020F06D0184B1A78D2B21A707B
:104CC0000222083B1A7015F0100F0ED01022164B5E
:104CD0001A70BDE8F88F00200146FFF7C3FBB1E66C
:104CE00028460021FFF7BEFBACE6BDE8F88F00BF09
:104CF000B4560020D8590020C80040008800400069
:104D00008657002094200740185700200080FF1F7E
:104D1000C85600201C570020C020074088200740AC
:104D20008C200740842007408020074008B501F010
:104D300057FE00231B491A465A50C81842600833D0
:104D4000882BF9D1184B1A6842F480221A60154B4F
:104D5000C3F30721154A1170C3F3074114321170D0
:104D60001B0E04321370FF23343A13700832137091
:104D7000783A137001238432137000216C32117061
:104D80007C3A137070220A4B1A704FF40072A3F22F
:104D900041331A60102203F1C04303F5C8231A708F
:104DA00008BD00BF0080FF1F348004409C200740E6
:104DB00049E400E072B60D4B1A68B2FA82F30B2B8D
:104DC00002D962B6002070474FF00041D94022EA74
:104DD000010206490A6062B6054903EBC303DB0022
:104DE000C8180022CA504260704700BFA091FF1F40
:104DF000008EFF1F08B50F4BC31A0F4AA2FB031307
:104E00001B090B2B14D80D4A12783AB10C4A1278B0
:104E100012F0FF0F02D0FFF77DFB08BD72B6094A02
:104E20004FF0004121FA03F311681943116062B693
:104E300008BD00BF008EFF1F398EE3388657002063
:104E400090570020A091FF1F10B5134B1B6853B95A
:104E5000124B1B7813F0FF0F18D00320FFF726FB2F
:104E60000D4B1860A8B10C4B186843885A1C0344BA
:104E70001C7A03889A4206D3FFF7BCFF0022064B38
:104E80001A60204610BD4280204610BD4FF0FF3012
:104E900010BD4FF0FF3010BD9C57002090570020F0
:104EA00008B50D4B1B6883B90C4B1B7813F0FF0F33
:104EB00008D00320FFF7FAFA074B186028B94FF023
:104EC000FF3008BD4FF0FF3008BD034B1B685A8808
:104ED0001344187A08BD00BF9C570020905700204B
:104EE000044B9888044B1B681BB11A885B88D31A43
:104EF00018447047D85900209C5700202DE9F047EE
:104F000004460122374B1A700E46002964D0DFF8A0
:104F1000E080DFF8E0909A46334FD8F8003083BB4A
:104F200099F8003013F0FF0F06D100222D4B1A70B4
:104F30004FF0FF30BDE8F08748F601450420FFF749
:104F4000D3FA07280AD801238AF80030FFF732FF86
:104F5000C8F80000A8B900238AF80030013D01D04C
:104F60003B7833B10122204B1A704FF0FF30BDE87F
:104F7000F08700F067FC99F8003013F0FF0FDDD1E7
:104F8000D3E700233B70D8F800104A88C2F14005EF
:104F9000AE4238BF354602F108030B442A444A802A
:104FA000761B3DB1254414F8012B03F8012BAC42CC
:104FB000F9D100E025464B883F2B07D940230B80D1
:104FC0000420FFF7EBFA0023C8F800300522074B56
:104FD0001A700EB12C46A0E70020024B1870BDE8F5
:104FE000F08700BF93570020985700209257002069
:104FF000945700209057002000B583B002AB03F80F
:10500000010D18460121FFF779FF03B05DF804FB9D
:1050100010B5144B1B7813F0FF0F21D00122124B57
:105020001A70124B196851B10024114B1C704B8837
:105030000B800420FFF7B2FA0C4B1C600DE0FFF769
:10504000B9FE014630B10022094B1A700420FFF767
:10505000A5FA02E00122064B1A700022024B1A70D8
:1050600010BD00BF90570020935700209457002098
:105070009257002008B50E4B1B7813F0FF0F16D186
:105080000C4B196841B14B880B800420FFF786FA5E
:105090000022084B1A6008BDFFF78CFE014618B1CC
:1050A0000420FFF77BFA08BD0122034B1A7008BDEC
:1050B000935700209457002092570020F0B4C02945
:1050C00028BFC02172B6134B1860134B00221A6020
:1050D0005A609A60DA601A615A61C1B113460E4C87
:1050E00001275A0903F01F0607FA06F654F8225062
:1050F000354344F8225001338B42F2D1002213464B
:1051000084186370013302F582728B42F8D162B663
:10511000F0BC7047AC570020B457002010B472B6F2
:10512000234B1B688BB9224B5B6883B9204B9B6870
:105130007BB91F4BDB6873B91D4B1B696BB91C4BEB
:105140005B6963B962B600202EE0194A08E0194A8B
:1051500006E0194A04E0194A02E0194A00E0194A37
:10516000B3FA83F14FF00040C84023EA0003136014
:10517000154803780133DBB2037062B60C48121A8B
:105180009210C1EB421202EB821241F67C7101EBEC
:1051900082020E490968881801248C540C4A12783E
:1051A0009A423CBF0A4A13705DF8044B704700BF37
:1051B000B4570020B8570020BC570020C05700202B
:1051C000C4570020C8570020B1570020AC5700201A
:1051D000A8570020427872B60378012B02D9013B10
:1051E000037011E05111094BD24302F01F024FF03E
:1051F000004020FA02F253F82100104343F8210046
:10520000034B1A78013A1A7062B67047B4570020FF
:10521000B157002030B4C36883B1187A90420AD1E4
:1052200058685C7A006950F8245025B940F8241079
:10523000087801300870DB68002BEED130BC704775
:10524000437A8B4206D9036953F82100002243F8C0
:10525000212070470020704738B5437A8B4218D917
:10526000036953F82140002243F821209CB12378A0
:10527000012B12D9FFF752FF054628B10430211D3A
:105280004FF48072FEF71AFB2378013B2370284607
:1052900038BD002038BD204638BD204638BD00BF8F
:1052A0004368427A5B7A9A4210D872B60368DA6829
:1052B0000AB9D86004E0D3680BB11A46FBE7D060A6
:1052C0000268012313724268137262B6704700BF0E
:1052D000084B1B785BB9D022074B1A704FF0804205
:1052E000A3F256331A600120024B18707047002059
:1052F000704700BFB05700205EE400E0F8B5184BDF
:105300001A6842F080721A60164B1A6842F0010265
:105310001A6004331F68144B1C689CB1134D237A28
:105320006BB12E6823681B68204698472B689B1B2F
:105330001B099AB2A280E1888B4288BFE28064692F
:10534000002CECD1094B1B68DF1B3F09BBB2084A9C
:105350001380084A1288974284BF064A1380F8BD1A
:10536000FCED00E0001000E0A4570020041000E075
:10537000CC570020B257002030B472B699B90268F9
:105380008AB103790F2B0ED827490988194111F0EA
:10539000010F08D003F1007303F59063B2EB431FD4
:1053A00001D162B63EE0204B1D882946002341FA18
:1053B00003F212F0010F2DD1012202FA03F425436A
:1053C000194A158062B6DAB2027118490C6844F0C5
:1053D00002040C6004390C6844F002040C6082245E
:1053E00013490C601A310A7004310A7006390A70C8
:1053F00007310A7003F1007303F590635B010360EA
:1054000000221A605A609A60DA601A615A619A61E1
:10541000DA6107E00133102BC9D162B600230360C3
:105420001023037130BC7047CE57002040800440E9
:105430000080004003790F2B10D8094A137072B610
:10544000084B0279012101FA02F2198821EA0202CD
:105450001A8062B61023037100230360704700BFF7
:105460001A800040CE57002000B583B0054B1B8842
:10547000ADF8043003685B6801A90222984703B0C5
:105480005DF804FB5CA80000F0B58BB0164622B9AD
:1054900003681B68C9B298472FE0012A08BF0A2693
:1054A00021B930228DF82520212417E02124374608
:1054B000B1FBF6F506FB1515EDB22246092D94BF9A
:1054C00030353735EDB20DF1280E724402F8245C08
:1054D000B1FBF7F111B1013CE4B2E9E733B1013CB2
:1054E000E4B20AAB23442D2203F8242C03685B6842
:1054F00001A92144C4F1220298470BB0F0BD00BFBE
:1055000008B50029BABF49422D2300230A22FFF71C
:10551000BBFF08BD10B4401A019CE41A04FB00F460
:10552000521A94FBF2F018445DF8044B704700BF28
:1055300010B50446006803F00FFD204610BD00BF03
:1055400038B504460D460068013104F041F818B141
:1055500020606560012038BD002038BD10B50446CC
:1055600043688B420AD2FFF7EBFF034648B1A368BA
:1055700033B9236800221A70012302E0012300E0FE
:105580000123184610BD00BF70B504460E461546EF
:105590002AB9036803B11A700023A36012E0114610
:1055A000FFF7DCFF48B9206818B103F0D5FC0023F1
:1055B000236000236360A36004E0A5602068314697
:1055C00004F014FB204670BD38B504460023036088
:1055D0004360836003730D4639B1084604F064FBF1
:1055E000024620462946FFF7CFFF204638BD00BFC0
:1055F00008B50B46884203D009689A68FFF7C4FFD4
:1056000008BD00BF10B504460023036043608360FB
:105610000373FFF7EDFF204610BD00BF38B5044609
:105620000D4641B1084604F03FFB0246204629469C
:10563000FFF7AAFF01E000238360204638BD00BFCA
:1056400070B504460D4683685AB1D6183146FFF747
:1056500085FF30B12068A3681844294604F0C6FAD3
:10566000A660204670BD00BF08B50B4609689A6861
:10567000FFF7E6FF08BD00BF38B504460D4639B157
:10568000084604F011FB024620462946FFF7D8FFE2
:10569000204638BD10B582B004468DF804100023B2
:1056A0008DF8053001A90122FFF7CAFF204602B09C
:1056B00010BD00BF10B584B00446084601A90A22F7
:1056C00000F004F901A804F0EFFA0246204601A90F
:1056D000FFF7B6FF204604B010BD00BF10B504466A
:1056E000FFF7D8FF204610BD08B5836843B929B13C
:1056F0000878D0F1010038BF002008BD012008BDA6
:1057000031B903681878D0F1010038BF002008BD16
:10571000006804F05DF9D0F1010038BF002008BD39
:1057200010B58B688468E41A94420CD3006860B1A9
:10573000096861B110441A4604F0E6FAD0F101009C
:1057400038BF002010BD002010BD002010BD00207B
:1057500010BD00BF08B582688B689A4203D300224F
:10576000FFF7DEFF08BD002008BD00BF08B5826856
:105770008B689A420CD3006860B1096861B1D31A92
:10578000184404F025F9D0F1010038BF002008BD0D
:10579000002008BD002008BD002008BD38B50C461B
:1057A0009AB191B18168994202D80023237038BD23
:1057B000551EC91A8D4228BF0D460168204619445E
:1057C0002A4604F0FBFA0023635538BD08B500688B
:1057D00010B103F07DFB08BD002008BD08B5FBF744
:1057E0002FFBFBF793FD00F02DF8FAE708B5FFF764
:1057F00077FB08BD08B5FFF727FB08BD08B5FFF725
:105800004FFB08BD08B5FFF703FC08BD08B5084607
:10581000FFF7F2FB08BD00BF08B508461146FFF7C9
:105820006DFB08BD704700BF044B00221A714FF496
:105830007A7199601A73024A1A607047D45700202F
:1058400068A8000008B50F4B1B78CBB901220D4B9F
:105850001A70FFF745FB08B1FFF7E4FF00F034FAD8
:1058600008B101F087F900F02DFD08B101F018FA38
:1058700000F0CCFF08B101F0A9FA0022014B1A7028
:1058800008BD00BFE457002030B40023B0FBF2F4A1
:1058900002FB14041D46092C94BF30343734E4B2A3
:1058A000CC54B0FBF2F008B10133EFE70D44002215
:1058B0006A70934207DD885CCC5C8C54C85401321A
:1058C000013B9A42F7DB084630BC704710B50C46E6
:1058D000002802DBFFF7D8FF10BD2D2301F8013BA4
:1058E0004042FFF7D1FF204610BD00BF194B1A6898
:1058F00042F480621A600023174A1370174A13702B
:10590000174A1370174A1370174A137040F2133274
:10591000164B1A604FF4517204331A60C0F34432CC
:10592000134B1A70C0F347125A7000F01F009872A0
:1059300004229A700221D9745A7588221A743C2262
:10594000DA7040220B4B1A704FF40052A3F2293345
:105950001A6070473480044070580020ED570020D2
:105960007858002071580020EC57002040A00440D7
:1059700000A006402DE400E0164B9B7803F0EC03FA
:1059800000F00302134310F0040F18BF43F010039C
:10599000104A937000F00F03042B04D11346927940
:1059A00042F040029A710B4B5A7902F0EF0210F06C
:1059B000100F18BF42F01002064B5A719B7903F08A
:1059C000EF0310F0200F18BF43F01003014A93714A
:1059D000704700BF00A0064010B5144B1B6813F4BD
:1059E000806F21D0124B1B7813F0FF0F06D0104CA4
:1059F000FFF728FF237813F0FF0FF9D14FF400527F
:105A00000C4B1A6000230C4AD37040F203120B496E
:105A10000A6004310A600A4A13700A4A13700A4B7A
:105A20001B680BB101221A7010BD00BF3480044006
:105A3000EC57002084E100E000A0064040A00440B4
:105A400070580020ED570020E857002010B504469C
:105A5000094A137813F0FF0FFBD120460121FEF70E
:105A60004BFC20460021FEF715FC044B53F8342074
:105A7000034B1A6010BD00BFEC5700204CA700007C
:105A80007458002010B50D4B1B6813F4806F12D0B2
:105A900021280CD80A4C0B4B53F8303023600121DD
:105AA000FEF72AFC236800221A70012010BD002096
:105AB000034B186010BD002010BD00BF34800440AF
:105AC000E85700204CA70000114B1B6813F4806FAF
:105AD0001BD0122804D140F202320E4B1A600DE0A6
