:1000000000800020BD01000085450000494500003A
:1000100049450000494500004945000049450000A8
:10002000494500004945000049450000854500005C
:100030008545000049450000854500003945000020
:100040008545000085450000854500008545000088
:100050008545000085450000854500008545000078
:100060008545000085450000854500008545000068
:100070008545000085450000854500008545000058
:100080008545000085450000854500008545000048
:100090008545000085450000854500008545000038
:1000A0008D3E000085450000854500008545000027
:1000B0008545000085450000854500008545000018
:1000C0008545000085450000854500008545000008
:1000D00085450000854500008545000085450000F8
:1000E00085450000854500008545000085450000E8
:1000F000854500000165000085450000656C000035
:1001000085450000E171000085450000854500003F
:1001100085450000854500008545000085450000B7
:1001200085450000854500008545000085450000A7
:100130008545000085450000854500008545000097
:100140008545000085450000854500008545000087
:100150008545000085450000854500008545000077
:1001600085450000914B0000854500008545000055
:100170008545000085450000854500008545000057
:100180008545000085450000854500008545000047
:100190008545000085450000854500008545000037
:1001A0008545000085450000854500008545000027
:1001B000854500008545000099580000574B4CF2DA
:1001C000205210B51A804DF628121A8000BF00BFC9
:1001D00004F0DCF9524B4FF010621A60514A9A60F9
:1001E000514ADA60A3F53043203B1A6812F480725A
:1001F00004D14E490A604FF4A8521A604C4B1A7849
:10020000110703D51A7842F008021A70494B4A4C7C
:100210004A482A221A704A4A00239918A14203D256
:10022000195899500433F8E7464B474900228B424E
:1002300002D243F8042BFAE74448454900235A58B0
:100240001A500433B3F5DE7FF9D1424B424A802184
:1002500003F8011B9342FBD1404B3C4A1A60404BD0
:100260008A221A70A3F5805324225A70A0221A7091
:100270009A799207FCD59A79D406FCD4394A9379B5
:1002800003F00C03082B374BF9D105221A714322D6
:100290005A719A799006FCD5324A9179314B4906C8
:1002A000FBD5314A4FF08171116005215160202248
:1002B0001A709A7902F00C020C2AFAD12B4B2C4AB4
:1002C0001A602C4B2C4A1A6000225A60072243F80D
:1002D000042C2A4AC3F80C2D62B604F019FB134B08
:1002E0001B68DA0705D5264804F046FA254B264A4E
:1002F0001A60264B1B785B0609D5224C224A2368DC
:10030000934204D11E4804F037FA0023236009F019
:100310006BFA04F041F905F063FDFEE70E2005409D
:1003200030800440823F04000100002B14D00340C1
:1003300002D0074000E0074040A0FF1FD4B50000F6
:100340006095FF1F40A0FF1F645200200090FF1F18
:100350000000000000E400E05FE400E008ED00E0E1
:1003600000500640004006404480044004800440A1
:10037000C010050014E000E03F190100000020203B
:10038000DD3848581CE00340A5C3945A00F00740EC
:10039000FFFFFFFFFFFFFFFFFFFFFFFFFFFFFFFF6D
:1003A000FFFFFFFFFFFFFFFFFFFFFFFFFFFFFFFF5D
:1003B000FFFFFFFFFFFFFFFFFFFFFFFFFFFFFFFF4D
:1003C000FFFFFFFFFFFFFFFFFFFFFFFFFFFFFFFF3D
:1003D000FFFFFFFFFFFFFFFFFFFFFFFFFFFFFFFF2D
:1003E000FFFFFFFFFFFFFFFFFFFFFFFFFFFFFFFF1D
:1003F000FFFFFFFFFFFFFFFFFFFFFFFFFFFFFFFF0D
:10040000FFFFFFFFFFFFFFFFFFFFFFFFDEF9FFFF23
:1004100010B5054C237833B9044B13B10448AFF33E
:1004200000800123237010BD40A0FF1F00000000CA
:10043000D4B5000008B5064B1BB106480649AFF31A
:1004400000800648036813B1054B03B1984708BD07
:1004500000000000D4B5000044A0FF1F40A0FF1F13
:10046000000000000122014B1A7070477DA0FF1FA1
:100470000122014B1A7070477EA0FF1F10B5044681
:10048000034A40F81C2B01F0ADFF204610BD00BF11
:10049000A8B0000038B5064D05F595447034103D00
:1004A000204605F027FB103CAC42F9D138BD00BF17
:1004B00030A1FF1F38B5064D05F595447034103D49
:1004C000204605F017FB103CAC42F9D138BD00BF07
:1004D000B80000200F4B03604172026100230372D9
:1004E000C36039B11946026942F823100133427AD8
:1004F0009A42F8DC084B1A680AB9186004E053699C
:100500000BB11A46FBE75061002343618380C3802F
:10051000704700BF00AD00001450002010B5044625
:100520000F4B03600023437203610372C3600D4BE2
:100530001A680AB9186004E053690BB11A46FBE760
:10054000546100236361A380E3802046064B40F89A
:100550001C3B01F039FF204601F0F8FC204610BD9D
:1005600000AD000014500020A8B000002DE9F04FAD
:10057000A5B006468B46DFF8E881DFF8E8A104A8BD
:100580003146012202F058F904A801F07FFF00284B
:1005900000F0BB8004A801F02BFF0146684605F07F
:1005A000F5FA6846414605F0E3FB002800F0B1800B
:1005B0000CA8514605F0EAFA68460CA905F0CCFBF8
:1005C000002840F0A88010A85B4905F0DFFA6846D3
:1005D00010A905F0C1FBD0F1010438BF002410A818
:1005E00005F088FA00E000240CA805F083FA002C3E
:1005F00032D0524805F0ECFB0446514B1B68984240
:10060000C4BF4F4B186000EB8007C7EB07174D4D79
:1006100055F820303B444C4A02EB031904A801F082
:10062000E7FE0146484605F0DBFA55F8249004A899
:1006300001F006FFB944454B43F8290055F8243032
:100640001F44434800EB07103C4905F0B3FA55F846
:100650002430013345F8243004A801F0CBFE0028F3
:100660005FD014A83B4905F091FA684614A905F03B
:1006700073FB002857D118A8374905F087FA684658
:1006800018A905F069FBD0F1010438BF002418A8AF
:1006900005F030FA00E0002414A805F02BFA54B35A
:1006A00004A801F0A5FE0146244805F099FA9DF83A
:1006B00014308DF87430069B1E939DF81C308DF815
:1006C0007C30264B1C9324AB53F8730D59689A6801
:1006D000CDF87D00CDF88110CDF885201B7B8DF8FD
:1006E00089300B9B23931CA80BF10101FFF73EFF00
:1006F0001CA801F077FE04A801F0BCFE684605F0D6
:10070000F9F904A801F06EFE39E704A801F06AFEC9
:100710000EE0002300E00123002B7FF464AF0024EF
:1007200065E7002300E00123002BB4D10024B6E7E5
:1007300025B0BDE8F08F00BF08AD00003CFFFF1FF3
:10074000C8FFFF1F18000020B80000205CECFF1F4E
:1007500030A1FF1F10AD000018AD0000D8B00000A0
:10076000A8FFFF1F0CAD0000B0B584B000AF044679
:100770000D463846144905F009FA3846214605F079
:100780009BFA3846114905F079FA04EB8404C4EB6E
:100790000414254438460E4901EB051105F066FAAC
:1007A000BA6802F1080323F00703ADEB030D3846E6
:1007B00069460132002305F0F3FA384605F09AF94C
:1007C00068461037BD46B0BDC4AD000020AD000086
:1007D000B800002070B582B00D4602460028B8BFB0
:1007E00000F10F0222F00F06464B1A7882F0010248
:1007F0001A70454B1B680193019A444B1B68D31A2E
:10080000434A1068984202D20446012501E01C4682
:1008100039B1404B1868404B1968FFF7A5FF3F4BB3
:100820001860204608F086FD3D4908F0D7FD08F025
:100830009BFF0446022CB8BF0224324B1B78002BCE
:100840002FD165B14FF08045364B1D603648334B94
:100850001968324601F0D2FB344B1D6009E04FF0BD
:100860008045304B1D603048314601F075FB2F4B01
:100870001D60C4EBC404C4EB841405342C4BA3FBEF
:100880000424E4084FF0FF33B3FBF4F42948214675
:10089000002201F017F928482146012201F012F93F
:1008A0002EE065B14FF080451E4B1D6023481B4B69
:1008B0001968324601F0A2FB1C4B1D6009E04FF0A5
:1008C0008045184B1D601D48314601F045FB174B14
:1008D0001D60C4EBC404C4EB84140534144BA3FBA7
:1008E0000424E4084FF0FF33B3FBF4F4124821462C
:1008F000002201F0E7F80F482146012201F0E2F85A
:1009000002B070BD7CA0FF1F1C4F0020D0FFFF1F56
:10091000CCFFFF1F74A0FF1F140000205C0000200C
:100920009A99193E88E100E0D8A0FF1F08E100E095
:10093000CDCCCCCC600000208800002090A0FF1F10
:1009400008B54FF4FA7003F0CDFF0422014B1A7082
:1009500008BD00BF0CED00E010B504460620C4F34E
:10096000C00103F019FF0520C4F3800103F014FF58
:100970000420C4F3400103F00FFF032004F0010141
:1009800003F00AFF10BD00BF30B583B072B6354B1F
:100990001B7F03F0FF0213B10021324B197762B6BF
:1009A000002A5DD0304B1B680193019A2F4B1A60CF
:1009B00072B62C4BB3F91E20B3F9200047F6FF7135
:1009C000D9834FF40041198462B682EAE273A3EB43
:1009D000E2730028B8BF40429842B8BF184608F0FA
:1009E000A9FC234908F0AEFD4FF0814108F0F6FC68
:1009F0000446002108F0A4FE38B120464FF07C5197
:100A000008F0E4FB08F0B0FE06E020464FF07C5111
:100A100008F0DAFB08F0A8FE08F0AAF802460B4638
:100A200000204FF0804106F0A1FE04460D46002252
:100A3000002308F089FB40B12046294600220D4BD7
:100A400007F04AFF08F094FB07E020462946002201
:100A5000084B07F03FFF08F08BFB0138FFF77CFFE6
:100A600003B030BD60FFFF1F1C4F0020B00000200E
:100A700000FEFF460000E03F08B505F0A9F9012897
:100A800014BF0020012008BD30B599B004460D46C2
:100A9000474905F02BF920B1284605F099F9454B57
:100AA00018602046444905F021F958B168462946A6
:100AB00005F08AF86846FFF7DFFF404B187068467C
:100AC00005F018F820463E4905F010F920B12846F7
:100AD00005F07EF93B4B186020463B4905F006F9CE
:100AE00058B104A8294605F06FF804A8FFF7C4FF21
:100AF000364B187004A804F0FDFF2046344905F079
:100B0000F5F858B108A8294605F05EF808A8FFF7DF
:100B1000B3FF304B187008A804F0ECFF20462E49B4
:100B200005F0E4F858B10CA8294605F04DF80CA8DA
:100B3000FFF7A2FF294B18700CA804F0DBFF20463A
:100B4000274905F0D3F858B110A8294605F03CF81C
:100B500010A8FFF791FF234B187010A804F0CAFFEC
:100B60002046214905F0C2F820B1284605F030F9A9
:100B70001E4B186020461E4905F0B8F858B114A85D
:100B8000294605F021F814A8FFF776FF194B1870D5
:100B900014A804F0AFFF2046174905F0A7F820B1CC
:100BA000284605F015F9154B186019B030BD00BF87
:100BB00024AD00004C96FF1F2CAD00005096FF1F87
:100BC00038AD00004896FF1F44AD00004596FF1F5A
:100BD00058AD00005196FF1F68AD00004CFFFF1F8D
:100BE0007CAD000060A0FF1F90AD00005496FF1F79
:100BF000A0AD00005C96FF1FA8AD00005896FF1F37
:100C000030B5A1B06846002104F0C0FF04A800215F
:100C100004F0BCFF08A83749374A012301F082FDE0
:100C200008A801F033FC002859D0344D4FE008A843
:100C300001F062FBC4B23D2C14D010A8694604F048
:100C4000C3FF10A8214605F04BF80146684604F0A2
:100C5000B1FF10A804F04EFF08A801F04DFBC4B28C
:100C60003D2CEAD108A801F047FBC4B20A2C2ED0D3
:100C700014A804A904F0A8FF14A8214605F030F830
:100C8000014604A804F096FF14A804F033FF08A856
:100C900001F032FBC4B20A2CEAD118A8694604F06C
:100CA00093FF1CA804A904F08FFF18A81CA9FFF744
:100CB000EBFE1CA804F01EFF18A804F01BFF6846FA
:100CC000294604F08DFF04A8294604F089FF08A8EE
:100CD00001F0BCFB0028AAD108A801F0CBFB08A8B2
:100CE00001F080FB04A804F005FF684604F002FF51
:100CF00021B030BD404C0020ACAD0000C4AD0000C0
:100D000000B589B068464D494D4A132301F00AFDEC
:100D1000009B5B6868464B490822984768464A4BE7
:100D2000196804F0CFFE684604F080FE009B5B6803
:100D3000684646490A2298476846454B197804F0A8
:100D4000C1FE684604F072FE009B5B68684641493C
:100D50000A2298476846404B196804F0B3FE68467B
:100D600004F064FE009B5B6868463C49112298478A
:100D700068463B4B197804F0A5FE684604F056FE21
:100D8000009B5B6868463749102298476846364B97
:100D9000197804F097FE684604F048FE009B5B68F3
:100DA00068463249122298476846314B197804F058
:100DB00089FE684604F03AFE009B5B6868462D4950
:100DC0001122984768462C4B197804F07BFE684640
:100DD00004F02CFE009B5B68684628490F22984768
:100DE0006846274B196804F06DFE684604F01EFE45
:100DF000009B5B6868462349082298476846224B57
:100E0000197804F05FFE684604F010FE009B5B68F2
:100E100068461E490422984768461D4B196804F02D
:100E200051FE684604F002FE684601F023FB684666
:100E300001F0D8FA09B05DF804FB00BF404C002077
:100E4000ACAD0000BCAD00004C96FF1FC8AD00006B
:100E50005096FF1FD4AD00004896FF1FE0AD000084
:100E60004596FF1FF4AD00005196FF1F08AE00002D
:100E70004CFFFF1F1CAE000060A0FF1F30AE000043
:100E80005496FF1F40AE00005C96FF1F4CAE000062
:100E90005896FF1FF0B593B00220002103F0AEFC7E
:100EA0000820002103F0AAFC0920002103F0A6FC81
:100EB0001420002103F0A2FC0B20012103F09EFC72
:100EC0000620012103F09AFC0520012103F096FC85
:100ED0000420012103F092FC0320012103F08EFC89
:100EE000714B1868FFF738FD70480A2104F0B4FB15
:100EF0006F4B1B7843F001026E49096811F4805F63
:100F000002D0934240F0BA8069490A7043F0050369
:100F10006849096811F4805F02D09A4240F0B880B5
:100F2000634A137064480A2101F05CFBD0B9624E39
:100F30000A250F2710E03846FFF70EFD642003F066
:100F4000D1FC0020FFF708FD642003F0CBFC013446
:100F5000062C01DDFFF7F4FC3046294601F042FB88
:100F60000028E8D0554B4BF233329A61DA61524C8B
:100F700002A82146524A012301F0D4FB20465149E0
:100F800001F04EFC10B1FFF73BFE01E0FFF7B8FEA9
:100F90009DF80C308DF82C30049B0C939DF8143088
:100FA0008DF83430484B0A9312AB53F8330D59681F
:100FB0009A68CDF83500CDF83910CDF83D201B7B6F
:100FC0008DF84130099B11930AA80021FFF7CEFA52
:100FD0000AA801F007FA02A801F04CFA002003F079
:100FE00073FA3A4B1B68984205DC2F4B18600122BC
:100FF000374B1A7003E00020014603F07BFA09200A
:101000003449032203F0F6FA14203349032203F093
:10101000F1FA324B186808F08DF90146304808F0B3
:1010200091FA0446002108F08BFB38B120464FF0BE
:101030007C5108F0CBF808F097FB06E020464FF013
:101040007C5108F0C1F808F08FFB264B1860264B46
:101050001A6800920099254A11601B680193019A51
:10106000234B1A60002223484FF0FF31B1FBF2F10D
:1010700000F028FD02A801F0B5F913E04FF4A270CA
:101080001D4908604FF4007001F57F6108603BE77F
:101090004FF4A271194A11604FF4007102F57F629A
:1010A00011603DE713B0F0BD74A0FF1F0082FF1F69
:1010B000405000203C800440404C0020DCFFFF1FDB
:1010C00020AD0000ACAD0000D8B00000C8FFFF1F8D
:1010D0004496FF1F65040000710400005896FF1F2E
:1010E000C07FA149CCFFFF1F1C4F0020D0FFFF1F76
:1010F00070A0FF1F6000002018B0044014B004402E
:101100002DE9F04F8BB028274FF00008C146444628
:101110004FF0170A15261625504603F0F7F8044439
:10112000304603F0F3F88144284603F0EFF880449A
:10113000013FF1D1764D85FB0436E417C4EB26164A
:1011400085FB09C44FEAE979C9EB241485FB08350E
:101150004FEAE878C8EB25156E4BD3F800B06E4B1C
:101160001B6803936D4B1B68C3EB0409B9F1000FB7
:10117000B8BFC9F100096A4B1B68C3EB050ABAF195
:10118000000FB8BFCAF1000A40F2FF37BE42B4BF39
:1011900030463846DFF8CC81D8F80020614B53F850
:1011A0002230009320EAE07000214FF480620B4669
:1011B00004F092FC5C4B19685C4B1A68D8F800305C
:1011C00003EB8303C3EB031303EB020E584B53F8FB
:1011D0002EE0584BA3FB0EC3C3EB0E0E03EB5E0ECB
:1011E0004FEA5E2E01FB0EFE6319BB4228BF3B4651
:1011F000B3FBF1F303FB0EF390421BD0CBEB060BDA
:10120000BBF1000FB8BFCBF1000BBBF1030F74DDD6
:10121000494A1060494A1178494A11703D4A16609E
:101220006BE0454A1060474A1178454A1170002129
:10123000394A1160B9F1060F07DD434A1360434A8A
:101240001178434A1170354A1460BAF1060F07DD70
:101250003D4A13603F4B1A783D4B1A70304B1D606E
:101260003D4800F07BFB38B13B4800F053FB0030B9
:1012700018BF0120364B1870384C23680593059E23
:10128000374D2B68F61A082003F0AAFA2368069354
:10129000069B06FB1030286023680793079B181AEB
:1012A000B0F5C87F30D92F4A1368013313602E4A36
:1012B0001268934202DD00222A4B1A60294B1968FA
:1012C000184B53F821301C4A1268934202DC013B50
:1012D000194A136001221A4B1A70204B1A6808929F
:1012E00008981F4A10601B680993099A1F4B1A60DF
:1012F0000020C9B203F0FEF806E0039A002AB8BF46
:101300005242032A8DDC95E70BB0BDE8F08F00BF99
:101310006766666668A0FF1F5CA0FF1FB400002020
:101320006CA0FF1F180000205496FF1F8CFFFF1FAA
:101330005CECFF1F05104000140000204596FF1FC5
:101340004496FF1F5196FF1FD4FFFF1F4CFFFF1F46
:101350007DA0FF1F60A0FF1FB8FFFF1F1C4F0020D4
:10136000B84B002074A0FF1FC8FFFF1F78A0FF1F0D
:1013700010B58EB0814B1B681BB9814B1A687F4B2F
:101380001A60804B1B78002B43D17F4B1B78002BBE
:101390003FD17E4B1B78002B3ED17D4B1B78002B21
:1013A0007DD07C4B9B69C3B17B4B93F8443013F0E9
:1013B000FF0F12D1794B1868794B1968FFF7D4F9F0
:1013C000784B18604FF08044774A1460724819686F
:1013D000002200F013FE754B1C60754B9B69C3B176
:1013E000744B93F8443013F0FF0F12D16B4B186815
:1013F0006B4B1968FFF7B8F96A4B18604FF08044DF
:10140000694A14606B481968002200F0F7FD674BC9
:101410001C605E4B1B78FBB1614B1A68664B1A600F
:101420005B4B1B78C3B1564B1868644B1860534B29
:1014300018600121FFF7CEF9584B1868FFF78CFAB6
:101440000022524B1A7001224F4B1A705C4B1B68E2
:101450000193019A5B4B1A604B4B1B78FBB1584BC5
:101460001B680293029A584B1B68D31A0A2B16D991
:10147000434B1868514B1860404B18600022424B98
:101480001A700121FFF7A6F94D4B1A6803920399D0
:101490004C4A11601B680493049A4B4B1A60394BF9
:1014A0001B78FBB1464B1B680593059A474B1B689D
:1014B000D31A0A2B16D9414C20680021FFF78AF96C
:1014C0002E4A434B196813680B44136023600023B2
:1014D0002C4A13702C4A1370394B1B680693069ADA
:1014E0003A4B1A60364B1B680793079A394B1B68B7
:1014F000D31A394A12689A4207D8FFF701FE304BD7
:101500001B680893089A334B1A602D4B1B6809938C
:10151000099A324B1B68D31A314A12689A4205D293
:10152000274B1B680A930A9A2C4B1A60244C236899
:101530000B930B99234B1B68C91A0B2009298CBFED
:101540000021012103F028F923680C930C9A254B04
:101550001B68D31A532B0ED923680D930D9A224B77
:101560001B68D31A214A12689A4204D2204B1B7876
:101570000BB1FFF709FA0EB010BD00BF84FFFF1FCB
:10158000D4FFFF1F7EA0FF1F7DA0FF1F4496FF1FFB
:101590005C96FF1F6000002090A0FF1F74A0FF1F3B
:1015A000140000205C00002088E100E008E100E079
:1015B00088000020D8A0FF1F8CFFFF1F90FFFF1F97
:1015C0001C4F002064A0FF1F70A0FF1FD0FFFF1F53
:1015D000CCFFFF1FD8FFFF1F6096FF1F58000020A1
:1015E0004096FF1FB000002078A0FF1F4896FF1F05
:1015F0005096FF1F2DE9F04F8BB002F021FF914D67
:101600002846042105F12802FEF764FF8E4B2B606B
:101610004FF48033AB61EB612B626B628B4C2046E5
:10162000FEF77CFF8A4EDFF86892204631464A4634
:1016300008F0C0F8DFF8A0B25846FEF76FFF584632
:1016400031464A4608F0B6F8DFF89082404601215C
:1016500008F12402FEF73EFFDFF884A2C8F800A0DC
:101660004FF0FF36C8F818607A4F3846012107F16D
:101670002402FEF72FFFC7F800A0BE61764E304669
:10168000012106F11802FEF725FF744B336047F67F
:10169000FF73F3834FF400433384DFF848A25046CE
:1016A00001210AF11802FEF715FF6D4BCAF8003050
:1016B000504600F03BFB6B480460C0F804800024F7
:1016C00004724472C46004F0B9F86748C0F800B00E
:1016D000476004724472C46004F0B0F86348056067
:1016E000C0F804A004724472C46004F0A7F8604813
:1016F000C0F80080456004724472C46004F09EF833
:101700005C4807604560047201234372C46004F0C2
:1017100095F859480560466004724472C46004F04C
:101720008DF8564C2046564904F030FA204655496B
:101730004A4608F03FF8544D05F5966705F59F4871
:1017400008F1300800260BE02046314604F01EFA6E
:101750001034AC42F8D13D4607F59667474503D0B3
:101760002C4605F59665EFE700204849484A08F001
:1017700021F8484D05F5966705F59F4808F13008B2
:1017800000260BE02046314604F000FA1034AC424B
:10179000F8D13D4607F59667474503D02C4605F539
:1017A0009665EFE73A4C00203B49224608F002F8E4
:1017B0003A4D28463A4904F0E9F92846314922468B
:1017C00007F0F8FF37480821142200F08DF836485A
:1017D0000221142200F088F8344B1A680992099902
:1017E000334A11601A6808920899324A11601A68DF
:1017F00007920799304A11601A68069206992F4A93
:1018000011601A68059205992D4A11601A680492B0
:1018100004992C4A11601A68039203992A4A1160AC
:101820001A6802920299294A11601A680192019974
:10183000274A11601B680093009A264B1A600BB070
:10184000BDE8F08FDCFFFF1F88B0000090A0FF1FF5
:101850007D0400008800002060FFFF1F68B00000CA
:1018600098B0000080A0FF1F20A1FF1F98FFFF1F5E
:101870001CFFFF1F50FFFF1F2CFFFF1FA8FFFF1FB4
:1018800054AE0000F55A0000B8000020B504000076
:101890003C96FF1F30A1FF1F950400003CFFFF1F77
:1018A00058AE0000B8FFFF1F4CECFF1F1C4F00207C
:1018B00094FFFF1F88FFFF1FD0FFFF1F70A0FF1FB7
:1018C0005800002064A0FF1FB84B0020D8FFFF1F66
:1018D00078A0FF1FB0000020D8A0FF1F60000020EC
:1018E00078B0000030ECFF1F30B583B004460D46E1
:1018F000426000238360064B1B680193019B0360D9
:10190000084602F06DFF20736573204603B030BDBA
:101910001C4F0020007B704710B582B00446407B0E
:1019200002F05EFF237B834210D00B4B1B680093B9
:10193000009A2368D21A63689A4209D3064B1B683F
:101940000193019B23602073012002E0002000E04E
:10195000002002B010BD00BF1C4F002010B582B0A7
:101960000446FFF7D9FF034620B10023A3600123FB
:10197000A37315E0A2688AB10B4909680091009829
:101980002168411A8A4209D8074B1B680193019BC1
:1019900023600023A3600123A37301E00022A2734C
:1019A000184602B010BD00BF1C4F0020F8B5064617
:1019B000002103F013FF0746B8B1031D00F582753F
:1019C000B6F91E40B6F9201033F9022B9442A8BF95
:1019D00014469142B8BF11469D42F5D8F483318434
:1019E00001233377384603F0C3FEF8BD2DE9F04FED
:1019F00083B0019084693CB9002103F0EFFE002818
:101A00005AD003F0B5FE57E0B4F1FF3F0FD1019873
:101A1000002103F0E3FE044600284DD00198214642
:101A2000002203F0C5FE204603F0A2FE44E0019828
:101A3000002103F0DFFE804600283DD0019BD3F853
:101A40001CC093F8209000231D4F9B464FF0FF3A97
:101A50004E46200EC4F30F2108EB0302B2F90450E6
:101A6000C1F5803E37F91090013037F9100001FBC5
:101A700000F109FB0E11091401FB05F1C913918056
:101A800026B1E243944506D2644407E0A44504D25B
:101A9000CCEB040402E0544600E05C460233B3F5AC
:101AA000807FD6D1019B9C6118464146002203F0FD
:101AB0007FFE404603F05CFE03B0BDE8F08F00BF40
:101AC0005CAE000072B6836913B90123836105E03F
:101AD000B3F1FF3F04BF6FF001038361C16180F880
:101AE000202062B6704700BF10B5044603F070FFB7
:101AF000204610BD08B503480349044A07F05AFEC2
:101B000008BD00BFBC4B0020E91A00003C96FF1F37
:101B100038B5064D064C07482946224607F04AFECE
:101B200005482946224607F045FE38BDE91A00005F
:101B30003C96FF1FC44B0020CC4B002008B5034847
:101B40000349044A07F036FE08BD00BFD44B00200D
:101B5000E91A00003C96FF1F08B503480349044AF0
:101B600007F028FE08BD00BFDC4B0020E91A00008A
:101B70003C96FF1F2DE9F8438146804600263746F4
:101B8000F7B94846314603F035FE0746002853D0E2
:101B9000D8F81810B1F5803F4ED0031D00F58274BF
:101BA0001A6831FB02F031FB12F200F30F0002F36E
:101BB0000F02C0EA024243F8042B9C42F0D83BE0FB
:101BC0004846314603F00AFE8446A8B33B1D051D76
:101BD000D8F8184007F5827EB4F5803F16D107F19A
:101BE0000C040C3054F8082C50F8081C92FA11F22E
:101BF00044F8082C5A6850F8041C92FA11F25A6002
:101C00000833083408309E45ECD812E055F8042B10
:101C100034FB02F034FB12F200F30F0002F30F0268
:101C2000C0EA0242196892FA11F143F8041B9E457A
:101C3000ECD8604603F09CFD013608F10408042E40
:101C40009ED13FB148463946002203F0B1FD3846E7
:101C500003F08EFDBDE8F88308B5002103F0BEFD5A
:101C60000246A0B172B60A4B186810B91A6062B683
:101C700008BD084B1B681BB9064B1A6062B608BD4D
:101C800003490B60034B1A6062B603F071FD08BD97
:101C9000F44B0020E44B002038B51C4B1A68126846
:101CA00019791B4B19701B4B9A4206D2A3F580740D
:101CB00004F5807304F5007402E0174B03F580749B
:101CC000164A106898B1021D47F6FF7532F9021BDB
:101CD0002944091123F8021B9C42F7D803F048FD60
:101CE0000F4B1A680D490A6000221A6005E040F2A5
:101CF000FF7223F8022B9C42FBD80A4B1B781BB1C6
:101D00004FF08042084B1A6038BD00BFE84B0020FE
:101D10001F800040288DFF1F288CFF1FF44B0020E0
:101D2000E44B0020F04B002008E200E070B54F4883
:101D3000012103F0EFFD4E4B1A6842F480521A6005
:101D4000802203F5032303F6F5731A700024494E2D
:101D500001253480284602F0C5FD0834A4B223B220
:101D6000B3F5006FF5D1444B1B6813F4800F16D008
:101D7000424B1A6848F6A2731A409A420FD1404B60
:101D80001A6840F22F339A4209D13E4B1B68012B4F
:101D900005D13D4B1A6840F201139A4217D0364BD9
:101DA0001A6842F480021A600122A3F59033303B96
:101DB0001A6040F22F32083B1A60043B48F6A372C7
:101DC0001A60324A1A6040F2011210331A60274C2E
:101DD00023681A6800222E491960236802211971AC
:101DE0005A7101209871D87119725A729A72DA7206
:101DF0001A736FF0010159734FF0FF319973D97362
:101E000019691C4919611A755A75D98A4FF480717C
:101E1000D9821A765A769A76DA76D88BD983998BC4
:101E200006219983237903F1804303F504331A7063
:101E3000B0221A7003F01AFD164B18702279164B57
:101E40001A70227902F110011448154B43F8210051
:101E500053119B0003F1604303F5614302F01F023D
:101E6000012101FA02F21A6070BD00BFE84B0020A8
:101E70002C80044000C00C403C80044000600340C3
:101E8000046003400C60034010600340A28F010017
:101E9000288CFF1FF04B00201B800040991C000085
:101EA0000090FF1F08B503480349044A07F082FC6D
:101EB00008BD00BFE84B0020E91A00003C96FF1F58
:101EC00008B503480349044A07F074FC08BD00BF85
:101ED000F84B0020E91A00003C96FF1F08B50348A4
:101EE0000349044A07F066FC08BD00BF004C00200F
:101EF000E91A00003C96FF1F08B503480349044A4D
:101F000007F058FC08BD00BF084C0020E91A00008B
:101F10003C96FF1F08B503480349044A07F04AFCF2
:101F200008BD00BF104C0020E91A00003C96FF1FBE
:101F300008B503480349044A07F03CFC08BD00BF4C
:101F4000184C0020E91A00003C96FF1F002380F87F
:101F500044300364C3637047F8B504460E465E2000
:101F600000F070F9134B1A8801321A8004F11C0535
:101F7000284600F08BFA074650B90F4C23685B687F
:101F800020460E4917229847204603F04FFD0FE0E8
:101F9000284600F055FA0346E063B6FBF0F1284608
:101FA00003FB116100F038FA2664012384F8443001
:101FB0003846F8BD204C002044500020B0B000004E
:101FC00008B572B690F8443013F0FF0F12D000231A
:101FD00080F8443062B61C3000F04CFA064B1B8887
:101FE00023B1013B9BB2044A138023B95E2000F069
:101FF00043F908BD62B608BD204C0020F0B589B099
:1020000004460D461646FFF7DBFF5E2000F01AF986
:10201000264B1A8801321A8072B6684624492A462D
:10202000012300F07FFB9DF8043084F82030029BF0
:1020300063629DF80C3084F8283008AB53F8135DC8
:1020400058689A68C4F82950C4F82D00C4F83120A3
:102050001B7B84F83530079BA363684600F0C2F908
:1020600062B604F11C05284600F010FA074650B984
:10207000104C23685B6820460F491722984720467A
:1020800003F0D4FC0FE0284600F0DAF90346E063E1
:10209000B6FBF0F1284603FB116100F0BDF92664A0
:1020A000012384F84430384609B0F0BD204C0020AC
:1020B000404C002044500020B0B000002DE9F04119
:1020C000074690F8443013F0FF0F68D003F0F4FA9D
:1020D0008046002863D007F11C04204600F0B6F9C2
:1020E000002848D0204608F104014FF4807200F027
:1020F0008BF90546B0F5807F24D92A4E33685B689A
:102100003046294903229847304629460A220023AF
:1021100003F09CFC304603F089FC204600F0AAF94D
:10212000224B1B8823B1013B9BB2204A138013B979
:102130005E2000F0A1F8002387F8443001233B76AD
:10214000BDE8F0813B6C03443B6400233B764508CB
:102150007F2D0AD86E00C6F5807608EB45051C4633
:10216000EA1894800233B342FAD13846414600223D
:1021700003F01EFB10E0204600F07CF90B4B1B889F
:1021800023B1013B9BB2094A138013B95E2000F0D2
:1021900073F8002387F84430404603F0E9FABDE8BD
:1021A000F08100BF44500020C8B00000204C002047
:1021B000184B1A6842F480521A60174B174A1A607B
:1021C000174ADA6002F180421A61164A1A60164B09
:1021D0001B7813F0010F07BF4FF41072134B4FF42D
:1021E0000072134B1A60104B1B7813F0020F4FF460
:1021F00000720CBF0F4B104B1A600B4B1B7813F087
:10220000040F07BF4FF410720C4B4FF400720C4BCD
:102210001A6070473C80044000C0024001401F002B
:102220000110003800001F804050002018B004400A
:1022300008C004401CB004400CC0044014B004406A
:1022400004C0044030B45E2810D84309084A012174
:1022500001FA03F514782C431470064A00F01F00AD
:10226000814052F823400C4342F8234030BC704771
:102270003C4C0020244C00205E2815D8430900F077
:102280001F00012202FA00F0084A52F8231021EA46
:10229000000042F8230038B9054A012101FA03F38E
:1022A000117821EA03031370704700BF244C00200B
:1022B0003C4C002010B582B002AB03F8011D02684F
:1022C000546819460122A04702B010BD10B504465B
:1022D000C3691BB901230371002010BD00201871D0
:1022E000E06992B201F0D6F9E3691B7913B10123D9
:1022F0002371002010BD00BF00B583B0C06960B17C
:102300000DF10701012200F035FF01280CBF9DF8F7
:1023100007004FF6FF7000B201E04FF0FF3003B04E
:102320005DF804FB30B583B00446C06978B10DF1A7
:102330000701012200F01EFF01280AD19DF8075075
:10234000E069C168013900F0F9FF284603E0002088
:1023500001E04FF0FF3003B030BD00BF08B5C069E9
:1023600008B101F023F808BD2DE9F04104460E46FE
:102370009046002303714FF47A7282600373114B0D
:102380000360242007F058FAE061B8B135460746EB
:1023900006F1200E3E4628686968AA68EB680FC6F9
:1023A000103537467545F5D12868306004F10D00C9
:1023B00041460C2208F03EFA002363762046BDE831
:1023C000F08100BFD8B00000002202714FF47A7192
:1023D0008160027302490160C2614273704700BFAD
:1023E000D8B00000014B0360704700BFD8B00000B8
:1023F0000D307047C3692BB19879012894BF002034
:10240000012070470020704708B5C06910B100F086
:10241000B1FE08BD002008BD08B5C06928B100F0B4
:102420008DFF003018BF012008BD002008BD00BF8F
:10243000C3690BB1D86870474FF0FF30704700BFD9
:10244000C3690BB1986970470020704738B50446DE
:10245000C36963B1FFF7F4FF05462046FFF7E8FFC5
:10246000281A47F6FF73984228BF184638BD002047
:1024700038BD00BF10B50446C06930B100F0C2FFDE
:10248000E06907F0E1F90023E36110BDC36923B1FE
:102490009879003018BF012070470020704700BFB6
:1024A00010B58AB004460A4600238DF80830094961
:1024B00001918DF80A3001A82146012301F054F85A
:1024C000041C18BF012414B101A800F09BFF204692
:1024D0000AB010BDF8B00000F0B40C68035D2F2BFB
:1024E0001CD101341AE0002563B11EE0013501342E
:1024F00007F8013F0C2D05D016F8013F2F2B01D016
:10250000002BF3D100235355035D2F2B08BF01345B
:102510000C60005D003018BF01200BE00619035D60
:102520002F2B08BF0025EDD0DDE7013413701746CF
:102530000125E1E7F0BC70472DE9F04F99B08246E4
:102540000F469146984600238DF81C30244A069287
:102550008DF81E308DF840300F928DF84230019387
:102560000C4606AE4FF0010B03E00FAC2346344699
:102570001E46504601A902AAFFF7AEFF054680F0AD
:102580000102204602A9D2B24346C84730B9BC4234
:102590001CD0204600F036FF00201EE07DB1304602
:1025A000214602AA5B4600F0DFFF0546BC4211D07F
:1025B000204600F027FF002DD8D100200DE0BC42BE
:1025C00006D0204600F01EFF012006E0002004E0B7
:1025D000012002E00028C8D1002019B0BDE8F08F2A
:1025E000F8B0000038B504460A46012100F0C8FAE8
:1025F000A8B1251D28462146012201F0F9FA28B983
:1026000028462146002201F0F3FA50B104F12C00D3
:10261000294600F085FD003018BF012038BD00209C
:1026200038BD002038BD00BF2DE9F04F99B081467C
:102630009346019300238DF81C30394A06928DF899
:102640001E308DF840300F928DF8423006A80431CC
:1026500000F066FD5C460FAE06AD4FF02F084FF060
:10266000000A2CE023782F2B01D1013427E03F1BF7
:10267000FFB20C2F28BF0C2702A821463A4608F0CB
:10268000D9F818AB3B4403F858AC304600F0BAFE1A
:102690003046294602AA012300F066FF40B9002314
:1026A00089F804301E4AC9F8002089F8063032E063
:1026B0003C44284600F0A6FE2B4635461E462046E2
:1026C000414607F047FE07460028CBD1CBEB040478
:1026D000019B1C602B7989F80430114BC9F800303C
:1026E0006B7989F80530AB7989F80630AB68C9F8A1
:1026F0000830EB68C9F80C302B69C9F810302B7D15
:1027000089F81430AB69C9F81830EB69C9F81C3086
:102710002B6AC9F82030484619B0BDE8F08F00BFD9
:10272000F8B00000F0B5A7B0044615461F4602A851
:1027300001ABFFF779FF01996E18695C19BB9DF831
:102740000C308DF85430344B14939DF80D308DF8C7
:1027500055309DF80E308DF85630049B1693059B2E
:102760001793069B18939DF81C308DF86430089BD6
:102770001A93099B1B930A9B1C93204614A9274A72
:10278000FFF7F2FD45E000218DF83010224B0B934E
:102790008DF832109DF80E301BB92046FFF714FE5D
:1027A00037E00BA802A932463B4600F0DDFE18B91F
:1027B0002046FFF709FE2CE002A800F023FE17F0E8
:1027C000060F03D00BA8119900F0B8FD9DF830302A
:1027D0008DF87830104B1D939DF831308DF879309D
:1027E0009DF832308DF87A300D9B1F930E9B20930D
:1027F0000F9B21939DF840308DF88830119B2393D7
:10280000129B2493139B259320461DA93246FFF764
:10281000ABFD204627B0F0BDF8B0000020AD0000B1
:1028200008B500F12C0308461946024A0023FFF7B9
:1028300083FE08BDA1240000F0B59FB006460D46FA
:10284000174649E09DF810401CB93046FFF7BCFD23
:102850004BE0E52C40D02E2C3ED09DF81B1011F003
:10286000080F39D100238DF83430214A0C928DF8AD
:10287000363004A8694600F0F3FB0CA8E9696A4603
:102880003B4600F071FE18B39DF834308DF8583097
:10289000174B15939DF835308DF859309DF836302B
:1028A0008DF85A300E9B17930F9B1893109B19931A
:1028B0009DF844308DF86830129B1B93139B1C933A
:1028C000149B1D93304615A96A46FFF74DFD0CE099
:1028D0003046FFF779FD08E0E86904A900F0E6FC5E
:1028E0000028AFDC3046FFF76FFD30461FB0F0BD6B
:1028F000F8B00000064B00229A700221596083F85C
:10290000242083F830200349D96283F832207047AD
:10291000404C0020F8B00000084B1A6842F4806276
:102920001A604FF00042DA62FF225A631A46D36AF5
:10293000002BFCDA014B986BC0B2704700C002401C
:10294000064B1A6842F480621A604FF00042DA6265
:1029500058631A46D36A002BFCDA704700C0024065
:1029600008B505281ED8DFE800F003080D11151979
:102970004FF038420E4B1A6017E04FF038420C4BC4
:102980001A6012E00B4A0A4B1A600EE00A4A084B22
:102990001A600AE0094A064B1A6006E0084A044B2E
:1029A0001A6002E0074A024B1A60FFF701FC08BDFB
:1029B000944C0020000002B80000023801100138D9
:1029C000010002380540013808B50078012101F006
:1029D000E3FE114B1B78F3B100220F4B1A700F4B23
:1029E0001B78C3B113F0010F03D00D4B1A680D4BC8
:1029F0001A600A4B1B7813F0020F03D0084B5A6879
:102A0000094B1A60054B1B7813F0040F03D0044BDD
:102A10009A68064B1A6008BD984C00203C4C002078
:102A2000304C002000E100E004E100E008E100E0BB
:102A300010B5244B1B78002B3ED10122214B1A707C
:102A4000214B1A68214B1B78002B28D072B61F4BE4
:102A50001B7813F0010F07D01D4B1C681D49096836
:102A600021401D4C21601960184B1B7813F0020F98
:102A700007D01A4B1C68174949682140164C616001
:102A80001960124B1B7813F0040F07D0144B1C680D
:102A9000104989682140104CA160196062B6114B41
:102AA000DB68934208D00F4B0F491960DA6042F09F
:102AB00080421A610D4A1A600078002101F06CFE14
:102AC00010BD00BF984C0020944C00203C4C0020CE
:102AD00080E100E0244C0020304C002084E100E044
:102AE00088E100E000C0024001401F0000001F809C
:102AF00070B582B00E460B4B1B680093009C094DCD
:102B0000A4B2FFF709FFFF2807D02B680193019BB0
:102B10009BB21B1BB342F4DB01E0012000E000206C
:102B200002B070BD1C4F0020F8B505460F46164692
:102B30004FF49671FFF7DCFF47F04000FFF700FF0E
:102B4000182426FA04F0C0B2FFF7FAFE083C14F18C
:102B5000080FF6D127B1082F0CBF8720FF2000E017
:102B60009520FFF7EDFE0024FFF7D6FE687010F009
:102B7000800F03D00134B4F5807FF5D1F8BD00BFDC
:102B80002DE9F04F87B00446019100238370027055
:102B90007D4B1B680393039FBFB21046012101F0D8
:102BA000FBFD2078012101F029FE2078012101F0B0
:102BB000F3FD764B1A6842F480521A600620FFF744
:102BC000CFFE734B1A68734B1B78002B28D072B65C
:102BD000704B1B7813F0010F07D06F4B18686F49CB
:102BE000096801406E48016019606A4B1B7813F058
:102BF000020F07D06B4B1868684949680140684864
:102C000041601960634B1B7813F0040F07D0664BCB
:102C1000186862498968014061488160196062B63C
:102C2000624BDB68934200F0A080604B6049196002
:102C3000DA6042F080421A615E4A1A6095E02846E6
:102C4000FFF77EFE013E16F0FF06F8D1514B1B78D0
:102C5000C3B113F0010F03D0514B1A68564B1A60E1
:102C60004C4B1B7813F0020F03D04D4B5A68534B5B
:102C70001A60484B1B7813F0040F03D0484B9A6836
:102C80004F4B1A602046FFF7D3FE4FF00008DFF8E5
:102C9000F89008E0D9F800300493049BDB1B9BB24A
:102CA000B3F5FA6F5DD8204641464246FFF73CFF38
:102CB000054660700128EDD1204608214FF4D572F9
:102CC000FFF732FF10F0040F04D00123A3704FF080
:102CD000000A0FE04FF00408FFF71EFE607008F1D5
:102CE000FF3313F0FF08F7D1AA283AD10223A370CB
:102CF0004FF0804A4FF037094FF00008DFF888B0F6
:102D000008E0DBF800300593059BDB1B9BB2B3F5B5
:102D1000FA6F26D8204649464246FFF705FF20466F
:102D200029215246FFF700FF60700028E9D1A378FF
:102D3000022B0ED120463A210022FFF7F5FE80B982
:102D4000FFF7EAFD00F0C000C02811D10323A370F3
:102D50000EE02046FFF738FE0198FFF701FE2E46F1
:102D60000DE02046FFF730FE09E00A26FF2566E762
:102D7000FFF7D2FDFFF7D0FDFFF7CEFDE9E73046C4
:102D800007B0BDE8F08F00BF1C4F00203C8004401E
:102D9000944C00203C4C002080E100E0244C0020BA
:102DA000304C002084E100E088E100E000C00240F7
:102DB00001401F0000001F8000E100E004E100E08E
:102DC00008E100E070B582B004460E4B1B6800932A
:102DD000009D0C4EADB207E033680193019B9BB29E
:102DE0005B1BB3F5967F09DCFFF796FD6070FF284B
:102DF000F2D0FE2814BF0020012000E0002002B025
:102E000070BD00BF1C4F0020F8B504460D461646A5
:102E10008378032B18BF4D02FFF70AFE20461121CD
:102E20002A46FFF781FE002847D12046FFF7CAFF58
:102E3000002842D0234B244A1A60244A5A635A631A
:102E40005A6306F5FD7E764513D2B01C06F5FE7773
:102E50001946CB6A13F0F00FFBD04A638B6BC3F3B8
:102E6000072500F8025C00F8013C0230B842F0D1BE
:102E700000E0B64606F5007676450DD97146114A52
:102E8000D36A13F0F00FFBD0936BC3F307200870E5
:102E90004B7002318E42F3D80A4B0B4A1A600B4A30
:102EA0005A631A46D36A13F0F00FFBD0054B9B6BA5
:102EB0002046FFF789FD0120F8BD2046FFF784FD7D
:102EC0000020F8BD00C0024000041F80FFFF0090FA
:102ED000F8B506461E4B186840F4806018604FF045
:102EE0000040D8625963114602F500770446DA6A59
:102EF000002A08DBFBE7DA6A002A0DDBFBE7D36A6E
:102F0000002B15DBFBE708460A781D6845F4806551
:102F10001D60DC625A63EEE742781D6845F4806507
:102F20001D60DC625A630231B942E0D1084AE6E72B
:102F3000FF20FFF705FDFF20FFF702FDFFF7ECFC88
:102F4000707000F01F00052814BF00200120F8BD9C
:102F500000C0024070B5044616460D4629B383787A
:102F6000032B18BF4D02FFF763FD204618212A46A8
:102F7000FFF7DAFDC8B92046FE213246FFF7A8FF69
:102F800098B120464FF41671FFF7B2FD68B12046A4
:102F90000D210022FFF7C8FD38B9FFF7BDFC20B9AD
:102FA0002046FFF711FD012070BD2046FFF70CFD04
:102FB000002070BD014A024B1A60704700000238C1
:102FC000944C002010B50446006A012104F1080267
:102FD00000F084FD034650B1E3693BB9A368E361A7
:102FE000637963F07F036371012300E001231846D6
:102FF00010BD00BF70B50646FFF7E4FF0346E0B121
:10300000336AB268023A197C02FA01F55A6915442A
:103010001C794CB1013D281900F096FC034660B1C3
:10302000013C14F0FF04F6D1336A1B7C4FF40072AC
:103030009A40B3691344B3610123184670BD00BFC1
:1030400010B50446006900F05BFC20B1207D034B05
:1030500003EB401010BD002010BD00BFA84C0020A5
:1030600070B400231A462E26C45C202C09D0DCB292
:10307000082C02D1541C8E54E2B2541CC55C8D54F1
:10308000E2B201330B2BEFD100238B5470BC70479D
:103090002DE9F00100232022CA5401330B2BFBD170
:1030A0000138002507264FF008084FF00A0C1B4F87
:1030B00021E02E2C01D03A4606E00A2E24D04546C7
:1030C000664618E0A34221D012F8013F002BF9D147
:1030D000AE421DD3A4F12103DBB25D2B1AD86B1CC9
:1030E000DBB20D44A4F16102D2B2192A9CBF203C8C
:1030F000E4B22C701D4610F8014F002CD9D108788D
:10310000203818BF012006E0002004E0002002E083
:10311000002000E00020BDE8F0017047FFB0000093
:1031200038B504460D4683790BBB91F82020102A50
:1031300007D1022383710023C3614B8C5B01836140
:103140000CE0202A14D103238371496AC161284607
:1031500004F1180200F04EFC034648B12562012339
:1031600063710022A260E2602261227500E0002308
:10317000184638BD2DE9F04F83B0044688460192C9
:103180008379002B69D0437913F0010F68D08269ED
:10319000C368D11A0198884201D98BB20193019B6F
:1031A000002B57D01D46DFF8F8A0DFF8F890DFF8C5
:1031B000F8B0E368C3F30807A279022A04D1226AAF
:1031C000516A01EB53211BE0206A0679013E06EAB1
:1031D0005326F6B25FB956B913B9E369A36006E0A6
:1031E000224652F8081F00F0CFFB00283BD0226A8D
:1031F000A368023B117C03FA01F152691144314486
:10320000C7F500739D42C6BF1E46B6B22E4663790F
:1032100013F0400F02D1B6F5007F36D1D9F8003057
:1032200099422AD131E0B0440DE05744B8198742A1
:1032300009D03B46424613F8011B02F8011B8342AA
:10324000F9D1C71BB844E3683344E360AD1BADB2AA
:10325000002DAED1019B98B20DE04FF6FF700AE051
:103260004FF6FF7007E04FF6FF7004E04FF6FF7077
:1032700001E04FF6FF7000B20EE0DBF800004246BE
:10328000FFF7C2FD0028CED1F0E70846002100F08C
:1032900037FB0028C9D1ECE703B0BDE8F08F00BFD1
:1032A000A84C00206496FF1FA44C002070B5054672
:1032B0000C468379012B1CD9C36813F01F0F1AD158
:1032C000202609E0237883B1E52B05D02E2B03D0EF
:1032D000E37A13F0080F10D0284621463246FFF754
:1032E00049FFC0B243B2202BECD040F3C011C8B2AA
:1032F00004E0FF2002E0FF2000E0202040B270BD8B
:1033000030B583B004468379012B0FD9C5680DF120
:1033100007010122FFF72EFF012809D1E3681F33BF
:10332000E36005F4F070044B184402E0002000E074
:10333000002003B030BD00BFA84C0020F8B5044603
:103340000F4683797BB382698A422BD3022B02D149
:10335000E160012327E021B900238360C3600123DA
:1033600021E0C368026A157C09355A1EEA4001391A
:1033700021FA05F5AA4200D813B9E369A3600AE06F
:10338000AD1A08E0206AA168324600F0FDFA013D5E
:10339000034610B907E004F10806002DF2D1E760FA
:1033A000012300E000231846F8BD00BF38B50446ED
:1033B000807918B394F90530002B1BDA20460121DF
:1033C000FFF73EFE0546C0B1A379012B9CBFA36960
:1033D000C361A38B4383E38B8382094B1B682BB1AF
:1033E000183005F1160198472B8B6B82637903F037
:1033F0007F03637100F058FA38BD002038BD00BF6C
:103400009C4C002010B50446FFF7D0FF034610B1D6
:103410000023A3710123184610BD00BFF0B583B08F
:1034200004460D468379012B4ED1427902F0020207
:1034300002F0FF01002A49D08269AA4248D3002A3B
:1034400047D0C6682946FFF779FF0346002840D0D9
:103450004DB9206AE16900F0A5FB0346002838D089
:103460000023E3611DE0206AA16801AA00F08CFA44
:10347000A8B1206A019990F820704FF6F872164BA7
:10348000102F08BF134699420BD200F08BFB30B1CE
:10349000206AA1686FF0704200F0D8FA08B90023E2
:1034A00017E0A561637963F07F0363712046FFF73E
:1034B0007DFF034668B12046B54234BF29463146F8
:1034C000FFF73CFF034604E0002302E00B4600E068
:1034D0000023184603B0F0BDF8FFFF0F38B50446CF
:1034E00015461F4B03EB4113DA7A12F0110F02D08D
:1034F00015F0420F2CD121751A4A12682261998A5F
:103500000904E1615A8B1143E161D87A10F0180087
:1035100004D1DB69A3610123A3710AE0102819D14A
:10352000206A04F1180200F065FA0346A8B10423EA
:10353000A37105F00F0363710023A360E36015F02E
:10354000400F09D020461946FFF768FF034604E004
:10355000002302E0002300E00123184638BD00BF2D
:10356000A84C00206496FF1F2DE9F04F85B005465A
:103570000C469A468679002E7FD1104601A9FFF7A6
:1035800087FD00287BD0236A2B620027A760E760B5
:10359000DFF8FC904FF0010825E0C1F3431B204603
:1035A000FFF7AEFE014600286AD003780BB1E52B89
:1035B00009D12FB985F814B0D9F800302B614746EE
:1035C0000B7883B913E001A80B2206F0E1FB50B998
:1035D0000AF03003302B53D0284659465246FFF7A5
:1035E0007DFF06464CE0E168A3699942D5D30AF015
:1035F0001203122B44D137B128460121FFF720FDD9
:10360000044660B93CE0A379022B39D02046FFF78D
:10361000F1FC0646002833D000232B751A4C2046B7
:103620000021202206F048FC01AB03CB2060616042
:103630001A889B782281A372144B1B682BB104F16A
:10364000100004F10E01984707E02123237428237A
:1036500063740023A3730823E373238A63822383A1
:10366000E389E38200F020F9064648B12846297D27
:103670005246FFF733FF064602E0002600E006460A
:10368000304605B0BDE8F08FA84C00209C4C0020CF
:103690006496FF1F2DE9F04F85B0044688460192DD
:1036A0008379012B40F0BE80437913F0020F00F0C4
:1036B000B98013F0040F08D08169C3688B4204D02D
:1036C000FFF73CFE002800F0AD80019A002A00F0D0
:1036D0008C801646DFF8B0A1DFF8B0B1206AE76849
:1036E00090F8049009F1FF3909EA5729C7F3080750
:1036F00019F0FF0929D1002F40F0AA80A16851B923
:10370000E36933B92046FFF75DFC002840F08E8066
:1037100088E0A3608AE003AA00F036F9002800F0F0
:10372000A880039B226A92F820004FF6F871524A53
:10373000102808BF0A46934205D32046FFF742FCF3
:10374000002873D16EE0A36070E0C7F50075ADB2DC
:10375000AE4238BF3546A368023B027C93404269C3
:1037600013449944B5F5007F12D1DBF800304B4586
:1037700004BF4FF0FF33CBF80030404B1868494688
:103780004246FFF7E7FB00284CD008F5007824E01C
:103790007FB9E268A3699A420BD300F085F800284C
:1037A00040D0CBF80090364A137843F001031370F1
:1037B00005E04846012100F0A3F8002832D0574424
:1037C0007819874209D03B46424612F8011B03F89C
:1037D000011B8342F9D1C71BB844761BB6B2E3681C
:1037E0001D44E560002E7FF479AFE368A26993423F
:1037F00005D9A361637963F07F03637108E0214B0E
:103800001B682BB1019B1BB1637963F07F0363716C
:10381000637913F0080F03D02046FFF7C7FD08B106
:10382000019826E001232371002022E0B6F5007FF5
:1038300034BF35464FF40075236AA268023A197CFA
:1038400002FA01F95B699944B5F5007FA1D18CE7D3
:10385000C7F50075ADB2AE4238BF3546A368023B2E
:10386000027C03FA02F943699944B5F5007FA0D1BF
:103870007BE705B0BDE8F08FF8FFFF0FA44C0020F8
:10388000A84E00209C4C0020A84C00206496FF1FEE
:1038900000B583B002AB03F8011D19460122FFF702
:1038A000F9FE03B05DF804FB08B5104B1B78D3B1EB
:1038B0000F4B18680F4B19680F4AFFF74BFB034675
:1038C00090B10E4B196849B1094B18680A4AFFF7C5
:1038D00041FB034640B10022084B1A600022034B13
:1038E0001A70012300E00123184608BDA84E0020ED
:1038F000A44C00206496FF1FA84C0020A04C002080
:1039000038B504460D460C4B1B6883420DD0FFF7BB
:10391000CBFF034670B1094B18682146084AFFF7F0
:1039200073FA034630B1044B1C60064B1A781543FA
:103930001D700123184638BD6496FF1FA44C00205B
:10394000A84C0020A84E002010B50446FFF7ACFF9D
:10395000034680B109494B1E01F2FF11002203F812
:10396000012F8B42FBD1064B1C60064B1A7842F0AC
:1039700001021A700123184610BD00BFA84C002098
:103980006496FF1FA84E002070B504460D461646EB
:10399000C36801338B4225D3C36990F82020102AD5
:1039A0000CBF080AC8091844104B1B68984204D081
:1039B0000021FFF7A5FF0346A8B194F82030102B93
:1039C00006D1EDB20A4B33F81530336001230AE01B
:1039D00005F07F05064B53F8253023F07043336024
:1039E000012300E00023184670BD00BF6496FF1F4E
:1039F000A84C00202DE9F04383B0044602AE46F8FF
:103A0000041D914600254FF400780F4F2046019980
:103A10003246FFF7B9FF034688B1237C08FA03F367
:103A20001D4494F820104FF6F873102914BF39463E
:103A30001946019B8B42E9D3C9F80050012318466F
:103A400003B0BDE8F08300BFF8FFFF0FF8B50446F0
:103A50000D461746012931D9C368013399422FD841
:103A6000C36990F82020102A0CBF0E0ACE091E440C
:103A7000164B1B689E4205D030460021FFF740FFE1
:103A8000034600B394F82030102B04D1EDB2104B54
:103A900023F8157004E005F07F050D4B43F8257001
:103AA0000C4B1A7842F001021A70237E012B09D9BF
:103AB000A3681E44084B1E60012304E0002302E0BB
:103AC000002300E001231846F8BD00BF6496FF1FE5
:103AD000A84C0020A84E0020A04C00202DE9F04F5B
:103AE00085B006468A46009217681FB10137002349
:103AF000019305E00768012914BF00230123019306
:103B0000F36803F10108DBB13C4600254FF00209E0
:103B1000CB46A0453CBF4C465F463046214603AAF3
:103B2000FFF732FF60B1039B0BB1671C03E0631C1E
:103B3000DB1B534506D001350134F368AB42E8D8AE
:103B400000232AE0304621466FF07042FFF77EFFE7
:103B5000034648B921E0651E304629462246FFF754
:103B600075FF034618B918E0BC42F4D803E0BD4223
:103B700001D92C46EFE7009B196829B130463A4637
:103B8000FFF764FF034640B1009B1F60019B1BB120
:103B900001373760012300E00123184605B0BDE876
:103BA000F08F00BFF0B583B005460C4602230360DA
:103BB00000260E4F2846214601AAFFF7E5FE80B1F8
:103BC000284621463246FFF741FF50B1019C95F847
:103BD00020104FF6F873102918BF3B469C42E9D3DA
:103BE00001E0002000E0012003B0F0BDF8FFFF0F6E
:103BF000F8B50546494B19601446DAB1042A7FD856
:103C000000200146FFF77CFE0346002800F0838079
:103C1000434B03EB041494F8AE3104F5D47413F061
:103C20007F036FD1D4F81210632974D9D4F80E40F1
:103C30000CB970E0002420460021FFF761FE034626
:103C4000002868D0364BB3F80B30B3F5007F5BD15A
:103C5000334B1B7C002B5ED0314AD289002A55D0D1
:103C60002F4A517B002953D02B76297100232B74C6
:103C7000012003E05A1C2A74072B4BD82B7C1E46CC
:103C800000FA03F29142F5D1254BD98A01B9596A5C
:103C9000A960234BDA892244EA61B3F8110087B2A4
:103CA00068841B7C03FB01236B627A0102F2FF1222
:103CB00003EB62236B611A4AB2F813200AB9184A5F
:103CC000126AE31A134423FA06F6EE6040F6F47320
:103CD0009E4204D80C2385F8203001231BE04FF6C8
:103CE000F4739E4204D8102385F82030012312E09B
:103CF0000B4BDB6A6B62202385F8203001230AE03E
:103D0000002308E0002306E0002304E0002302E093
:103D10000B4600E000231846F8BD00BFA44C00206D
:103D2000A84C00200B4B1B7813B90B4B1B7873B1BD
:103D30000A4B1B78202B03D9012303710020704705
:103D4000581C064A1070064AD154012070470020C2
:103D5000704700BF124F0020D44E0020134F0020A8
:103D6000B04E0020704700BF024B1878024B1B7802
:103D7000C01A7047114F0020104F0020074B1B78CE
:103D8000074A12789A4205D9591C044A1170054A0B
:103D9000D05C70474FF0FF30704700BF104F0020DD
:103DA000114F0020D84E0020054B1B78054A127891
:103DB0009A4286BF044AD05C4FF0FF30704700BF84
:103DC000104F0020114F0020D84E002008B5104B96
:103DD000DB7813F0200F0CD1122000F083FC0D4B88
:103DE0001B689BB100210C4A11700C4A107898474F
:103DF00008BD0B4A13780133DBB21370012B02D8D4
:103E0000084B1B7813B9122000F06CFC08BD00BFF2
:103E100000600640AC4E0020104F0020114F0020E3
:103E2000FC4E0020D44E002038B514460D4B1B78B4
:103E300013B90D4B1B7893B10C4B1D78C5F12103C1
:103E4000A34202D2012202711C460948284422469C
:103E500000F0B4F82544054B1D70204638BD002005
:103E600038BD00BF124F0020D44E0020134F002059
:103E7000B04E0020002202714FF47A71816002730B
:103E8000014A0260704700BF18B1000008B53D4B01
:103E9000DB78DBB213F0100F06D01021394AD17055
:103EA00013F0400F03D108BD13F0400F2CD013F0D6
:103EB000040F1BD00023344A1370344A1370344B60
:103EC0001B681BB19847314B1B782BB901222F4B34
:103ED0001A7000222F4B1A702A4BD0229A702D4A4A
:103EE00012781A7101222C4B1A7009E00122264B1C
:103EF0001A700022294B1A70224BC0229A701B792B
:103F00000222204BDA7008BD1E4A927812F0100F80
:103F10001CD013F0010F14D11F4B1B781B4A1278D1
:103F20009A4207D9591C1C4A11701A4AD25C154B87
:103F30001A7102E00022134B1A71D022114B9A70B1
:103F40001BE0104BC0229A701B7916E00022144B24
:103F50001A7012201349032200F04CFB094B1B7905
:103F6000DAB20E4B1B781F2B07D80749097821B10D
:103F7000581C0A4908700C49CA540222014BDA70D5
:103F800008BD00BF00600640A94E0020134F00206E
:103F9000F84E0020B04E0020144F0020114F00209A
:103FA000FC4E0020CD3D0000D84E002008B5024850
:103FB000FFF760FF08BD00BF004F0020844641EAC4
:103FC000000313F003036DD1403A41D351F8043B91
:103FD00040F8043B51F8043B40F8043B51F8043BE3
:103FE00040F8043B51F8043B40F8043B51F8043BD3
:103FF00040F8043B51F8043B40F8043B51F8043BC3
:1040000040F8043B51F8043B40F8043B51F8043BB2
:1040100040F8043B51F8043B40F8043B51F8043BA2
:1040200040F8043B51F8043B40F8043B51F8043B92
:1040300040F8043B51F8043B40F8043B51F8043B82
:1040400040F8043B51F8043B40F8043B403ABDD2F1
:10405000303211D351F8043B40F8043B51F8043B93
:1040600040F8043B51F8043B40F8043B51F8043B52
:1040700040F8043B103AEDD20C3205D351F8043B22
:1040800040F8043B043AF9D2043208D0D2071CBFEE
:1040900011F8013B00F8013B01D30B880380604617
:1040A000704700BF082A13D38B078DD010F003038D
:1040B0008AD0C3F10403D21ADB071CBF11F8013BFD
:1040C00000F8013B80D331F8023B20F8023B7BE74C
:1040D000043AD9D3013A11F8013B00F8013BF9D277
:1040E0000B7803704B7843708B7883706046704711
:1040F00030B4394A3949136813F0800FFBD10B688B
:1041000013F0800FF7D172B6354B1B78002B5FD0C0
:10411000344B1C6804331D68043318680433196871
:1041200004331A6804331B682C44204401440A44B5
:104130001A44C2F34E0242F400422B4B1A602C3355
:104140001C6804331D680433186804331968043389
:104150001A6804331B682C44204401440A441A445E
:10416000C2F34E0242F40042204B1A6003F10813DE
:104170001C6804331D680433186804331968043359
:104180001A6804331B682C44204401440A441A442E
:10419000C2F34E0242F40042154B1A602C331C68E5
:1041A00004331D68043318680433196804331A682B
:1041B00004331B682C44204401440A441A44C2F3CB
:1041C0004E0242F400420B4B1A600022044B1A705C
:1041D00062B630BC704700BF24B0034024B00B402F
:1041E000164F002038B003402CB0034030B00340DD
:1041F0002CB00B4030B00B4060223A4B1A70E122D9
:1042000001331A70384B1B78082B10D1012203F1AF
:10421000804303F56C331A60132334490B6001F5B6
:10422000FF2101F2FC710A60314A13601FE00A2B82
:104230000DD119222F4B1A6013232C490B6001F565
:10424000FF2101F2FC710A60294A13600FE00C2B78
:104250000CBF15223D22274B1A60122323490B6005
:1042600001F5FF2101F2FC710A60214A1360224B23
:104270001B7833B10123214A136002F50022136039
:1042800005E000231D4A136002F5002213601C4B59
:104290001B78012B06D880231A4A136002F50022EE
:1042A00013601AE0042B06D88423164A136002F523
:1042B0000022136011E0082B06D88523114A1360F1
:1042C00002F50022136008E0102B94BF8623872399
:1042D0000C4A136002F50022136001220A4B1A7087
:1042E000704700BF004007406896FF1F0CB00340B6
:1042F0000CB00B4008B00340194F002020B0034021
:104300006996FF1F24B00340164F00202DE9F843A3
:10431000282873D83C4B1E5CFF2E72D03B4B1B7879
:104320000BB1FFF7E5FE16F0800F29D172B6384CBD
:10433000384D4FF0010726602F7062B672B62368C1
:1043400013F0800F04D12B7813F0FF0F0FD1F2E799
:10435000314B186800222F4B1A7062B62F4B1B7816
:104360001841BDE8F8832B7813F0FF0FE3D062B655
:1043700001F06EFD72B6236813F0800FF3D0E7E70B
:1043800072B606F040095FFA89F9254F254C06F010
:104390003F06254D4FF00108B9F1000F04D03B68EE
:1043A00023F010033B6003E03B6843F010033B60E5
:1043B000266085F8008062B672B6236813F0800F1D
:1043C00004D12B7813F0FF0F0FD1E5E7174B1868D6
:1043D0000022154B1A7062B6104B1B781841BDE8CD
:1043E000F8832B7813F0FF0FD6D062B601F030FDC2
:1043F00072B6236813F0800FF3D0E7E70020BDE822
:10440000F8830020BDE8F88330B10000164F00208B
:1044100000B00340184F002010B00340154F00209B
:104420000CB00B4000B00B40174F002010B00B40F9
:10443000024A137813F0010FFBD0704701000240CD
:1044400010B584B01B4B6C46186859689A68DB68D5
:104450000FC4194B1B7813F0020F23D0174B1B7896
:1044600013F070031CBF154A13708022144B1A708E
:104470000022033B1A70332207331A700322013BD8
:104480001A7072B66B4643F001030C4C20469847F5
:1044900062B6237813F0700304D0237008E0013B68
:1044A00002D105E0074B04490A7812F0010FF6D05B
:1044B00004B010BD5CB100000100024000000240E9
:1044C00007000240410D030010B50446B0F5006F2F
:1044D0000BD2074B1B7813F0010F01D1FFF7B0FF90
:1044E00004F1A0542078C0B210BD002010BD00BF60
:1044F0000100024038B504460D46B0F5006F16D2F3
:104500000B4B1B7813F0010F01D1FFF799FF04F15A
:10451000A0542378DBB2AB4209D0064B1B7813F0D2
:1045200070031CBF034A13702570FFF781FF38BD6D
:104530000100024000000240024B1A6801321A607A
:10454000704700BF1C4F002008B50D4C236813F4C2
:10455000802F01D000F01CFB236813F4806F01D082
:1045600001F0CEFF236813F4006F01D002F07AFB54
:10457000236813F4805FE9D002F032FEE6E700BF63
:104580003480044008B5FFF7DFFF00BF1022014B65
:104590001A80704700200540704700BF024A136828
:1045A00018441060184670476C96FF1FFEE700BF66
:1045B000EFF31383ABB9EFF31083ABB9EFF30583DC
:1045C00023B10F2B05D9094A985C03E04FF48070A2
:1045D00000E00020EFF311833BB1834238BF18465F
:1045E00070474FF0FF30704700207047F0E300E065
:1045F000704700BF30B421285AD8042A58D8DFE8C1
:1046000002F00709050B03000B2206E00A2204E072
:10461000082202E00C2200E009221404254B03EBDF
:10462000C0004368244A2548C2F89C012448C2F8C7
:10463000A0012448C2F8A4012348C2F8A8012348D5
:10464000C2F8AC0103F14042A2F592227C2A18D9AB
:1046500003F14040A0F594207C2814D903F1404296
:10466000A2F596227C2A10D903F14042A2F59822A5
:104670007C2A0CD903F14042A2F59A227C2A08D95F
:1046800016E0134D06E0134D04E0134D02E0134D08
:1046900000E0134D72B61A6822F470221A60C3F358
:1046A000840045F8201042F0807214431C6062B60A
:1046B00030BC70476CB100000090FF1F1196FF1FC7
:1046C000E595FF1FB995FF1F8D95FF1F6195FF1F92
:1046D0007096FF1FA896FF1FF896FF1F2897FF1FD1
:1046E0004897FF1F1D4B03EBC000436803F1404296
:1046F000A2F592227C2A18D903F14042A2F5942215
:104700007C2A14D903F14042A2F596227C2A10D9C2
:1047100003F14042A2F598227C2A0CD903F14042D1
:10472000A2F59A227C2A08D970470D4906E00D4966
:1047300004E00D4902E00D4900E00D4972B61A6827
:1047400022F0877222F4803242F080721A60C3F342
:104750008403084A41F8232062B670476CB1000018
:104760007096FF1FA896FF1FF896FF1F2897FF1F40
:104770004897FF1FF1450000044B00221A600449CE
:104780000A60044A106010221A60704714D0034077
:1047900004D0034000D0034021281ED80F4B53F80B
:1047A000303093F8802212F0FF0F08D019B10122A7
:1047B00083F880207047012283F800217047074B5F
:1047C00003EBC000436821B11A6842F003021A608B
:1047D00070471A6822F002021A6070476CB100003C
:1047E000212806D8044B53F8303093F80002C0B2A9
:1047F00070470020704700BF6CB1000021284AD8E4
:10480000254B03EBC0035B68012911D004291DD09F
:10481000214A52F83020002082F8800200292FD04F
:10482000022931D003291FD040F203121A607047C9
:10483000194A52F83020012182F880124FF4A272F6
:104840001A601A6822F020021A607047124A52F861
:104850003020012182F880124FF4A2721A601A6887
:1048600042F020021A6070474FF480721A601A6892
:1048700042F002021A601A6822F001021A607047C0
:104880004FF480721A6070474FF480721A601A6891
:1048900042F003021A6070476CB1000072B60D4B13
:1048A0001B680D4A12680D49096862B611F0806FE5
:1048B00002D0322B88BF0132C3F58C3303F23F1391
:1048C0000749A1FB03031B094FF47A7000FB023078
:1048D000704700BF18E000E01C4F002004ED00E02E
:1048E000398EE33838B50546FFF7D8FF044625B9B9
:1048F00038BD013D0AD004F57A74FFF7CFFF001BE5
:10490000B0F57A7FF5D201F0A3FAF6E738BD00BF23
:1049100010B5264B4FF400021A604FF080721A60F7
:104920004FF000721A604FF080621A604FF0006220
:104930001A6000201E4B186048F6FF71043319609E
:1049400028231C4A136008321360083213600832AF
:1049500013600832136008321360083213600832A3
:1049600013600922144C226004F580540434206042
:10497000043421600434236008342360143C226032
:1049800004F5FE24043420600C4801600C490B60DF
:1049900008310B600B4B1A60FFF72EFC4FF4C87008
:1049A000FFF7A0FF00F074FC10BD00BF08E100E0BD
:1049B000048003400C8003400080034008800B40CB
:1049C0000C800B4000800B4030B40E4B1B7843F042
:1049D00002020D4C04EBC20460600C480078002811
:1049E0000CBF8824C82444EA0141074D45F8321021
:1049F00080F00100054A107083F00103014A137032
:104A000030BC7047884F00200080FF1F01500020FD
:104A100010B4431E032B11D872B60A4A52F8230071
:104A200050B14268074941F82320074A32F8134041
:104A30000188611A22F8131062B600E000205DF8C8
:104A4000044B7047784F00204C5200200138032857
:104A50000DD872B6074B53F820302BB1002001302F
:104A60005B68002BFBD100E0002062B6704700209D
:104A7000704700BFCC4F002038B572B601231B49E8
:104A80001B4C5A1812F8012C12F0080F24D09A006F
:104A900054F832506DB9164B03EBC2010830486030
:104AA000144943F83210144B1A78013A1A7062B65E
:104AB00038BD42F0010254F832506DB90C4B03EB93
:104AC000C201083048600D4943F832100A4B1A7889
:104AD000013A1A7062B638BD0133052BD1D162B6E6
:104AE0000022054B1A7000F037FC38BDA8B2000058
:104AF0000080FF1F88004000F64F0020C8004000E3
:104B000010B4431E032B37D8400140F010001C4A5C
:104B1000104472B61B4AD25C032A09D8DFE802F0BF
:104B200019021B050830022216E00830042213E0A7
:104B3000154A52F823201AB9134A42F8231003E009
:104B4000124A52F823205160104A42F8231062B6EC
:104B500012E0032200E005220A4CE25401F10803AE
:104B6000436000F00803002B0CBF8823C8230A8889
:104B700043EA0243036062B65DF8044B704700BF2E
:104B80000080FF1F344F0020CC4F0020DC4F00205E
:104B90002DE9F84FA34CDFF8E092DFF8E0A2DFF850
:104BA000E0B22578EDB215F0040F1DD09E4B1B78B6
:104BB00013F0FF0F16D09D4B1B7803F0FF022BB1B3
:104BC000531EDBB2994A137003B900BE984B1B7891
:104BD00003F0FF0233B1531EDBB2954A13700BB9D9
:104BE00000F016FD0423237015F0080F00F0E48296
:104BF00099F80030DBB21D0940F021828D4D9E08EE
:104C000005EBC6035A6855F83630C3F38303013BFE
:104C10000C2B00F21082DFE813F0CB01CB010E0267
:104C20000E020E020E020E020E02E8010E020E022B
:104C30000E020D00804913680B6052684A607F4A7B
:104C400045F8362000227E490A607A490A618A6165
:104C500001217C4A11709BB240F28162934218D8C4
:104C6000B3F5D06F2ED2B3F5817F00F01E8106D848
:104C7000802B00F0C980822B00F0CC8066E140F2EE
:104C80000232934200F02681B3F5A06F00F06281FA
:104C90005CE142F22102934200F0868107D8B3F52D
:104CA000086F00F0AB80B3F5106F11D04EE142F207
:104CB0002122934200F0418142F22132934200F0DE
:104CC000498143E1604B5D68002D40F0188130E17F
:104CD000594B9A78544B1A70564D05F180062B6A41
:104CE00013F0800F03D0686A083800F035FB0835F0
:104CF000B542F4D1DFF88C8100263746534AB058CC
:104D000028B1456800F028FB0DB12846F9E70023DB
:104D10004E4973504E4AB3504E4BF05828B1456837
:104D200000F01AFB0DB12846F9E7002349497350FA
:104D3000494AB35028F8023F484BFB5C023B032B27
:104D40000AD8DFE803F0020602060022434BDA55D8
:104D500002E00122414BDA5501370436102ECDD145
:104D600000223F4B1A7001253E4EDFF81C81314F67
:104D700005EB080313F8013C06F8043B13F0080F99
:104D80002DD000F0C9FA48B1A90007EB451200F197
:104D900008035360344A47F8312007E0AB00002293
:104DA00047F833202E4B1A7801321A7000F0B4FA0B
:104DB00058B1AB0043F0010307EBC30100F1080257
:104DC0004A601E4A47F8332009E0AB0043F0010374
:104DD000002247F83320224B1A7801321A70AA00B9
:104DE00042F00201002347F8313042F0030247F855
:104DF000323001351D4B9E42BAD11EE20A4B1B7860
:104E00001B4D2B700127AAE0194D00232B706B70EE
:104E10000227A4E0084B9B88042B37D90F22154B9F
:104E20001A70C1E08020074000500020894F002008
:104E3000025000200080FF1FEC4F0020C8004000FF
:104E4000204F002001500020ACB20000784F00201D
:104E5000244F0020CC4F0020DC4F0020344F002096
:104E6000F64F0020C420074088004000D4200740AF
:104E7000F84F0020C02007409020074094200740B2
:104E8000982007404A520020A8B20000A04A002102
:104E9000117051709F4A12F8233013F0020F5CD04A
:104EA0009B4D01232B70022759E09B4B9B8803F0FD
:104EB0007F03042B02DC984A52881AB10F22954BCB
:104EC0001A7071E0934A12F8231021F0020102F8DF
:104ED0002310B2E1904B9B8803F07F03042B02DC8C
:104EE0008D4A52881AB10F228A4B1A705CE0894AA7
:104EF00012F8231041F0020102F823109DE1864BC5
:104F00005E889F88854BA3F10C02114633F80C0C88
:104F1000B04209D133F80A0CB84205D1360A032E43
:104F20000CBF2F7817891AE00D690C330C32002D55
:104F3000EBD10F22774B1A7036E0794B1A68794B18
:104F40001A60754B9A78784B1A7076E10F22714B84
:104F50001A7029E000273D4601E002276C4D6E4B98
:104F6000DB889F4228BF1F46402F34BF3E46402665
:104F700028463146FFF728FD3544BF1B03D13F2E9D
:104F800000F2608110E0402F34BF3E4640262846A4
:104F90003146FFF719FD3544BF1B01D13F2E03D920
:104FA000624B1D60624B1F8001238AF8003042E093
:104FB000594B198842F22103994212D15D4BD81DF9
:104FC00012F8011B03F8011F8342F9D15A4B1B68E9
:104FD000862B02D10F22594B1A7000200146FFF791
:104FE000F3FC574B45F8363025E0504B1E68BEB1F8
:104FF0004F4FB7F80080B8F1400F34BF4546402509
:1050000030462946FFF7E0FCC5EB08039BB23B8026
:105010000BB9402D01D1354400E00025434B1D6004
:105020003D4B1B88B3F5A06F05D13B4B00225A7056
:105030009B788BF8003001238AF80030B9E0414EAC
:105040009F0806EBC708D8F80420A2F10800013D2C
:10505000EDB213F0080F47D000F07EF93A4B53F849
:1050600025304BB35A68384941F8252003F108022E
:10507000C8F80420354A525D032A12D8DFE802F04E
:1050800002060A0E0321314A51550AE002212F4A35
:10509000515506E005212D4A515502E004212B4AC5
:1050A000515518F0080F0CBF8822C8221B8842EA0D
:1050B000034346F837307CE0244B5B5D032B0BD871
:1050C000DFE803F0777702060022204B5A5570E0A4
:1050D00001221E4B5A556CE018F0080F0CBF02223B
:1050E00003221A4B5A5564E056F837301B0C22F84D
:1050F000083C002B55D0002322F8063C42F8043C23
:10510000134B53F825302BBB114B43F8250025E0FA
:10511000F84F0020C0200740EC4F0020B8B200003C
:105120001C4F00205C52002010500020204F002017
:10513000F44F00205352002054520020894F002089
:10514000C80040000080FF1FCC4F0020344F0020DB
:10515000784F00203F4B53F8253058603D4B43F8C3
:1051600025003D4B33F8151032F8082C0A4423F87B
:10517000152000F0D1F860B100F10803C8F8043040
:1051800018F0080F354B364A08BF134646F837303B
:105190000FE0002346F83730324B1A7801321A708C
:1051A00007E018F0080F2D4B2D4A08BF134646F8AC
:1051B000373008232370F4E415F0010F22D02A4978
:1051C00002230B700022294B1A70294B24481860C7
:1051D000284C5C6098602848D8601A619A610D205C
:1051E000264B1870FF2326480370083803701830C8
:1051F0000270244A13709F22234B1A7001230B70F4
:10520000BDE8F88F15F0800F05D00D221B4B1A70EA
:105210008022403B1A7015F0020F06D0184B1A7806
:10522000D2B21A700222083B1A7015F0100F0ED07D
:105230001022164B1A70BDE8F88F00200146FFF7C8
:10524000C3FBB1E628460021FFF7BEFBACE6BDE894
:10525000F88F00BF244F00204C520020C8004000AF
:1052600088004000F64F002094200740884F00201F
:105270000080FF1F384F00208C4F0020C0200740C7
:10528000882007408C20074084200740802007406A
:1052900008B502F019F800231B491A465A50C818DD
:1052A00042600833882BF9D1184B1A6842F48022E7
:1052B0001A60154BC3F30721154A1170C3F3074158
:1052C000143211701B0E04321370FF23343A137022
:1052D00008321370783A137001238432137000215E
:1052E0006C3211707C3A137070220A4B1A704FF4B2
:1052F0000072A3F241331A60102203F1C04303F598
:10530000C8231A7008BD00BF0080FF1F348004400E
:105310009C20074049E400E072B60D4B1A68B2FACF
:1053200082F30B2B02D962B6002070474FF0004188
:10533000D94022EA010206490A6062B6054903EB38
:10534000C303DB00C8180022CA504260704700BF88
:105350005097FF1F0092FF1F08B50F4BC31A0F4A4B
:10536000A2FB03131B090B2B14D80D4A12783AB178
:105370000C4A127812F0FF0F02D0FFF77DFB08BD38
:1053800072B6094A4FF0004121FA03F3116819433C
:10539000116062B608BD00BF0092FF1F398EE3386E
:1053A000F64F0020005000205097FF1F10B5134B00
:1053B0001B6853B9124B1B7813F0FF0F18D0032052
:1053C000FFF726FB0D4B1860A8B10C4B18684388FB
:1053D0005A1C03441C7A03889A4206D3FFF7BCFF89
:1053E0000022064B1A60204610BD4280204610BDA8
:1053F0004FF0FF3010BD4FF0FF3010BD0C500020BB
:105400000050002008B50D4B1B6883B90C4B1B786E
:1054100013F0FF0F08D00320FFF7FAFA074B1860CC
:1054200028B94FF0FF3008BD4FF0FF3008BD034BE7
:105430001B685A881344187A08BD00BF0C5000201E
:1054400000500020044B9888044B1B681BB11A883D
:105450005B88D31A184470474C5200200C5000202F
:1054600010B50B4B1B7813F0FF0F0FD0094B1868CA
:1054700020B1FFF771FF0022064B1A60032420467B
:10548000FFF7C6FA10B1FFF767FFF8E710BD00BFDE
:10549000005000200C5000202DE9F0470446012266
:1054A000374B1A700E46002964D0DFF8E080DFF831
:1054B000E0909A46334FD8F8003083BB99F800301B
:1054C00013F0FF0F06D100222D4B1A704FF0FF3062
:1054D000BDE8F08748F601450420FFF7B7FA072832
:1054E0000AD801238AF80030FFF716FFC8F8000039
:1054F000A8B900238AF80030013D01D03B7833B1D0
:105500000122204B1A704FF0FF30BDE8F08700F009
:105510009FFC99F8003013F0FF0FDDD1D3E7002393
:105520003B70D8F800104A88C2F14005AE4238BF3F
:10553000354602F108030B442A444A80761B3DB1EC
:10554000254414F8012B03F8012BAC42F9D100E0FB
:1055500025464B883F2B07D940230B800420FFF7BB
:10556000CFFA0023C8F800300522074B1A700EB19D
:105570002C46A0E70020024B1870BDE8F08700BF62
:10558000035000200850002002500020045000204A
:105590000050002000B583B002AB03F8010D18469F
:1055A0000121FFF779FF03B05DF804FB10B5144B40
:1055B0001B7813F0FF0F21D00122124B1A70124BEF
:1055C000196851B10024114B1C704B880B800420CA
:1055D000FFF796FA0C4B1C600DE0FFF79DFE0146AD
:1055E00030B10022094B1A700420FFF789FA02E05B
:1055F0000122064B1A700022024B1A7010BD00BF28
:1056000000500020035000200450002002500020D1
:1056100008B50E4B1B7813F0FF0F16D10C4B196811
:1056200041B14B880B800420FFF76AFA0022084B37
:105630001A6008BDFFF770FE014618B10420FFF79D
:105640005FFA08BD0122034B1A7008BD0350002009
:105650000450002002500020F0B4C02928BFC0210F
:1056600072B6134B1860134B00221A605A609A608E
:10567000DA601A615A61C1B113460E4C01275A090A
:1056800003F01F0607FA06F654F82250354344F893
:10569000225001338B42F2D10022134684186370EA
:1056A000013302F582728B42F8D162B6F0BC7047CA
:1056B0001C5000202450002010B472B6234B1B68ED
:1056C0008BB9224B5B6883B9204B9B687BB91F4B1E
:1056D000DB6873B91D4B1B696BB91C4B5B6963B904
:1056E00062B600202EE0194A08E0194A06E0194A7D
:1056F00004E0194A02E0194A00E0194AB3FA83F1BA
:105700004FF00040C84023EA0003136015480378B7
:105710000133DBB2037062B60C48121A9210C1EB6F
:10572000421202EB821241F67C7101EB82020E49B9
:105730000968881801248C540C4A12789A423CBF9C
:105740000A4A13705DF8044B704700BF24500020D4
:10575000285000202C5000203050002034500020D1
:1057600038500020215000201C50002018500020EC
:10577000427872B60378012B02D9013B037011E025
:105780005111094BD24302F01F024FF0004020FAA2
:1057900002F253F82100104343F82100034B1A781A
:1057A000013A1A7062B67047245000202150002040
:1057B00030B4C36883B1187A90420AD158685C7AD1
:1057C000006950F8245025B940F8241008780130B9
:1057D0000870DB68002BEED130BC7047437A8B42F7
:1057E00006D9036953F82100002243F821207047AD
:1057F0000020704738B5437A8B4218D9036953F8B3
:105800002140002243F821209CB12378012B12D99A
:10581000FFF752FF054628B10430211D4FF4807276
:10582000FEF7CCFB2378013B2370284638BD0020CF
:1058300038BD204638BD204638BD00BF4368427A97
:105840005B7A9A4210D872B60368DA680AB9D860EF
:1058500004E0D3680BB11A46FBE7D060026801236D
:1058600013724268137262B6704700BF084B1B7810
:105870005BB9D022074B1A704FF08042A3F2563327
:105880001A600120024B187070470020704700BF5B
:10589000205000205EE400E0F8B5184B1A6842F092
:1058A00080721A60164B1A6842F001021A600433C3
:1058B0001F68144B1C689CB1134D237A6BB12E6882
:1058C00023681B68204698472B689B1B1B099AB2CC
:1058D000A280E1888B4288BFE2806469002CECD111
:1058E000094B1B68DF1B3F09BBB2084A1380084AFB
:1058F0001288974284BF064A1380F8BDFCED00E091
:10590000001000E014500020041000E03C50002083
:105910002250002030B472B699B902688AB1037976
:105920000F2B0ED827490988194111F0010F08D013
:1059300003F1007303F59063B2EB431F01D162B62C
:105940003EE0204B1D882946002341FA03F212F065
:10595000010F2DD1012202FA03F42543194A1580C3
:1059600062B6DAB2027118490C6844F002040C60A5
:1059700004390C6844F002040C60822413490C6062
:105980001A310A7004310A7006390A7007310A7038
:1059900003F1007303F590635B01036000221A605A
:1059A0005A609A60DA601A615A619A61DA6107E0B6
:1059B0000133102BC9D162B6002303601023037199
:1059C00030BC70473E5000204080044000800040C2
:1059D00003790F2B10D8094A137072B6084B02795D
:1059E000012101FA02F2198821EA02021A8062B644
:1059F0001023037100230360704700BF1A8000402A
:105A00003E500020F8B506460F46144652B1002518
:105A100033681B68304617F8011B98470544013C62
:105A2000F6D100E000252846F8BD00BF00B583B0E0
:105A3000054B1B88ADF8043003685B6801A902229E
:105A4000984703B05DF804FB7CB20000F0B58BB062
:105A5000164622B903681B68C9B298472FE0012A8D
:105A600008BF0A2621B930228DF82520212417E00D
:105A700021243746B1FBF6F506FB1515EDB222469B
:105A8000092D94BF30353735EDB20DF1280E724433
:105A900002F8245CB1FBF7F111B1013CE4B2E9E793
:105AA00033B1013CE4B20AAB23442D2203F8242C89
:105AB00003685B6801A92144C4F1220298470BB036
:105AC000F0BD00BF08B50029BABF49422D2300230D
:105AD0000A22FFF7BBFF08BD10B4401A019CE41A6C
