:1000000000800020BD0100001D3D0000E13C00001B
:10001000E13C0000E13C0000E13C0000E13C00006C
:10002000E13C0000E13C0000E13C00001D3D00001F
:100030001D3D0000E13C00001D3D0000D13C0000E2
:100040001D3D00001D3D00001D3D00001D3D000048
:100050001D3D00001D3D00001D3D00001D3D000038
:100060001D3D00001D3D00001D3D00001D3D000028
:100070001D3D00001D3D00001D3D00001D3D000018
:100080001D3D00001D3D00001D3D00001D3D000008
:100090001D3D00001D3D00001D3D00001D3D0000F8
:1000A000D92C00001D3D00001D3D00001D3D00003D
:1000B0001D3D00001D3D00001D3D00001D3D0000D8
:1000C0001D3D00001D3D00001D3D00001D3D0000C8
:1000D0001D3D00001D3D00001D3D00001D3D0000B8
:1000E0001D3D00001D3D00001D3D00001D3D0000A8
:1000F0001D3D0000815C00001D3D00007D62000090
:100100001D3D00009D6700001D3D00001D3D0000DD
:100110001D3D00001D3D00001D3D00001D3D000077
:100120001D3D00001D3D00001D3D00001D3D000067
:100130001D3D00001D3D00001D3D00001D3D000057
:100140001D3D00001D3D00001D3D00001D3D000047
:100150001D3D00001D3D00001D3D00001D3D000037
:100160001D3D0000D14400001D3D00001D3D00006C
:100170001D3D00001D3D00001D3D00001D3D000017
:100180001D3D00001D3D00001D3D00001D3D000007
:100190001D3D00001D3D00001D3D00001D3D0000F7
:1001A0001D3D00001D3D00001D3D00001D3D0000E7
:1001B0001D3D00001D3D0000A1510000574B4CF2B9
:1001C000205210B51A804DF628121A8000BF00BFC9
:1001D00003F0A8FD524B4FF010621A60514A9A602A
:1001E000514ADA60A3F53043203B1A6812F480725A
:1001F00004D14E490A604FF4A8521A604C4B1A7849
:10020000110703D51A7842F008021A70494B4A4C7C
:100210004A482A221A704A4A00239918A14203D256
:10022000195899500433F8E7464B474900228B424E
:1002300002D243F8042BFAE74448454900235A58B0
:100240001A500433B3F5DE7FF9D1424B424A802184
:1002500003F8011B9342FBD1404B3C4A1A60404BD0
:100260000A221A70A3F5805324225A70A0221A7011
:100270009A799207FCD59A79D406FCD4394A9379B5
:1002800003F00C03082B374BF9D105221A714322D6
:100290005A719A799006FCD5324A9179314B4906C8
:1002A000FBD5314A4FF08171116005215160202248
:1002B0001A709A7902F00C020C2AFAD12B4B2C4AB4
:1002C0001A602C4B2C4A1A6000225A60072243F80D
:1002D000042C2A4AC3F80C2D62B603F0BBFF134B63
:1002E0001B68DA0705D5264803F016FF254B264A7A
:1002F0001A60264B1B785B0609D5224C224A2368DC
:10030000934204D11E4803F007FF0023236008F046
:1003100023FD03F00DFD05F0B3F9FEE70E200540C7
:1003200030800440823F04000100002B14D00340C1
:1003300002D0074000E00740809EFF1F74A9000024
:100340006095FF1F809EFF1F6C5D00200090FF1FC7
:100350000000000000E400E05FE400E008ED00E0E1
:1003600000500640004006404480044004800440A1
:10037000C010050014E000E03F190100000020203B
:1003800016B140581CE00340A5C3945A00F0074042
:10039000FFFFFFFFFFFFFFFFFFFFFFFFFFFFFFFF6D
:1003A000FFFFFFFFFFFFFFFFFFFFFFFFFFFFFFFF5D
:1003B000FFFFFFFFFFFFFFFFFFFFFFFFFFFFFFFF4D
:1003C000FFFFFFFFFFFFFFFFFFFFFFFFFFFFFFFF3D
:1003D000FFFFFFFFFFFFFFFFFFFFFFFFFFFFFFFF2D
:1003E000FFFFFFFFFFFFFFFFFFFFFFFFFFFFFFFF1D
:1003F000FFFFFFFFFFFFFFFFFFFFFFFFFFFFFFFF0D
:10040000FFFFFFFFFFFFFFFFFFFFFFFFFEFFFFFFFD
:1004100010B5054C237833B9044B13B10448AFF33E
:1004200000800123237010BD809EFF1F000000008C
:1004300074A9000008B5064B1BB106480649AFF386
:1004400000800648036813B1054B03B1984708BD07
:100450000000000074A90000849EFF1F809EFF1F03
:10046000000000000122014B1A707047B99EFF1F67
:100470000122014B1A707047BA9EFF1F10B5044647
:10048000034A40F81C2B01F0BBFF204610BD00BF03
:10049000F0A4000038B5064D05F595447034103DC4
:1004A000204604F097FF103CAC42F9D138BD00BFA4
:1004B000949FFF1F38B5064D05F595447034103DE7
:1004C000204604F087FF103CAC42F9D138BD00BF94
:1004D0001CFFFF1F0F4B0360417202610023037278
:1004E000C36039B11946026942F823100133427AD8
:1004F0009A42F8DC084B1A680AB9186004E053699C
:100500000BB11A46FBE75061002343618380C3802F
:10051000704700BFE8A00000205B002010B5044633
:100520000F4B03600023437203610372C3600D4BE2
:100530001A680AB9186004E053690BB11A46FBE760
:10054000546100236361A380E3802046064B40F89A
:100550001C3B01F045FF204602F038FF204610BD4D
:10056000E8A00000205B0020F0A400002DE9F04787
:10057000AEB005468846794E794FDFF80C9204A854
:100580002946002201F064FC9DF83530032B00F26F
:10059000CE8068460DF1360104F068FF68463146AA
:1005A00005F036F8002800F0C68011A8394604F09E
:1005B0005DFF684611A905F01FF8002840F0BD80D6
:1005C00015A8494604F052FF684615A905F014F82D
:1005D000D0F1010438BF002415A804F0FBFE00E0B0
:1005E000002411A804F0F6FE002C35D05D4805F07B
:1005F0003FF804465C4B1B689842C4BF5A4B1860D6
:1006000000EB8003C3EB0313DFF86CA15AF8202042
:100610001A44564800EB02100DF1360104F050FF69
:100620005AF824009DF83530012B94BF0999002118
:1006300004EB8402C2EB021213184D4A42F8231055
:100640004C4800EB0310474904F024FF4A4B53F891
:100650002420013243F824209DF83530023BDBB2E0
:10066000012B70D819A8454904F000FF684619A964
:1006700004F0C2FF002868D11DA8414904F0F6FE2D
:1006800068461DA904F0B8FFD0F1010438BF00246A
:100690001DA804F09FFE00E0002419A804F09AFEB3
:1006A000002C3AD02F480DF1360104F009FF9DF8D7
:1006B00014308DF88830069B23939DF81C308DF8FC
:1006C0009030304B2193089B2593099B26930A9BDE
:1006D00027930B9B28930C9B29939DF834308DF81E
:1006E000A8309DF835308DF8A930DDF83610DDF8EA
:1006F0003A20DDF83E30CDF8AA10CDF8AE20CDF886
:10070000B2309DF842308DF8B63021A808F10101D1
:10071000FFF72CFF21A801F073FE04A801F084FF6D
:10072000684604F057FE04A801F06AFE27E704A813
:1007300001F066FE0EE0002300E00123002B7FF4B1
:100740004FAF002450E7002300E00123002BA3D18A
:100750000024A5E72EB0BDE8F08700BF0CFEFF1F08
:10076000F4A00000A0FDFF1F2CFEFF1F1CFFFF1FB9
:10077000C0EAFF1F949FFF1F7CFEFF1FF8A0000030
:1007800000A1000068A20000F0A00000B0B584B095
:1007900000AF04460D463846144904F067FE38465B
:1007A000214604F0D9FE3846114904F0B7FE04EBA7
:1007B0008404C4EB0414254438460E4901EB0511AA
:1007C00004F0A4FEBA6802F1080323F00703ADEBBE
:1007D000030D384669460132002304F031FF3846E4
:1007E00004F0F8FD68461037BD46B0BDACA100006E
:1007F00008A100001CFFFF1F70B50D46024600282F
:10080000B8BF00F10F0222F00F063C4B1A7882F0BD
:1008100001021A703A4B18683A4B1B68C01A3A4BDF
:100820001C68A04202DC59B1044600E00125374BA8
:100830001868374B1968FFF7A9FF364B1860204638
:1008400008F030F8344908F081F808F045FA044619
:10085000022CB8BF02244FF08042304B1A60274B65
:100860001B781BBB35B12E482A4B1968324602F063
:1008700003FE03E02A48314602F0AEFDC4EBC40497
:10088000C4EB84140534274BA3FB0424E4084FF085
:10089000FF33B3FBF4F424482146002202F092FB1C
:1008A00022482146012202F08DFB22E035B120488A
:1008B000184B1968324602F0DFFD03E01C48314650
:1008C00002F08AFDC4EBC404C4EB84140534154B58
:1008D000A3FB0424E4084FF0FF33B3FBF4F4134804
:1008E0002146002202F06EFB0F482146012202F051
:1008F00069FB4FF080420F4B1A6070BDB89EFF1F1E
:10090000285A002034FEFF1F30FEFF1FB09EFF1F3D
:1009100078FEFF1FC0FEFF1FCDCCCC3D88E100E07C
:10092000289FFF1FCDCCCCCCC4FEFF1FECFEFF1FC9
:10093000CC9EFF1F08E100E008B54FF4FA7003F009
:1009400073FC024A024B1A6008BD00BF0400FA059E
:100950000CED00E010B504460620C4F3C00103F01E
:10096000EBFB0520C4F3800103F0E6FB0420C4F395
:10097000400103F0E1FB032004F0010103F0DCFB84
:1009800010BD00BF38B572B62F4B1B7F03F0FF02BE
:1009900013B100212C4B197762B6002A52D02B4B91
:1009A0001A682B4B1A6072B6274BB3F92000B3F9C3
:1009B0001E20801A47F6FF72DA834FF400421A8431
:1009C00062B607F06FFF234908F074F84FF08141D9
:1009D00007F0BCFF0446002108F06AF938B1204650
:1009E0004FF07C5107F0AAFE08F076F906E02046A9
:1009F0004FF07C5107F0A0FE08F06EF907F070FB95
:100A000002460B4600204FF0804106F041F90446B3
:100A10000D460022002307F04FFE40B12046294634
:100A200000220D4B07F010FA07F05AFE07E02046AF
:100A300029460022084B07F005FA07F051FE01385D
:100A4000FFF788FF38BD00BFC4FDFF1F285A0020F4
:100A500014FFFF1F00FF7F470000E03F08B504F0D0
:100A600007FE012814BF0020012008BD30B599B051
:100A700004460D46474904F089FD20B1284604F09C
:100A8000F7FD454B18602046444904F07FFD58B1FE
:100A90006846294604F008FD6846FFF7DFFF404B33
:100AA0001870684604F096FC20463E4904F06EFD3E
:100AB00020B1284604F0DCFD3B4B186020463B4942
:100AC00004F064FD58B104A8294604F0EDFC04A824
:100AD000FFF7C4FF364B187004A804F07BFC2046D7
:100AE000344904F053FD58B108A8294604F0DCFC51
:100AF00008A8FFF7B3FF304B187008A804F06AFC91
:100B000020462E4904F042FD58B10CA8294604F0B5
:100B1000CBFC0CA8FFF7A2FF294B18700CA804F01F
:100B200059FC2046274904F031FD58B110A8294648
:100B300004F0BAFC10A8FFF791FF234B187010A81F
:100B400004F048FC2046214904F020FD20B128464D
:100B500004F08EFD1E4B186020461E4904F016FD61
:100B600058B114A8294604F09FFC14A8FFF776FF9B
:100B7000194B187014A804F02DFC2046174904F0F6
:100B800005FD20B1284604F073FD154B186019B01F
:100B900030BD00BF0CA100007495FF1F14A1000020
:100BA0007895FF1F20A100007095FF1F2CA1000069
:100BB0006C95FF1F40A100007995FF1F50A1000018
:100BC000B0FDFF1F64A10000A09EFF1F78A10000E0
:100BD0007C95FF1F88A100008495FF1F90A1000055
:100BE0008095FF1F30B5A7B001A8002104F03EFC9E
:100BF00005A8002104F03AFC09A83649002201F0BA
:100C0000A1FA9DF84930032B59D8334D4FE009A87C
:100C100001F0BAFCC4B23D2C14D016A801A904F00E
:100C200043FC16A8214604F0ABFC014601A804F0E1
:100C300031FC16A804F0CEFB09A801F0A5FCC4B253
:100C40003D2CEAD109A801F09FFCC4B20A2C2ED099
:100C50001AA805A904F028FC1AA8214604F090FC63
:100C6000014605A804F016FC1AA804F0B3FB09A875
:100C700001F08AFCC4B20A2CEAD11EA801A904F032
:100C800013FC22A805A904F00FFC1EA822A9FFF757
:100C9000EDFE22A804F09EFB1EA804F09BFB01A819
:100CA000294604F00DFC05A8294604F009FC09A812
:100CB00001F086FB0028AAD109A801F0B5FC09A81B
:100CC00001F09EFB05A804F085FB01A804F082FB5F
:100CD00027B030BD94A10000ACA1000000B58FB0DA
:100CE00001A84C49012201F02DFA019B5B6801A883
:100CF00049490822984701A8484B196804F052FB5B
:100D000001A804F003FB019B5B6801A844490A2287
:100D1000984701A8434B197804F044FB01A804F05C
:100D2000F5FA019B5B6801A83F490A22984701A890
:100D30003E4B196804F036FB01A804F0E7FA019B6A
:100D40005B6801A83A491122984701A8394B1978E4
:100D500004F028FB01A804F0D9FA019B5B6801A804
:100D600035491022984701A8344B197804F01AFB32
:100D700001A804F0CBFA019B5B6801A8304912225C
:100D8000984701A82F4B197804F00CFB01A804F038
:100D9000BDFA019B5B6801A82B491122984701A865
:100DA0002A4B197804F0FEFA01A804F0AFFA019B6F
:100DB0005B6801A826490F22984701A8254B1968AE
:100DC00004F0F0FA01A804F0A1FA019B5B6801A805
:100DD00021490822984701A8204B197804F0E2FA2B
:100DE00001A804F093FA019B5B6801A81C49042246
:100DF000984701A81B4B196804F0D4FA01A804F025
:100E000085FA01A801F010FC01A801F0F9FA0FB071
:100E10005DF804FB94A10000A4A100007495FF1FDD
:100E2000B0A100007895FF1FBCA100007095FF1FC6
:100E3000C8A100006C95FF1FDCA100007995FF1F81
:100E4000F0A10000B0FDFF1F04A20000A09EFF1F44
:100E500018A200007C95FF1F28A200008495FF1FA8
:100E600034A200008095FF1FF0B59BB00220002146
:100E700003F094F90820002103F090F909200021E3
:100E800003F08CF91420002103F088F90B200121D4
:100E900003F084F90620012103F080F905200121E7
:100EA00003F07CF90420012103F078F903200121EB
:100EB00003F074F95E4B1868FFF74CFD5D480A219A
:100EC00004F04EF85C4B1A7842F005021A700A20C2
:100ED00001F0B2FBC8B90A260F27642510E0384696
:100EE000FFF738FD284603F09FF90020FFF732FD99
:100EF000284603F099F90134062C01DDFFF71CFDAB
:100F0000304601F099FB0028E9D04C4B4BF23332CC
:100F10009A61DA6168464A49002201F013F94948AA
:100F200001F0ECF910B1FFF75DFE01E0FFF7D6FE2E
:100F30009DF804308DF83830029B0F939DF80C30EB
:100F40008DF84030404B0D93049B1193059B1293F9
:100F5000069B1393079B1493089B15939DF82430CD
:100F60008DF858309DF825308DF859301AAB53F86C
:100F7000420D59689A68CDF85A00CDF85E10CDF848
:100F800062201B7B8DF866300DA80021FFF7EEFA7A
:100F90000DA801F035FA684601F046FB002002F08A
:100FA0006BFE2A4B1B68984205DC214B186001221E
:100FB000274B1A7003E00020014602F071FE092061
:100FC0002449032203F048F814202349032203F0A4
:100FD00043F8224B186807F065FC0146204807F0EB
:100FE00069FD0446002107F063FE38B120464FF04A
:100FF0007C5107F0A3FB07F06FFE06E020464FF0A0
:101000007C5107F099FB07F067FE164B1860164BF2
:101010001A68164B1A60002215484FF0FF31B1FBD9
:10102000F2F101F0CFFF684601F0EAF91BB0F0BD24
:10103000B09EFF1F0082FF1F4C5B002040FEFF1F81
:1010400008A1000094A1000068A200002CFEFF1F70
:101050006495FF1F65040000710400008095FF1F68
:10106000C07FA14930FEFF1F285A002034FEFF1F19
:10107000C4FEFF1F2DE9F04F85B028274FF0000870
:10108000C14644464FF0170A15261625504602F071
:101090000FFD0444304602F00BFD8144284602F067
:1010A00007FD8044013FF1D1714D85FB0436E41703
:1010B000C4EB261685FB09C44FEAE979C9EB241471
:1010C00085FB08354FEAE878C8EB2515694BD3F85E
:1010D00000B0694B1B680393684B1B68C3EB0409A2
:1010E000B9F1000FB8BFC9F10009654B1B68C3EB2C
:1010F000050ABAF1000FB8BFCAF1000A40F2FF3783
:10110000BE42B4BF30463846DFF8B881D8F8002078
:101110005C4B53F82230009320EAE07000214FF43A
:1011200080620B4604F048F9574B1968574B1A6810
:10113000D8F8003003EB8303C3EB031303EB020E79
:10114000534B53F82EE0534BA3FB0EC3C3EB0E0ED1
:1011500003EB5E0E4FEA5E2E01FB0EFE6319BB42EF
:1011600028BF3B46B3FBF1F303FB0EF390421BD0C9
:10117000CBEB060BBBF1000FB8BFCBF1000BBBF103
:10118000030F6ADD444A1060444A1178444A1170E2
:10119000384A166061E0404A1060424A1178404A7D
:1011A00011700021344A1160B9F1060F07DD3E4A83
:1011B00013603E4A11783E4A1170304A1460BAF109
:1011C000060F07DD384A13603A4B1A78384B1A700D
:1011D0002B4B1D60384801F047FE38B1364801F00E
:1011E00025FE003018BF0120314B1870334C2668A3
:1011F000334D2B68F61A082002F0C2FF236806FB65
:10120000103028602368181AB0F5C87F2CD92D4AF1
:101210001368013313602C4A1268934202DD0022E6
:10122000284B1A60274B1968164B53F821301A4A7D
:101230001268934202DC013B174A13600122184BEB
:101240001A701E4B18681E4A10601A681F4B1A60ED
:101250000020C9B202F024FD06E0039A002AB8BFBC
:101260005242032A97DC9FE705B0BDE8F08F00BF2C
:1012700067666666A89EFF1F9C9EFF1F18FFFF1FE4
:10128000AC9EFF1F7CFEFF1F7C95FF1FF0FDFF1F24
:10129000C0EAFF1F0510400078FEFF1F6C95FF1F7E
:1012A0006495FF1F7995FF1F38FEFF1FB0FDFF1FDC
:1012B000B99EFF1FA09EFF1F1CFEFF1F285A002083
:1012C0001C4A0020B09EFF1F2CFEFF1FB49EFF1F74
:1012D00010B56A4B1B681BB9694B1A68674B1A60DB
:1012E000684B9B6913B9684802F032F9674B9B69F8
:1012F00013B9674802F02CF9664B1B78002B37D1E5
:10130000654B1B78002B33D1644B1B78002B32D1FB
:10131000634B1B78002B5DD05A4B9B6993B15A4BA2
:1013200093F8583013F0FF0F0CD15E4B18685E4BEA
:101330001968FFF72BFA01465C4B186052480022EF
:1013400002F09AF8514B9B6993B1514B93F8583086
:1013500013F0FF0F0CD1534B1868534B1968FFF76C
:1013600015FA0146514B18604948002202F084F8F2
:101370004A4B1B78DBB14C4B1A684D4B1A60484BFB
:101380001B78A3B13E4B18684A4B18600121FFF748
:1013900033FA444B1868FFF7DDFA00223F4B1A700E
:1013A00001223D4B1A70444B1A68444B1A603A4B69
:1013B0001B787BB1324B18683E4B18602F4B18607E
:1013C0000022354B1A700121FFF716FA3A4B1A68C2
:1013D0003A4B1A602F4B1B78A3B1364C2068002182
:1013E000FFF70AFA254A364B196813680B44136055
:1013F00023600023274A1370274A13702E4B1A6864
:10140000304B1A602C4B1A682F4B1B68D31A2F4A8B
:1014100012689A4205D8FFF72DFE274B1A682A4B0F
:101420001A60254B1A682A4B1B68D31A294A12687E
:101430009A4203D2204B1A68254B1A601E4C216831
:101440001E4B1B68C91A0B2009298CBF00210121E2
:1014500002F072FE2268204B1B68D31A532B0CD962
:1014600022681E4B1B68D31A1D4A12689A4204D286
:101470001C4B1B780BB1FFF785FA10BDE8FDFF1F71
:1014800038FEFF1FC4FEFF1FCC9EFF1FECFEFF1F98
:10149000289FFF1FBA9EFF1FB99EFF1F6495FF1F65
:1014A0008495FF1FB09EFF1F78FEFF1FC0FEFF1F29
:1014B000F0FDFF1FF4FDFF1F285A0020A49EFF1F10
:1014C00030FEFF1F34FEFF1F3CFEFF1F8895FF1FED
:1014D000BCFEFF1F6895FF1F14FFFF1FB49EFF1F78
:1014E0007095FF1F7895FF1F2DE9F84F02F08AFBDA
:1014F000854D2846042105F12802FEF7EBFF834BBA
:101500002B604FF48033AB61EB612B626B62804CDC
:101510002046FFF703F87F4EDFF838922046314629
:101520004A4607F0FFFBDFF870B25846FEF7F6FFB9
:10153000584631464A4607F0F5FBDFF860824046E0
:10154000012108F12402FEF7C5FFDFF854A2C8F814
:1015500000A04FF0FF36C8F818606F4F38460121E1
:1015600007F12402FEF7B6FFC7F800A0BE616B4E7C
:101570003046012106F11802FEF7ACFF684B3360DC
:1015800047F6FF73F3834FF400433384DFF814A26C
:10159000504601210AF11802FEF79CFF614BCAF880
:1015A0000030504601F01EFE5F480460C0F8048021
:1015B000002404724472C46003F0C4FD5B48C0F8A8
:1015C00000B0476004724472C46003F0BBFD584829
:1015D0000560C0F804A004724472C46003F0B2FD58
:1015E0005448C0F80080456004724472C46003F03F
:1015F000A9FD514807604560047201234372C4602D
:1016000003F0A0FD4D480560466004724472C4605A
:1016100003F098FD4A4C20464A4903F027FF204634
:1016200049494A4607F07EFB484D05F5966705F5A2
:101630009F4808F1300800260BE02046314603F0B1
:1016400015FF1034AC42F8D13D4607F59667474583
:1016500003D02C4605F59665EFE700203C493D4A4E
:1016600007F060FB3C4D05F5966705F59F4808F1CE
:10167000300800260BE02046314603F0F7FE103418
:10168000AC42F8D13D4607F59667474503D02C4656
:1016900005F59665EFE72F4C00203049224607F00C
:1016A00041FB2F4D28462F4903F0E0FE28462649EE
:1016B000224607F037FB2C480821142201F0A4FB36
:1016C0002A480221142201F09FFB294B1968294A5C
:1016D00011601968284A11601968284A1160196850
:1016E000274A11601968274A11601968264A116053
:1016F0001968264A11601968254A11601A68254B35
:101700001A60BDE8F88F00BF40FEFF1FD0A40000A4
:10171000CC9EFF1F7D040000ECFEFF1FC4FDFF1FD9
:10172000B0A40000E0A40000BC9EFF1F849FFF1F28
:10173000FCFDFF1F80FDFF1FB4FDFF1F90FDFF1F7D
:101740000CFEFF1F3CA20000D55300001CFFFF1F32
:10175000B50400006095FF1F949FFF1F95040000D3
:10176000A0FDFF1F40A200001CFEFF1FB0EAFF1FEC
:10177000285A0020F8FDFF1FECFDFF1F34FEFF1F5D
:10178000BCFEFF1FA49EFF1F1C4A00203CFEFF1F43
:10179000B49EFF1F14FFFF1F289FFF1FC4FEFF1FE3
:1017A000C0A4000094EAFF1F72B60D4B4FF0FF304B
:1017B000002203F65461C3F8000283F8082283F87C
:1017C000092203F5037343F8083C8B42F3D300224C
:1017D00043F8082C024A034B1A6062B6704700BFF8
:1017E000244A0020204A002003684BB172B60368E7
:1017F00093F80822013A83F8082262B600230360B6
:10180000704700BF2DE9F84380460F4691462C4BA8
:101810001B680BB9FFF7C8FFD8F8000030B1D0F84B
:101820000032BB424AD04046FFF7DEFF72B6244B7F
:101830001868034600252E462A46D3F80012B942FE
:1018400014D119463AB1D3F80442C2F80442C3F89D
:1018500004021B4A136091F80822013281F8082221
:1018600062B6C8F800101846BDE8F88393F808423D
:10187000002C08BF1546002C08BF1E46D3F80442B2
:1018800014B11A462346D8E7B9F1000F13D096B128
:101890003DB1D6F80432C5F80432C6F80402084B4C
:1018A0001E60012386F80832C6F80072002386F80D
:1018B0000932C8F8006062B6D8F80000BDE8F883C5
:1018C000204A0020F8B50D4617463D4B1B78002BEB
:1018D00028D072B63A4B1B7813F0010F07D0394B62
:1018E0001968394A12680A4038490A601A60344B4C
:1018F0001B7813F0020F07D0354B1968324A526833
:101900000A4032494A601A602D4B1B7813F0040FCD
:1019100007D0304B19682C4A92680A402B498A60DC
:101920001A6062B62C4BDB68B3F1384F0AD02A4BF1
:101930002A4A1A604FF03842DA604FF078421A6152
:10194000274A1A6029460122FFF75CFF0446A8B126
:1019500090F8093213F0010F01D0064611E0064657
:101960002846214600F0BCF950B11FB9012384F884
:10197000093206E0052384F8093202E0002600E07F
:1019800000260F4B1B78C3B113F0010F03D00F4B90
:101990001A68144B1A600A4B1B7813F0020F03D01D
:1019A0000A4B5A68104B1A60054B1B7813F0040F52
:1019B00003D0064B9A680D4B1A603046F8BD00BF45
:1019C0009859002080E100E0805900208C590020C7
:1019D00084E100E088E100E000C0024001401F0017
:1019E00000001F8000E100E004E100E008E100E009
:1019F000F8B505460E461746414B1B78002B28D0FC
:101A000072B63F4B1B7813F0010F07D03D4B19689E
:101A10003D4A12680A403D490A601A60384B1B78FB
:101A200013F0020F07D03A4B1968374A52680A4040
:101A300036494A601A60324B1B7813F0040F07D006
:101A4000344B1968304A92680A4030498A601A60FB
:101A500062B6314BDB68B3F1384F0AD02E4B2F4AB8
:101A60001A604FF03842DA604FF078421A612C4A1F
:101A70001A60284631460022FFF7C4FE044620B112
:101A800090F8093213F0010F05D13046394600F0C5
:101A900027F9064600E00126194B1B78C3B113F065
:101AA000010F03D0194B1A681E4B1A60144B1B7898
:101AB00013F0020F03D0154B5A681B4B1A60104BE2
:101AC0001B7813F0040F03D0104B9A68174B1A6061
:101AD000A4B194F8093213F0010F0AD03846214618
:101AE0004FF4007201F03CFE2846FFF77DFE012016
:101AF000F8BD2846FFF778FE3046F8BD3046F8BD01
:101B00009859002080E100E0805900208C59002085
:101B100084E100E088E100E000C0024001401F00D5
:101B200000001F8000E100E004E100E008E100E0C7
:101B30001B4B1B68012283F800211A4B4FF0004217
:101B4000DA62020A5A631A46D36A002BFCDA154B92
:101B50009A6B4FF00042DA620A0C42F080525A63EC
:101B60001A46D36A002BFCDA0E4B9A6B4FF00042F8
:101B7000DA6289B241F0805159631A46D36A002B68
:101B8000FCDA084B9A6B4FF00042DA62C0B258633D
:101B90001A46D36A002BFCDA024B9B6B704700BFDE
:101BA0007858002000C0024030B40921094A4FF0A3
:101BB0000045FF24D5625463D36A002BFCDA906B96
:101BC00010F0800F03D04B1E13F0FF01F2D1C0B212
:101BD00030BC704700C002400D4B4FF00042DA624B
:101BE0000C4A5A631A46D36A002BFCDA084B986BEE
:101BF00000044FF00042DA62064A5A631A46D36A7A
:101C0000002BFCDA024B9B6B9BB21843704700BF62
:101C100000C00240FFFF0010084B1B68012283F840
:101C20008020074B4FF00042DA62FF225A631A46C7
:101C3000D36A002BFCDA024B9B6B7047785800206C
:101C400000C0024010B544F295000021FFF770FF7C
:101C5000FFF7AAFF0446FFF7DFFF204610BD00BFD5
:101C600010B544F687004FF4D571FFF761FFFFF719
:101C70009BFF012818BF4FF0004403D1FFF7ACFFD2
:101C80000446FFE7FFF7C8FF204610BD10B5044625
:101C900047F2FF700021FFF74BFFFFF785FFFFF7CB
:101CA000BBFF46F6FF102146FFF742FFFFF77CFF20
:101CB0000446FFF7B1FF204610BD00BF10B547F640
:101CC000FF200021FFF734FFFFF76EFF18B9FFF781
:101CD00083FF044600E00024FFF79EFF204610BD6E
:101CE00070B503460D46324A1278012A98BF430266
:101CF00045F2FF101946FFF71BFFFFF755FF18B11C
:101D0000FFF78AFF002070BD2A4A4FF00044FF20F1
:101D1000D4625063D36A002BFCDA936BDBB2FE2BE8
:101D200005D0FF2BF4D0FFF777FF002070BD05F53D
:101D3000FF76204B204A5A635A63B54213D2A81C3F
:101D400005F500751A461C4CD36A13F0F00FFBD052
:101D50005463936B190A00F8021C00F8013C02302E
:101D6000A842F1D100E02E46124AD36A13F0F00FD8
:101D7000FBD0104B9B6B1A0A327073700D4AD36AFA
:101D800013F0F00FFBD00B4B9A6B0C4A1268012139
:101D900082F880104FF00042DA62FF225A631A463E
:101DA000D36A002BFCDA034B9B6B012070BD00BF94
:101DB0007C58002000C00240FFFF0010785800202F
:101DC00010B400230361CB6943618A8A4B8B43EAD9
:101DD00002438361C361CB7A03F01003DBB2002BB3
:101DE0000CBF0023022380F825300A78202A08BF80
:101DF00000F1260308D020E014F8012F202A03D098
:101E000003F8012B8342F7D10A7A202A12D02E221E
:101E10001A700A7A5A704A7A202A02D1981C09311B
:101E200002E0D81C0A319A700A78202A1ABF431C93
:101E30000270034600221A7006E000F1270380F8C2
:101E400026200C462E30D7E75DF8044B704700BFC4
:101E50002DE9F04F87B082460D46144600F0C0FAD7
:101E6000002C40F0A38095F82530032B08D12B6976
:101E70005C0AAB69E31801936B695B0A039318E092
:101E8000022B40F093804B4B1B7803F10900012299
:101E900002FA00F00138296901404C0AE969023967
:101EA00001FA03F0444909680144214401919A4030
:101EB00003922E69C6F34316DFF800B1DFF80091F4
:101EC000CDF808A0A246002206A840F8042D0199EA
:101ED000FFF7F8FC00285BD000EB46173C4607F5FF
:101EE0000077A7EB46174FF00B08E37A0F2B29D0AA
:101EF0002378002B4FD0E52B24D02046494642467C
:101F000007F0FEF9F0B120465946424607F0F8F9CD
:101F1000C0B1DDF808A050462146FFF751FF05A8E3
:101F2000FFF762FC2B6920332B61224A12780932B9
:101F3000012101FA02F2013A1A422ED1284600F09C
:101F4000F1F92AE02B6920332B612034BC42CCD13B
:101F500005A8FFF749FC0AF1010A039B534512D873
:101F600095F82530032B1CD0284600F0DBF9C0B1D2
:101F7000EB69023B0F4A127893400F4A12689A1895
:101F800001924FF0000A05A8FFF72EFC00269AE701
:101F9000DDF808A001E0DDF808A005A8FFF724FCA3
:101FA00004E0DDF808A005A8FFF71EFC504607B0C6
:101FB000BDE8F08F885800208458002050A200000F
:101FC00044A200002DE9F04F87B0064691460B78F9
:101FD000002B00F0A3802F2B0DD1A5E011F8013FBD
:101FE000002B00F0A2802F2B0CD19EE002F8011BE9
:101FF0009A42FBD321E003AA05A820240DF1150C79
:102000000DF117052E2B0BD1824214D2134603F883
:10201000014B8342FBD1531CC3EB0C031A440AE06F
:102020007E2B08D8A3F16107FFB2192F9CBF203B7C
:10203000DBB213700132AA42D0D396F82530032BBD
:1020400005D1D6F818B073695B0A01930EE0022B34
:1020500066D1B269F261394B1B78023A02FA03FB8E
:10206000374A1268934401229A400192002100915C
:1020700001278A4639E006A840F810AD5946524675
:10208000FFF720FC044648B355464FF00B082046A6
:1020900003A9424607F034F928B948462146FFF71C
:1020A0008FFE01241DE023783FB10BB1E52B05D154
:1020B000C9F820B089F8245057468BB133692033D2
:1020C000336120340135102DE1D10BF1010B02A851
:1020D000FFF78AFB009A0132009206E0002400E03C
:1020E000002402A8FFF780FB23E0009B01998B42AC
:1020F000C1D396F82530032B14D0304600F012F9E6
:102100000446B0B1F369023B0C490A7803FA02FBBA
:102110000B4A13689B44CDF800A0E6E7002408E0D2
:10212000002406E0002404E003AA20210DF1170397
:102130005CE7204607B0BDE8F08F00BF885800205C
:102140008458002030B59BB005460C4600F048F995
:10215000684B1A798DF804209A6802921A7B8DF8E0
:102160000C20654A00921A6904925A6905929A698C
:102170000692DA6907921A6A089293F824208DF879
:10218000242093F825208DF8252053F8260F596830
:102190009A68CDF82600CDF82A10CDF82E201B7BAA
:1021A0008DF8323000E0013423782F2BFBD043BB75
:1021B0009DF804302B71029BAB609DF80C302B73A3
:1021C000049B2B61059B6B61069BAB61079BEB61DD
:1021D000089B2B629DF8243085F824309DF825302B
:1021E00085F825301AAB53F8424D58689968C5F800
:1021F0002640C5F82A00C5F82E101B7B85F8323022
:1022000071E00DA800F0ECF8684621460DAAFFF732
:10221000D9FE631C1C4613F8012B2F2A5DD0002A1F
:10222000F8D15DE09DF838302B710F9BAB609DF8C5
:1022300040302B73119B2B61129B6B61139BAB6125
:10224000149BEB61159B2B629DF8583085F8243068
:102250009DF8593085F825301AAB53F80E4D586863
:102260009968C5F82640C5F82A00C5F82E101B7BD2
:1022700085F832302DE09DF838308DF804300F9B12
:1022800002939DF840308DF80C30119B0493129B03
:102290000593139B0693149B0793159B08939DF836
:1022A00058308DF824309DF859308DF825301AAB10
:1022B00053F80E0D59689A68CDF82600CDF82A100B
:1022C000CDF82E201B7B8DF832300DA800F098F849
:1022D0006AE70DA800F094F805E00028CBD1F8E7F4
:1022E00000289FD1F5E7684600F08AF828461BB021
:1022F00030BD00BF8C58002068A2000010B58EB021
:10230000014601A80022FFF71DFF9DF82940032C7C
:102310008CBF0024012401A800F072F820460EB002
:1023200010BD00BF30B583B0044600230193174BA6
:102330001968C569164B1B78102B0AD101A801EB4F
:1023400015210122FFF7BEFAB0B1EDB230F8153019
:102350000AE001A801EBD5110122FFF7B3FA68B139
:1023600005F07F0550F82530E3610A4A1468A3425E
:102370008CBF0024012402E0002400E0002401A816
:10238000FFF732FA204603B030BD00BFC05800202E
:10239000C4580020C858002010B582B002AB03F822
:1023A000011D0268546819460122A04702B010BD01
:1023B00090F82530012B1CBF0123037100207047CA
:1023C00090F82530012B07D803694069C01A00280E
:1023D000B8BF6FF00040704700207047704700BFE3
:1023E000002202714FF47A71816002730349016027
:1023F000042180F8251080F82620704768A200008C
:10240000044A0260042280F82520002280F8262059
:10241000704700BF68A200002DE9F04F83B0064668
:10242000884690F82530012B00F2A38003694169AA
:10243000C91A8A4234BF91468946B9F1000F00F0AB
:102440009A804F4A127802F10901012000FA01F145
:1024500001390B40F1698C1E94404A4A10680444CB
:1024600004EB5324C3F30805002D3CD0002202A83E
:1024700040F8042D2146FFF725FA014610B3C5F5B3
:10248000007BCB4509D9404629444A4601F068F90A
:1024900033694B4433614D4615E0404629445A4662
:1024A00001F05EF933695B44336101A8FFF79CF9E1
:1024B0000134334B1B78012202FA03F3013B1C4227
:1024C0000BD104E0002501A8FFF78EF954E0304657
:1024D000FFF728FF08B95D464EE0CB4501D2D8444E
:1024E00003E05D4648E04FF0000BCBEB09075D468B
:1024F000CBEB080BDFF888A00BEB0508002301935A
:10250000B7F5007F0FD201A821461A46FFF7DAF986
:10251000014608B340463A4601F022F933693B448C
:1025200033614D4618E001A821464246FFF760FAA4
:1025300090B1336903F50073336105F5007501A8A7
:10254000FFF752F901349AF80030012202FA03F33E
:10255000013B1C4208D103E001A8FFF745F90BE05D
:102560003046FFF7DFFE38B1A7F50077A945C3D89D
:1025700002E0002500E00025284603B0BDE8F08F0A
:10258000885800208458002000B583B00DF1070161
:102590000122FFF741FF01280CBF9DF807004FF013
:1025A000FF3003B05DF804FB70B582B004460669E5
:1025B000C5690DF107010122FFF72EFF012803BFB6
:1025C0002661E5619DF807004FF0FF3002B070BD55
:1025D000F8B505460E4690F82530012B1DD8436905
:1025E0008B421CD3C7690F4B1B78093321FA03F4C4
:1025F000026922FA03F3E31A52BF1C468369C361DE
:1026000044B12846FFF78EFE034608B9EF6107E0A4
:10261000013CF6D12E61012302E0002300E00023FB
:102620001846F8BD88580020042380F82530002380
:1026300080F82630704700BF2DE9F04F83B07B4D06
:102640007B4B53F830302B6001247A4B1C702146B1
:1026500001F0A4FD2B6883F8804000F0FFFF764B6B
:102660001B78002B28D072B6734B1B7813F0010F28
:1026700007D0724B1968724A12680A4071490A60A1
:102680001A606D4B1B7813F0020F07D06E4B196860
:102690006B4A52680A406B494A601A60664B1B7865
:1026A00013F0040F07D0694B1968654A92680A4015
:1026B00064498A601A6062B6654BDB68B3F1384FD3
:1026C0000AD0634B634A1A604FF03842DA604FF029
:1026D00078421A61604A1A6005215D4A4FF0004451
:1026E0005E48D4625063D36A002BFCDA936B4B1EB6
:1026F00013F0FF01F5D15A4B1D684F4CDFF8709174
:10270000DFF868A1DFF844814F4F4C4EFFF79AFA8B
:10271000012856D02378B3B113F0010F03D0494BF1
:102720001A68504B1A60237813F0020F03D0454B00
:102730005B68CAF80030237813F0040F03D0414BD4
:102740009B68C9F80030464B1B685B1BFA2B00F2F4
:10275000BD81237823B372B6237813F0010F06D01E
:102760003268374B1B681340364A13603360237856
:1027700013F0020F06D03A68314B5B681340314AC0
:1027800053603B60237813F0040F08D0D8F8002082
:102790002B4B9B6813402B4A9360C8F8003062B6FD
:1027A0002B4BDB68B3F1384FB0D0294B294A1A6064
:1027B0004FF03842DA604FF078421A61264A1A60C8
:1027C000A4E7FFF74DFAB0F1004F04D10122264BE8
:1027D0001A7000254EE0B0F5D57F05D10222224BBC
:1027E0001A704FF0804545E0134B1B78002B00F02A
:1027F0006F8113F0010F03D0124B1A68194B1A6046
:102800000D4B1B7813F0020F03D00E4B5A68174B79
:102810001A60094B1B7813F0040F00F05B81094B21
:102820009A68134B1A60002459E100BF78580020C1
:102830003CA500007D5800209859002080E100E070
:10284000805900208C59002084E100E088E100E0FC
:1028500000C0024001401F0000001F80FFFF001069
:10286000285A002000E100E07C58002004E100E04C
:1028700008E100E09C4B1E689C4CDFF898A2DFF852
:1028800090B2DFF8B092DFF8B082994F2846FFF798
:10289000FDF9024600285DD02378B3B113F0010F93
:1028A00003D0944B1968944B1960237813F0020FEE
:1028B00003D0904B5B68CBF80030237813F0040F03
:1028C00003D08C4B9B68CAF80030012A00F20481C7
:1028D000854B1A68921B40F2DC539A4200F2FE804C
:1028E000237833B372B6237813F0010F06D03A6819
:1028F000824B1B6813407F4A13603B60237813F0C0
:10290000020F08D0D8F800207C4B5B681340794A4E
:102910005360C8F80030237813F0040F08D0D9F8BA
:102920000020764B9B681340724A9360C9F80030D0
:1029300062B6734BDB68B3F1384FA7D0704B714A66
:102940001A604FF03842DA604FF078421A616E4AEE
:102950001A609BE76D4B1B78022B07D1FFF7AEF98E
:10296000800F032802D10322684B1A705F4B1B783B
:10297000C3B113F0010F03D05E4B1A685E4B1A60AF
:102980005A4B1B7813F0020F03D05A4B5A68604B16
:102990001A60564B1B7813F0040F03D0554B9A68FE
:1029A0005C4B1A60002202A840F8042D1146FEF785
:1029B00089FFB0F8FE214AF655239A4277D190F864
:1029C000C231062B03D00B3BDBB2012B02D8D0F86F
:1029D000C64100E0002401A8FEF706FF01A8214639
:1029E0000022FEF76FFFB0F8FE214AF655239A4207
:1029F0005FD1B0F80B30B3F5007F5CD1037C022BC4
:102A00005BD1C589002D5AD0427BB2FA82F2C2F165
:102A10001F02414B1A70C38A03B9436AB0F81170A0
:102A200007F10F0E4FEA1E1EB0F8136006B9066AD2
:102A300061193A4C21601944394C216003EB0E0CAA
:102A40008C44384CC4F800C0741BCEEB0404A4EBD7
:102A5000430424FA02F2551C334C256040F6F4740A
:102A6000A2422ED94FF6F474A2420BD810202F4A5E
:102A700010702F4A7F0157610B449361032382F842
:102A800025300AE02022294B1A70294B00225A6176
:102A9000C26A9A61022283F82520254B9A69DA617D
:102AA00000221A6101A8FEF79FFE01240AE000241B
:102AB00008E0002406E0002404E0002402E00024F2
:102AC00000E0002401A8FEF78FFE08E0002406E0E5
:102AD000002404E0002402E0002400E0002420465A
:102AE00003B0BDE8F08F00BF285A0020985900209D
:102AF00080E100E08C59002000E100E080590020D6
:102B000000C0024001401F0000001F807C580020D0
:102B100004E100E008E100E088580020C0580020EF
:102B20008058002084580020C8580020C458002035
:102B30008C58002088E100E084E100E010B5054CED
:102B40002046FFF74DFC20460349044A06F0EAF808
:102B500010BD00BF8C580020012400006095FF1FAD
:102B6000014A024B1A60704700000238CC5800201E
:102B70000B4B1B7813B90B4B1B7873B10A4B1B78AB
:102B8000202B03D90123037100207047581C064AEB
:102B90001070064AD154012070470020704700BFD2
:102BA0003A590020FC5800203B590020D8580020FA
:102BB000704700BF024B1878024B1B78C01A704751
:102BC0003959002038590020074B1B78074A1278E2
:102BD0009A4205D9591C044A1170054AD05C7047C5
:102BE0004FF0FF30704700BF38590020395900209E
:102BF00000590020054B1B78054A12789A4286BF7F
:102C0000044AD05C4FF0FF30704700BF38590020B5
:102C1000395900200059002008B5104BDB7813F01B
:102C2000200F0CD1122001F05FFA0D4B1B689BB1F5
:102C300000210C4A11700C4A1078984708BD0B4AC5
:102C400013780133DBB21370012B02D8084B1B78C9
:102C500013B9122001F048FA08BD00BF0060064019
:102C6000D458002038590020395900202459002018
:102C7000FC58002038B514460D4B1B7813B90D4B8A
:102C80001B7893B10C4B1D78C5F12103A34202D2EE
:102C9000012202711C4609482844224600F060FDCA
:102CA0002544054B1D70204638BD002038BD00BFAF
:102CB0003A590020FC5800203B590020D8580020E9
:102CC000002202714FF47A7181600273014A02603E
:102CD000704700BF88A2000008B53D4BDB78DBB22F
:102CE00013F0100F06D01021394AD17013F0400FA5
:102CF00003D108BD13F0400F2CD013F0040F1BD0EC
:102D00000023344A1370344A1370344B1B681BB1D0
:102D10009847314B1B782BB901222F4B1A70002298
:102D20002F4B1A702A4BD0229A702D4A12781A71A2
:102D300001222C4B1A7009E00122264B1A70002246
:102D4000294B1A70224BC0229A701B790222204B09
:102D5000DA7008BD1E4A927812F0100F1CD013F0E2
:102D6000010F14D11F4B1B781B4A12789A4207D9C6
:102D7000591C1C4A11701A4AD25C154B1A7102E098
:102D80000022134B1A71D022114B9A701BE0104B8A
:102D9000C0229A701B7916E00022144B1A70122080
:102DA0001349032201F058F9094B1B79DAB20E4B93
:102DB0001B781F2B07D80749097821B1581C0A49ED
:102DC00008700C49CA540222014BDA7008BD00BFDA
:102DD00000600640D05800203B59002020590020B8
:102DE000D85800203C59002039590020245900208F
:102DF000192C00000059002008B50248FFF760FFB9
:102E000008BD00BF2859002038B504460D46426071
:102E100000238360044B1B680360084601F0B0F98F
:102E200020736573204638BD285A0020007B704708
:102E300010B50446407B01F0A3F9237B83420CD0FC
:102E4000084B1A682368D21A63689A4207D3054B65
:102E50001B6823602073012010BD002010BD0020DE
:102E600010BD00BF285A002010B50446FFF7E0FF50
:102E7000034620B10023A3600123A37311E0A268DD
:102E80006AB1094908682168411A8A4207D8064B85
:102E90001B6823600023A3600123A37301E00022C9
:102EA000A273184610BD00BF285A0020F8B5064688
:102EB000002102F017F90746B8B1031D00F582752D
:102EC000B6F91E40B6F9201033F9022B9442A8BF80
:102ED00014469142B8BF11469D42F5D8F48331841F
:102EE00001233377384602F0C7F8F8BD2DE9F04FDB
:102EF00083B0019084693CB9002102F0F3F8002806
:102F00005AD002F0B9F857E0B4F1FF3F0FD1019861
:102F1000002102F0E7F8044600284DD00198214630
:102F2000002202F0C9F8204602F0A6F844E0019819
:102F3000002102F0E3F8804600283DD0019BD3F841
:102F40001CC093F8209000231D4F9B464FF0FF3A82
:102F50004E46200EC4F30F2108EB0302B2F90450D1
:102F6000C1F5803E37F91090013037F9100001FBB0
:102F700000F109FB0E11091401FB05F1C913918041
:102F800026B1E243944506D2644407E0A44504D246
:102F9000CCEB040402E0544600E05C460233B3F597
:102FA000807FD6D1019B9C6118464146002202F0E9
:102FB00083F8404602F060F803B0BDE8F08F00BF30
:102FC000A0A2000072B6836913B90123836105E0F2
:102FD000B3F1FF3F04BF6FF001038361C16180F86B
:102FE000202062B6704700BF10B5044602F074F9A5
:102FF000204610BD08B503480349044A05F092FE77
:1030000008BD00BF40590020E92F00006095FF1F58
:1030100008B503480349044A05F084FE08BD00BF13
:1030200048590020E92F00006095FF1F2DE9F84363
:103030008146804600263746F7B94846314602F0B9
:103040005DF80746002853D0D8F81810B1F5803F36
:103050004ED0031D00F582741A6831FB02F031FB7B
:1030600012F200F30F0002F30F02C0EA024243F82B
:10307000042B9C42F0D83BE04846314602F032F83F
:103080008446A8B33B1D051DD8F8184007F5827E7D
:10309000B4F5803F16D107F10C040C3054F8082C1D
:1030A00050F8081C92FA11F244F8082C5A6850F8AB
:1030B000041C92FA11F25A600833083408309E4515
:1030C000ECD812E055F8042B34FB02F034FB12F27A
:1030D00000F30F0002F30F02C0EA0242196892FAED
:1030E00011F143F8041B9E45ECD8604601F0C4FF83
:1030F000013608F10408042E9ED13FB148463946F6
:10310000002201F0D9FF384601F0B6FFBDE8F88390
:1031100008B5002101F0E6FF0246A0B172B60A4BE5
:10312000186810B91A6062B608BD084B1B681BB955
:10313000064B1A6062B608BD03490B60034B1A6068
:1031400062B601F099FF08BD605900205059002077
:1031500038B51C4B1A68126819791B4B19701B4B38
:103160009A4206D2A3F5807404F5807304F50074C6
:1031700002E0174B03F58074164A106898B1021DDF
:1031800047F6FF7532F9021B2944091123F8021B87
:103190009C42F7D801F070FF0F4B1A680D490A6086
:1031A00000221A6005E040F2FF7223F8022B9C42D5
:1031B000FBD80A4B1B781BB14FF08042084B1A60BA
:1031C00038BD00BF545900201F800040288DFF1FCC
:1031D000288CFF1F60590020505900205C590020A6
:1031E00008E200E070B54F48012102F017F84E4B9D
:1031F0001A6842F480521A60802203F5032303F612
:10320000F5731A700024494E01253480284601F0D8
:103210000BF80834A4B223B2B3F5006FF5D1444BD8
:103220001B6813F4800F16D0424B1A6848F6A2733D
:103230001A409A420FD1404B1A6840F22F339A42FB
:1032400009D13E4B1B68012B05D13D4B1A6840F25A
:1032500001139A4217D0364B1A6842F480021A6062
:103260000122A3F59033303B1A6040F22F32083B25
:103270001A60043B48F6A3721A60324A1A6040F2A0
:10328000011210331A60274C23681A6800222E4955
:1032900019602368022119715A7101209871D8713F
:1032A00019725A729A72DA721A736FF001015973B5
:1032B0004FF0FF319973D97319691C4919611A7557
:1032C0005A75D98A4FF48071D9821A765A769A76CD
:1032D000DA76D88BD983998B06219983237903F1E8
:1032E000804303F504331A70B0221A7001F042FFD4
:1032F000164B18702279164B1A70227902F11001C0
:103300001448154B43F8210053119B0003F160430F
:1033100003F5614302F01F02012101FA02F21A6073
:1033200070BD00BF545900202C80044000C00C40E8
:103330003C80044000600340046003400C60034094
:1033400010600340A28F0100288CFF1F5C590020F1
:103350001B800040513100000090FF1F08B503485A
:103360000349044A05F0DEFC08BD00BF54590020A3
:10337000E92F00006095FF1F08B503480349044A80
:1033800005F0D0FC08BD00BF64590020E92F000003
:103390006095FF1F08B503480349044A05F0C2FCC5
:1033A00008BD00BF6C590020E92F00006095FF1F89
:1033B00008B503480349044A05F0B4FC08BD00BF42
:1033C00074590020E92F00006095FF1F002380F84A
:1033D000583043650365704738B504460D465E2096
:1033E00000F086F9124B1A8801321A8094F84130A5
:1033F000032B0BD90F4C23685B6820460E4917221C
:103400009847204601F082FF002038BD012B94BF71
:10341000236B00232365B5FBF3F104F11C0003FBD0
:103420001151FFF7D5F86565012084F8580038BDC3
:103430007C590020505B0020F8A4000008B572B64B
:1034400090F8583013F0FF0F12D0002380F8583056
:1034500062B61C30FFF7E8F8064B1B8823B1013B2E
:103460009BB2044A138023B95E2000F05BF908BDCB
:1034700062B608BD7C59002070B58EB004460E4679
:103480001546FFF7DBFF5E2000F032F92D4B1A885E
:1034900001321A8072B601A831460022FEF752FEB0
:1034A0009DF8083084F82030039B63629DF810304B
:1034B00084F82830059BE362069B2363079B6363C4
:1034C000089BA363099BE3639DF8283084F8403090
:1034D0009DF8293084F841300EAB53F80E6D5868D2
:1034E0009A68C4F84260C4F84600C4F84A201B7BBE
:1034F00084F84E3001A8FEF783FF62B694F841309D
:10350000032B0BD9104C23685B6820460F49172208
:103510009847204601F0FAFE002010E0012B94BFEE
:10352000236B00232365B5FBF3F104F11C0003FBBF
:103530001151FFF74DF86565012084F858000EB071
:1035400070BD00BF7C590020505B0020F8A4000033
:1035500072B690F8583013F0FF0F1CBF002380F8AC
:10356000583062B6704700BF2DE9F041074690F829
:10357000583013F0FF0F68D001F022FD804600287C
:1035800063D007F11C042046FEF71AFF002848D03C
:10359000204608F104014FF48072FEF73DFF054616
:1035A000B0F5807F24D92A4E33685B6830462949BC
:1035B00003229847304629460A22002301F0B6FE2E
:1035C000304601F0A3FE2046FFF72EF8224B1B8861
:1035D00023B1013B9BB2204A138013B95E2000F057
:1035E000A1F8002387F8583001233B76BDE8F0812D
:1035F0007B6D03447B6500233B7645087F2D0AD80D
:103600006E00C6F5807608EB45051C46EA189480E6
:103610000233B342FAD138464146002201F04CFD54
:1036200010E02046FFF700F80B4B1B8823B1013B4D
:103630009BB2094A138013B95E2000F073F800238F
:1036400087F85830404601F017FDBDE8F08100BF13
:10365000505B002010A500007C590020184B1A6810
:1036600042F480521A60174B174A1A60174ADA6000
:1036700002F180421A61164A1A60164B1B7813F049
:10368000010F07BF4FF41072134B4FF40072134B2E
:103690001A60104B1B7813F0020F4FF400720CBF2E
:1036A0000F4B104B1A600B4B1B7813F0040F07BF26
:1036B0004FF410720C4B4FF400720C4B1A607047B1
:1036C0003C80044000C0024001401F00011000384F
:1036D00000001F804C5B002018B0044008C004406C
:1036E0001CB004400CC0044014B0044004C00440AA
:1036F00030B45E2810D84309084A012101FA03F5C5
:1037000014782C431470064A00F01F00814052F8D0
:1037100023400C4342F8234030BC704798590020A6
:10372000805900205E2815D8430900F01F000122AF
:1037300002FA00F0084A52F8231021EA000042F889
:10374000230038B9054A012101FA03F3117821EA6F
:1037500003031370704700BF805900209859002060
:10376000844641EA000313F003036DD1403A41D38C
:1037700051F8043B40F8043B51F8043B40F8043B4B
:1037800051F8043B40F8043B51F8043B40F8043B3B
:1037900051F8043B40F8043B51F8043B40F8043B2B
:1037A00051F8043B40F8043B51F8043B40F8043B1B
:1037B00051F8043B40F8043B51F8043B40F8043B0B
:1037C00051F8043B40F8043B51F8043B40F8043BFB
:1037D00051F8043B40F8043B51F8043B40F8043BEB
:1037E00051F8043B40F8043B51F8043B40F8043BDB
:1037F000403ABDD2303211D351F8043B40F8043B7B
:1038000051F8043B40F8043B51F8043B40F8043BBA
:1038100051F8043B40F8043B103AEDD20C3205D38A
:1038200051F8043B40F8043B043AF9D2043208D082
:10383000D2071CBF11F8013B00F8013B01D30B88F4
:1038400003806046704700BF082A13D38B078DD0D2
:1038500010F003038AD0C3F10403D21ADB071CBFA4
:1038600011F8013B00F8013B80D331F8023B20F80E
:10387000023B7BE7043AD9D3013A11F8013B00F847
:10388000013BF9D20B7803704B7843708B788370CF
:103890006046704730B4394A3949136813F0800FD5
:1038A000FBD10B6813F0800FF7D172B6354B1B7844
:1038B000002B5FD0344B1C6804331D680433186838
:1038C0000433196804331A6804331B682C442044F9
:1038D00001440A441A44C2F34E0242F400422B4B04
:1038E0001A602C331C6804331D68043318680433D1
:1038F000196804331A6804331B682C4420440144BB
:103900000A441A44C2F34E0242F40042204B1A60A9
:1039100003F108131C6804331D680433186804336A
:10392000196804331A6804331B682C44204401448A
:103930000A441A44C2F34E0242F40042154B1A6084
:103940002C331C6804331D68043318680433196869
:1039500004331A6804331B682C44204401440A448D
:103960001A44C2F34E0242F400420B4B1A6000228A
:10397000044B1A7062B630BC704700BF24B00340DD
:1039800024B00B409A59002038B003402CB00340BB
:1039900030B003402CB00B4030B00B4060223A4BAB
:1039A0001A70E12201331A70384B1B78082B10D1A2
:1039B000012203F1804303F56C331A601323344969
:1039C0000B6001F5FF2101F2FC710A60314A1360BE
:1039D0001FE00A2B0DD119222F4B1A6013232C49FB
:1039E0000B6001F5FF2101F2FC710A60294A1360A6
:1039F0000FE00C2B0CBF15223D22274B1A6012231F
:103A000023490B6001F5FF2101F2FC710A60214A94
:103A10001360224B1B7833B10123214A136002F556
:103A20000022136005E000231D4A136002F5002206
:103A300013601C4B1B78012B06D880231A4A136095
:103A400002F5002213601AE0042B06D88423164ADC
:103A5000136002F50022136011E0082B06D88523BD
:103A6000114A136002F50022136008E0102B94BF86
:103A7000862387230C4A136002F50022136001227B
:103A80000A4B1A70704700BF004007408C95FF1F1B
:103A90000CB003400CB00B4008B003409D5900200F
:103AA00020B003408D95FF1F24B003409A59002099
:103AB0002DE9F8430D2813D9172802D80E38C0B2C3
:103AC0000EE0A0F11A03DBB2052B02D80938C0B210
:103AD00006E0A0F12203DBB2062B73D81838C0B27F
:103AE0003A4B1E5C3A4B1B780BB1FFF7D3FE16F036
:103AF000800F29D172B6374C374D4FF00107266041
:103B00002F7062B672B6236813F0800F04D12B7841
:103B100013F0FF0F0FD1F2E7304B186800222E4B45
:103B20001A7062B62E4B1B781841BDE8F8832B78CB
:103B300013F0FF0FE3D062B601F0D6FD72B6236832
:103B400013F0800FF3D0E7E772B606F040095FFA92
:103B500089F9244F244C06F03F06244D4FF001080C
:103B6000B9F1000F04D03B6823F010033B6003E081
:103B70003B6843F010033B60266085F8008062B626
:103B800072B6236813F0800F04D12B7813F0FF0F67
:103B90000FD1E5E7164B18680022144B1A7062B675
:103BA0000F4B1B781841BDE8F8832B7813F0FF0FFB
:103BB000D6D062B601F098FD72B6236813F0800F7C
:103BC000F3D0E7E70020BDE8F88300BF14A50000AC
:103BD0009A59002000B003409C59002010B00340C7
:103BE000995900200CB00B4000B00B409B590020AD
:103BF00010B00B40024A137813F0010FFBD070474E
:103C00000100024010B584B0174B6C461868596823
:103C10009A68DB680FC4154B1B7813F0020F19D09C
:103C20008022134B1A70332204331A700322013B93
:103C30001A7072B66B4643F001030E4C204698474B
:103C400062B6237813F0700304D0237009E0013BBF
:103C500003D106E044F6216304490A7812F0010F0B
:103C6000F5D004B010BD00BF2CA50000010002403B
:103C7000070002400000024010B50446B0F5006F96
:103C80000AD2064B1B7813F0010F01D1FFF7BAFFE0
:103C900004F1A054207810BD002010BD01000240A6
:103CA00038B504460D46B0F5006F0ED2074B1B78B1
:103CB00013F0010F01D1FFF7A5FF04F1A054237801
:103CC000AB4202D02570FFF795FF38BD01000240DE
:103CD000024B1A6801321A60704700BF285A002050
:103CE00008B50D4C236813F4802F01D000F0F0FBD1
:103CF000236813F4806F01D001F0C2FF236813F42E
:103D0000006F01D002F0BAFA236813F4805FE9D0A3
:103D100002F044FDE6E700BF3480044008B5FFF739
:103D2000DFFF00BF1022014B1A80704700200540C2
:103D3000704700BF024A1368184410601846704765
:103D40009095FF1FFEE700BFEFF31383ABB9EFF3CE
:103D50001083ABB9EFF3058323B10F2B05D9094AC3
:103D6000985C03E04FF4807000E00020EFF31183D3
:103D70003BB1834238BF184670474FF0FF30704761
:103D800000207047F0E300E010B5154B1C681C6084
:103D900014F4805F05D0134BDB6813B1114BDB6863
:103DA000984714F4005F05D00E4B1B6913B10D4BFF
:103DB0001B69984714F0200F05D00A4B1B6E13B1F6
:103DC000084B1B6E984714F0100F07D0054BD3F823
:103DD00084301BB1034BD3F88430984710BD00BF2B
:103DE000A0900440A059002010B5274B1C681C600F
:103DF00014F4803F05D0254B1B6813B1234B1B687F
:103E0000984714F4003F05D0204B5B6813B11F4B5B
:103E10005B68984714F0010F05D01C4B1B6C13B165
:103E20001A4B1B6C984714F0020F05D0174B5B6CB4
:103E300013B1164B5B6C984714F0080F05D0134B69
:103E40009B6C13B1114B9B6C984714F0040F05D079
:103E50000E4BDB6C13B10D4BDB6C984714F4002F49
:103E600005D00A4B5B6E13B1084B5B6E984714F498
:103E7000802F07D0054BD3F880301BB1034BD3F80C
:103E80008030984710BD00BFA0A00440A05900207A
:103E900010B5384B1C681C6014F0080F05D0364B69
:103EA0005B6A13B1344B5B6A984714F0100F05D06E
:103EB000314B9B6A13B1304B9B6A984714F0400F0B
:103EC00005D02D4BDB6A13B12B4BDB6A984714F0FE
:103ED000800F05D0284B1B6B13B1274B1B6B9847EA
:103EE00014F0200F05D0244B5B6B13B1224B5B6B9E
:103EF000984714F0010F05D01F4BDB6B13B11E4B1D
:103F0000DB6B984714F0020F05D01B4B9B6D13B170
:103F1000194B9B6D984714F0040F05D0164BDB6DC1
:103F200013B1154BDB6D984714F4007F05D0124B8D
:103F3000DB6E13B1104BDB6E984714F4807F05D015
:103F40000D4B1B6F13B10C4B1B6F984714F4806F14
:103F500005D0094B5B6F13B1074B5B6F984714F4A7
:103F6000006F05D0044B9B6F13B1034B9B6F9847B9
:103F700010BD00BFA0B00440A059002010B5264BD2
:103F80001C681C6014F0010F05D0244B9B6813B112
:103F9000224B9B68984714F0800F05D01F4B5B693C
:103FA00013B11E4B5B69984714F0100F05D01B4BE3
:103FB0009B6913B1194B9B69984714F0040F05D006
:103FC000164BDB6913B1154BDB69984714F0080FEA
:103FD00005D0124B1B6A13B1104B1B6A984714F0A3
:103FE000020F05D00D4B9B6B13B10C4B9B6B98478D
:103FF00014F0200F05D0094B1B6D13B1074B1B6D3F
:10400000984714F0400F05D0044B5B6D13B1034B80
:104010005B6D984710BD00BFA0C00440A0590020B0
:1040200010B50B4B1C681C6014F0020F05D0094B37
:104030009B6E13B1074B9B6E984714F0010F05D090
:10404000044BDB6F13B1034BDB6F984710BD00BF10
:10405000A0D00440A059002030B4212831D8042A2F
:104060002FD8DFE802F00709050B03000B2406E058
:104070000A2404E0082402E00C2400E00924124B86
:1040800003EBC0035A68114B114DC3F89C51114DFD
:10409000C3F8A051104DC3F8A451104DC3F8A85156
:1040A0000F4DC3F8AC5172B6136823F4702313603C
:1040B0000C4D45F8201043F0807343EA044414602B
:1040C00062B630BC704700BF3CA500000090FF1FE7
:1040D000893D0000E93D0000913E00007D3F000069
:1040E00021400000A0590020094B03EBC0035A688F
:1040F00072B6136823F0877323F4803343F0807320
:1041000013600022034B43F8202062B6704700BFC3
:104110003CA50000A0590020044B00221A6004496D
:104120000A60044A106010221A60704714D00340DD
:1041300004D0034000D0034021281ED80F4B53F871
:10414000303093F8802212F0FF0F08D019B101220D
:1041500083F880207047012283F800217047074BC5
:1041600003EBC000436821B11A6842F003021A60F1
:1041700070471A6822F002021A6070473CA50000DE
:10418000212806D8044B53F8303093F80002C0B20F
:1041900070470020704700BF3CA5000021281CD8B4
:1041A0000E4B03EBC0035B68012908D10B4A52F8A0
:1041B000302082F880124FF4A2721A607047074ACA
:1041C00052F83020002082F8800219B94FF4807232
:1041D0001A60704740F203121A6070473CA5000055
:1041E00072B60D4B1B680D4A12680D49096862B61C
:1041F00011F0806F02D0322B88BF0132C3F58C33AF
:1042000003F23F130749A1FB03031B094FF47A7024
:1042100000FB0230704700BF18E000E0285A002081
:1042200004ED00E0398EE33838B50546FFF7D8FFD6
:10423000044625B938BD013D0AD004F57A74FFF76C
:10424000CFFF001BB0F57A7FF5D201F04DFAF6E70B
:1042500038BD00BF10B5254B4FF400021A604FF077
:1042600080721A604FF000721A604FF080621A601C
:104270004FF000621A6000201D4B186048F6FF7175
:104280000433196028231B4A136008321360083274
:10429000136008321360083213600832136008326A
:1042A0001360083213600922134C226004F5805415
:1042B0000434206004342160043423600834236013
:1042C000143C226004F5FE24043420600B48016095
:1042D0000B490B6008310B600A4B1A60FFF75EFB5D
:1042E000FA20FFF7A1FF00F073FC10BD08E100E029
:1042F000048003400C8003400080034008800B4092
:104300000C800B4000800B4030B40E4B1B7843F008
:1043100002020D4C04EBC20460600C4800780028D7
:104320000CBF8824C82444EA0141074D45F83210E7
:1043300080F00100054A107083F00103014A1370F8
:1043400030BC7047945A00200080FF1F0D5B002096
:1043500010B4431E032B11D872B60A4A52F8230038
:1043600050B14268074941F82320074A32F8134008
:104370000188611A22F8131062B600E000205DF88F
:10438000044B7047845A0020545D002001380328F4
:104390000DD872B6074B53F820302BB100200130F6
:1043A0005B68002BFBD100E0002062B67047002064
:1043B000704700BFD85A002038B572B601231B4998
:1043C0001B4C5A1812F8012C12F0080F24D09A0036
:1043D00054F832506DB9164B03EBC20108304860F7
:1043E000144943F83210144B1A78013A1A7062B625
:1043F00038BD42F0010254F832506DB90C4B03EB5A
:10440000C201083048600D4943F832100A4B1A784F
:10441000013A1A7062B638BD0133052BD1D162B6AC
:104420000022054B1A7000F037FC38BD70A6000062
:104430000080FF1F88004000025B0020C800400091
:1044400010B4431E032B37D8400140F010001C4A23
:10445000104472B61B4AD25C032A09D8DFE802F086
:1044600019021B050830022216E00830042213E06E
:10447000154A52F823201AB9134A42F8231003E0D0
:10448000124A52F823205160104A42F8231062B6B3
:1044900012E0032200E005220A4CE25401F1080375
:1044A000436000F00803002B0CBF8823C8230A8850
:1044B00043EA0243036062B65DF8044B704700BFF5
:1044C0000080FF1F405A0020D85A0020E85A0020E0
:1044D0002DE9F84FA34CDFF8E092DFF8E0A2DFF817
:1044E000E0B22578EDB215F0040F1DD09E4B1B787D
:1044F00013F0FF0F16D09D4B1B7803F0FF022BB17A
:10450000531EDBB2994A137003B900BE984B1B7857
:1045100003F0FF0233B1531EDBB2954A13700BB99F
:1045200000F0FAFC0423237015F0080F00F0E48279
:1045300099F80030DBB21D0940F021828D4D9E08B4
:1045400005EBC6035A6855F83630C3F38303013BC5
:104550000C2B00F21082DFE813F0CB01CB010E022E
:104560000E020E020E020E020E02E8010E020E02F2
:104570000E020D00804913680B6052684A607F4A42
:1045800045F8362000227E490A607A490A618A612C
:1045900001217C4A11709BB240F28162934218D88B
:1045A000B3F5D06F2ED2B3F5817F00F01E8106D80F
:1045B000802B00F0C980822B00F0CC8066E140F2B5
:1045C0000232934200F02681B3F5A06F00F06281C1
:1045D0005CE142F22102934200F0868107D8B3F5F4
:1045E000086F00F0AB80B3F5106F11D04EE142F2CE
:1045F0002122934200F0418142F22132934200F0A5
:10460000498143E1604B5D68002D40F0188130E145
:10461000594B9A78544B1A70564D05F180062B6A07
:1046200013F0800F03D0686A083800F035FB0835B6
:10463000B542F4D1DFF88C8100263746534AB05892
:1046400028B1456800F028FB0DB12846F9E70023A2
:104650004E4973504E4AB3504E4BF05828B14568FE
:1046600000F01AFB0DB12846F9E7002349497350C1
:10467000494AB35028F8023F484BFB5C023B032BEE
:104680000AD8DFE803F0020602060022434BDA559F
:1046900002E00122414BDA5501370436102ECDD10C
:1046A00000223F4B1A7001253E4EDFF81C81314F2E
:1046B00005EB080313F8013C06F8043B13F0080F60
:1046C0002DD000F0C9FA48B1A90007EB451200F15E
:1046D00008035360344A47F8312007E0AB0000225A
:1046E00047F833202E4B1A7801321A7000F0B4FAD2
:1046F00058B1AB0043F0010307EBC30100F108021E
:104700004A601E4A47F8332009E0AB0043F001033A
:10471000002247F83320224B1A7801321A70AA007F
:1047200042F00201002347F8313042F0030247F81B
:10473000323001351D4B9E42BAD11EE20A4B1B7826
:104740001B4D2B700127AAE0194D00232B706B70B5
:104750000227A4E0084B9B88042B37D90F22154B66
:104760001A70C1E0802007400C5B0020955A0020A1
:104770000E5B00200080FF1FF85A0020C800400098
:104780002C5A00200D5B002074A60000845A0020E3
:10479000305A0020D85A0020E85A0020405A002001
:1047A000025B0020C420074088004000D42007405E
:1047B000045B0020C0200740902007409420074061
:1047C00098200740525D002070A60000A04A0021FA
:1047D000117051709F4A12F8233013F0020F5CD011
:1047E0009B4D01232B70022759E09B4B9B8803F0C4
:1047F0007F03042B02DC984A52881AB10F22954B92
:104800001A7071E0934A12F8231021F0020102F8A5
:104810002310B2E1904B9B8803F07F03042B02DC52
:104820008D4A52881AB10F228A4B1A705CE0894A6D
:1048300012F8231041F0020102F823109DE1864B8B
:104840005E889F88854BA3F10C02114633F80C0C4F
:10485000B04209D133F80A0CB84205D1360A032E0A
:104860000CBF2F7817891AE00D690C330C32002D1C
:10487000EBD10F22774B1A7036E0794B1A68794BDF
:104880001A60754B9A78784B1A7076E10F22714B4B
:104890001A7029E000273D4601E002276C4D6E4B5F
:1048A000DB889F4228BF1F46402F34BF3E4640262C
:1048B00028463146FFF728FD3544BF1B03D13F2E64
:1048C00000F2608110E0402F34BF3E46402628466B
:1048D0003146FFF719FD3544BF1B01D13F2E03D9E7
:1048E000624B1D60624B1F8001238AF8003042E05A
:1048F000594B198842F22103994212D15D4BD81DC0
:1049000012F8011B03F8011F8342F9D15A4B1B68AF
:10491000862B02D10F22594B1A7000200146FFF757
:10492000F3FC574B45F8363025E0504B1E68BEB1BE
:104930004F4FB7F80080B8F1400F34BF45464025CF
:1049400030462946FFF7E0FCC5EB08039BB23B80ED
:104950000BB9402D01D1354400E00025434B1D60CB
:104960003D4B1B88B3F5A06F05D13B4B00225A701D
:104970009B788BF8003001238AF80030B9E0414E73
:104980009F0806EBC708D8F80420A2F10800013DF3
:10499000EDB213F0080F47D000F07EF93A4B53F810
:1049A00025304BB35A68384941F8252003F10802F5
:1049B000C8F80420354A525D032A12D8DFE802F015
:1049C00002060A0E0321314A51550AE002212F4AFC
:1049D000515506E005212D4A515502E004212B4A8C
:1049E000515518F0080F0CBF8822C8221B8842EAD4
:1049F000034346F837307CE0244B5B5D032B0BD838
:104A0000DFE803F0777702060022204B5A5570E06A
:104A100001221E4B5A556CE018F0080F0CBF022201
:104A200003221A4B5A5564E056F837301B0C22F813
:104A3000083C002B55D0002322F8063C42F8043CE9
:104A4000134B53F825302BBB114B43F8250025E0C1
:104A5000045B0020C0200740F85A002080A6000018
:104A6000285A0020645D00201C5B00202C5A002086
:104A7000005B00205B5D00205C5D0020955A0020FB
:104A8000C80040000080FF1FD85A0020405A002074
:104A9000845A00203F4B53F8253058603D4B43F873
:104AA00025003D4B33F8151032F8082C0A4423F842
:104AB000152000F0D1F860B100F10803C8F8043007
:104AC00018F0080F354B364A08BF134646F8373002
:104AD0000FE0002346F83730324B1A7801321A7053
:104AE00007E018F0080F2D4B2D4A08BF134646F873
:104AF000373008232370F4E415F0010F22D02A493F
:104B000002230B700022294B1A70294B244818608D
:104B1000284C5C6098602848D8601A619A610D2022
:104B2000264B1870FF23264803700838037018308E
:104B30000270244A13709F22234B1A7001230B70BA
:104B4000BDE8F88F15F0800F05D00D221B4B1A70B1
:104B50008022403B1A7015F0020F06D0184B1A78CD
:104B6000D2B21A700222083B1A7015F0100F0ED044
:104B70001022164B1A70BDE8F88F00200146FFF78F
:104B8000C3FBB1E628460021FFF7BEFBACE6BDE85B
:104B9000F88F00BF305A0020545D0020C80040004C
:104BA00088004000025B002094200740945A0020B7
:104BB0000080FF1F445A0020985A0020C020074060
:104BC000882007408C200740842007408020074031
:104BD00008B501F057FE00231B491A465A50C81861
:104BE00042600833882BF9D1184B1A6842F48022AE
:104BF0001A60154BC3F30721154A1170C3F307411F
:104C0000143211701B0E04321370FF23343A1370E8
:104C100008321370783A1370012384321370002124
:104C20006C3211707C3A137070220A4B1A704FF478
:104C30000072A3F241331A60102203F1C04303F55E
:104C4000C8231A7008BD00BF0080FF1F34800440D5
:104C50009C20074049E400E072B60D4B1A68B2FA96
:104C600082F30B2B02D962B6002070474FF000414F
:104C7000D94022EA010206490A6062B6054903EBFF
:104C8000C303DB00C8180022CA504260704700BF4F
:104C90009495FF1F0092FF1F08B50F4BC31A0F4AD0
:104CA000A2FB03131B090B2B14D80D4A12783AB13F
:104CB0000C4A127812F0FF0F02D0FFF77DFB08BDFF
:104CC00072B6094A4FF0004121FA03F31168194303
:104CD000116062B608BD00BF0092FF1F398EE33835
:104CE000025B00200C5B00209495FF1F10B5134B56
:104CF0001B6853B9124B1B7813F0FF0F18D0032019
:104D0000FFF726FB0D4B1860A8B10C4B18684388C1
:104D10005A1C03441C7A03889A4206D3FFF7BCFF4F
:104D20000022064B1A60204610BD4280204610BD6E
:104D30004FF0FF3010BD4FF0FF3010BD185B00206A
:104D40000C5B002008B50D4B1B6883B90C4B1B781E
:104D500013F0FF0F08D00320FFF7FAFA074B186093
:104D600028B94FF0FF3008BD4FF0FF3008BD034BAE
:104D70001B685A881344187A08BD00BF185B0020CE
:104D80000C5B0020044B9888044B1B681BB11A88ED
:104D90005B88D31A18447047545D0020185B0020CC
:104DA0002DE9F04704460122374B1A700E460029C0
:104DB00064D0DFF8E080DFF8E0909A46334FD8F80F
:104DC000003083BB99F8003013F0FF0F06D10022AA
:104DD0002D4B1A704FF0FF30BDE8F08748F60145C3
:104DE0000420FFF7D3FA07280AD801238AF80030F5
:104DF000FFF732FFC8F80000A8B900238AF8003096
:104E0000013D01D03B7833B10122204B1A704FF0A5
:104E1000FF30BDE8F08700F067FC99F8003013F030
:104E2000FF0FDDD1D3E700233B70D8F800104A888C
:104E3000C2F14005AE4238BF354602F108030B44CB
:104E40002A444A80761B3DB1254414F8012B03F80F
:104E5000012BAC42F9D100E025464B883F2B07D906
:104E600040230B800420FFF7EBFA0023C8F8003042
:104E70000522074B1A700EB12C46A0E70020024B0A
:104E80001870BDE8F08700BF0F5B0020145B0020A6
:104E90000E5B0020105B00200C5B002000B583B08F
:104EA00002AB03F8010D18460121FFF779FF03B0AB
:104EB0005DF804FB10B5144B1B7813F0FF0F21D0E5
:104EC0000122124B1A70124B196851B10024114B78
:104ED0001C704B880B800420FFF7B2FA0C4B1C604F
:104EE0000DE0FFF7B9FE014630B10022094B1A7000
:104EF0000420FFF7A5FA02E00122064B1A700022F7
:104F0000024B1A7010BD00BF0C5B00200F5B00202D
:104F1000105B00200E5B002008B50E4B1B7813F0D1
:104F2000FF0F16D10C4B196841B14B880B80042040
:104F3000FFF786FA0022084B1A6008BDFFF78CFEC7
:104F4000014618B10420FFF77BFA08BD0122034B8C
:104F50001A7008BD0F5B0020105B00200E5B002064
:104F6000F0B4C02928BFC02172B6134B1860134B90
:104F700000221A605A609A60DA601A615A61C1B1FF
:104F800013460E4C01275A0903F01F0607FA06F6CE
:104F900054F82250354344F8225001338B42F2D169
:104FA0000022134684186370013302F582728B422B
:104FB000F8D162B6F0BC7047285B0020305B00205F
:104FC00010B472B6234B1B688BB9224B5B6883B954
:104FD000204B9B687BB91F4BDB6873B91D4B1B696A
:104FE0006BB91C4B5B6963B962B600202EE0194AAD
:104FF00008E0194A06E0194A04E0194A02E0194A91
:1050000000E0194AB3FA83F14FF00040C84023EAA8
:1050100000031360154803780133DBB2037062B6F6
:105020000C48121A9210C1EB421202EB821241F6A6
:105030007C7101EB82020E490968881801248C54A6
:105040000C4A12789A423CBF0A4A13705DF8044B2E
:10505000704700BF305B0020345B0020385B0020CD
:105060003C5B0020405B0020445B00202D5B002067
:10507000285B0020245B0020427872B60378012B65
:1050800002D9013B037011E05111094BD24302F0E8
:105090001F024FF0004020FA02F253F821001043A3
:1050A00043F82100034B1A78013A1A7062B6704730
:1050B000305B00202D5B002030B4C36883B1187AC8
:1050C00090420AD158685C7A006950F8245025B99A
:1050D00040F82410087801300870DB68002BEED10E
:1050E00030BC7047437A8B4206D9036953F82100DC
:1050F000002243F8212070470020704738B5437ADA
:105100008B4218D9036953F82140002243F821202B
:105110009CB12378012B12D9FFF752FF054628B125
:105120000430211D4FF48072FEF71AFB2378013BF7
:105130002370284638BD002038BD204638BD2046A3
:1051400038BD00BF4368427A5B7A9A4210D872B683
:105150000368DA680AB9D86004E0D3680BB11A466C
:10516000FBE7D0600268012313724268137262B6D3
:10517000704700BF084B1B785BB9D022074B1A70F1
:105180004FF08042A3F256331A600120024B187090
:1051900070470020704700BF2C5B00205EE400E0F9
:1051A000F8B5184B1A6842F080721A60164B1A68EC
:1051B00042F001021A6004331F68144B1C689CB152
:1051C000134D237A6BB12E6823681B6820469847DD
:1051D0002B689B1B1B099AB2A280E1888B4288BF77
:1051E000E2806469002CECD1094B1B68DF1B3F098E
:1051F000BBB2084A1380084A1288974284BF064A05
:105200001380F8BDFCED00E0001000E0205B002002
:10521000041000E0485B00202E5B002030B472B622
:1052200099B902688AB103790F2B0ED827490988EA
:10523000194111F0010F08D003F1007303F59063D9
:10524000B2EB431F01D162B63EE0204B1D882946D8
:10525000002341FA03F212F0010F2DD1012202FACC
:1052600003F42543194A158062B6DAB2027118496F
:105270000C6844F002040C6004390C6844F0020429
:105280000C60822413490C601A310A7004310A70D0
:1052900006390A7007310A7003F1007303F5906351
:1052A0005B01036000221A605A609A60DA601A613A
:1052B0005A619A61DA6107E00133102BC9D162B6F5
:1052C000002303601023037130BC70474A5B002049
:1052D000408004400080004003790F2B10D8094A19
:1052E000137072B6084B0279012101FA02F2198893
:1052F00021EA02021A8062B61023037100230360C0
:10530000704700BF1A8000404A5B002000B583B0A0
:10531000054B1B88ADF8043003685B6801A90222C5
:10532000984703B05DF804FB4CA60000F0B58BB0C5
:10533000164622B903681B68C9B298472FE0012AB4
:1053400008BF0A2621B930228DF82520212417E034
:1053500021243746B1FBF6F506FB1515EDB22246C2
:10536000092D94BF30353735EDB20DF1280E72445A
:1053700002F8245CB1FBF7F111B1013CE4B2E9E7BA
:1053800033B1013CE4B20AAB23442D2203F8242CB0
:1053900003685B6801A92144C4F1220298470BB05D
:1053A000F0BD00BF08B50029BABF49422D23002334
:1053B0000A22FFF7BBFF08BD10B4401A019CE41A93
:1053C00004FB00F4521A94FBF2F018445DF8044B0D
:1053D000704700BF10B50446006803F0EDFC20469E
:1053E00010BD00BF38B504460D460068013104F019
:1053F0001FF818B120606560012038BD002038BD5D
:1054000010B5044643688B420AD2FFF7EBFF034610
:1054100048B1A36833B9236800221A70012302E05F
:10542000012300E00123184610BD00BF70B50446FB
:105430000E4615462AB9036803B11A700023A3600B
:1054400012E01146FFF7DCFF48B9206818B103F0FD
:10545000B3FC0023236000236360A36004E0A56025
:105460002068314604F0F2FA204670BD38B5044693
:10547000002303604360836003730D4639B108461F
:1054800004F042FB024620462946FFF7CFFF2046A4
:1054900038BD00BF08B50B46884203D009689A683A
:1054A000FFF7C4FF08BD00BF10B50446002303602A
:1054B000436083600373FFF7EDFF204610BD00BF1C
:1054C00038B504460D4641B1084604F01DFB0246BE
:1054D00020462946FFF7AAFF01E00023836020460B
:1054E00038BD00BF70B504460D4683685AB1D61862
:1054F0003146FFF785FF30B12068A368184429467C
:1055000004F0A4FAA660204670BD00BF08B50B46A3
:1055100009689A68FFF7E6FF08BD00BF38B5044682
:105520000D4639B1084604F0EFFA024620462946F6
:10553000FFF7D8FF204638BD10B582B004468DF87D
:10554000041000238DF8053001A90122FFF7CAFFDE
:10555000204602B010BD00BF10B584B00446084616
:1055600001A90A2200F004F901A804F0CDFA0246CC
:10557000204601A9FFF7B6FF204604B010BD00BFCA
:1055800010B50446FFF7D8FF204610BD08B5836864
:1055900043B929B10878D0F1010038BF002008BD17
:1055A000012008BD31B903681878D0F1010038BF77
:1055B000002008BD006804F03BF9D0F1010038BFBD
:1055C000002008BD10B58B688468E41A94420CD39F
:1055D000006860B1096861B110441A4604F0C4FA69
:1055E000D0F1010038BF002010BD002010BD002008
:1055F00010BD002010BD00BF08B582688B689A42BC
:1056000003D30022FFF7DEFF08BD002008BD00BF66
:1056100008B582688B689A420CD3006860B109684B
:1056200061B1D31A184404F003F9D0F1010038BF76
:10563000002008BD002008BD002008BD002008BDD6
:1056400038B50C469AB191B18168994202D80023CD
:10565000237038BD551EC91A8D4228BF0D460168FA
:10566000204619442A4604F0D9FA0023635538BD70
:1056700008B5006810B103F05BFB08BD002008BD51
:1056800008B5FBF7F1FBFBF723FE00F02DF8FAE776
:1056900008B5FFF777FB08BD08B5FFF727FB08BD86
:1056A00008B5FFF74FFB08BD08B5FFF703FC08BDC1
:1056B00008B50846FFF7F2FB08BD00BF08B508466D
:1056C0001146FFF76DFB08BD704700BF044B002279
:1056D0001A714FF47A7199601A73024A1A6070470E
:1056E000505B002058A6000008B50F4B1B78CBB9C3
:1056F00001220D4B1A70FFF745FB08B1FFF7E4FFDD
:1057000000F034FA08B101F087F900F02DFD08B17E
:1057100001F018FA00F0CCFF08B101F0A9FA00225C
:10572000014B1A7008BD00BF605B002030B400233D
:10573000B0FBF2F402FB14041D46092C94BF303474
:105740003734E4B2CC54B0FBF2F008B10133EFE7E8
:105750000D4400226A70934207DD885CCC5C8C5457
:10576000C8540132013B9A42F7DB084630BC70470F
:1057700010B50C46002802DBFFF7D8FF10BD2D2323
:1057800001F8013B4042FFF7D1FF204610BD00BFAA
:10579000194B1A6842F480621A600023174A13708A
:1057A000174A1370174A1370174A1370174A137069
:1057B00040F21332164B1A604FF4517204331A60E0
:1057C000C0F34432134B1A70C0F347125A7000F002
:1057D0001F00987204229A700221D9745A75882287
:1057E0001A743C22DA7040220B4B1A704FF40052AC
:1057F000A3F229331A60704734800440EC5B002028
:10580000695B0020F45B0020ED5B0020685B0020FA
:1058100040A0044000A006402DE400E0164B9B7819
:1058200003F0EC0300F00302134310F0040F18BF61
:1058300043F01003104A937000F00F03042B04D1BF
:105840001346927942F040029A710B4B5A7902F05A
:10585000EF0210F0100F18BF42F01002064B5A7101
:105860009B7903F0EF0310F0200F18BF43F01003F3
:10587000014A9371704700BF00A0064010B5144B59
:105880001B6813F4806F21D0124B1B7813F0FF0FAD
:1058900006D0104CFFF728FF237813F0FF0FF9D143
:1058A0004FF400520C4B1A6000230C4AD37040F2A4
:1058B00003120B490A6004310A600A4A13700A4A4B
:1058C00013700A4B1B680BB101221A7010BD00BF88
:1058D00034800440685B002084E100E000A00640C2
:1058E00040A00440EC5B0020695B0020645B00206A
:1058F00010B50446094A137813F0FF0FFBD1204678
:105900000121FEF74BFC20460021FEF715FC044B5D
:1059100053F83420034B1A6010BD00BF685B0020B1
:105920003CA50000F05B002010B50D4B1B6813F484
:10593000806F12D021280CD80A4C0B4B53F8303012
:1059400023600121FEF72AFC236800221A7001203F
:1059500010BD0020034B186010BD002010BD00BF1B
:1059600034800440645B00203CA50000114B1B68A0
:1059700013F4806F1BD0122804D140F202320E4B78
:105980001A600DE0142804D140F202320B4B1A6069
:1059900006E00B4B5A7B02F0FE025A730020704760
:1059A000074B5A7B42F001025A73012070470020D6
:1059B000704700BF348004400CA0044014C0044071
:1059C00000A006402DE9F04107461F4B1B6813F469
:1059D000806F37D01D4B1B680BB101221A701C4B16
:1059E0001C780134402C28BF00241A4D1A4EDFF8D1
:1059F0006C8017E0FEF7A8F940280FDC337913F02C
:105A0000800F0FD02B780133402B28BF002318F8CC
:105A10000320D2B2F271DBB22B7003E0FF2801DD6C
:105A2000FFF762FE2B78DBB29C42E3D0FFB20B4B58
:105A30001F5501220A4B1A70E4B2054B1C70BC22A0
:105A4000054BDA70BDE8F08134800440F05B002043
:105A5000F45B0020ED5B002000A006406C5B0020A2
:105A6000685B00202DE9F84F0746284B1B6813F4AC
:105A7000806F49D0264B1B680BB101221A7007EBCF
:105A8000010B5F453DD2DFF89890224EDFF88C8005
:105A9000DFF890A099F800400134402C28BF002482
:105AA0003578EDB2A54220D1BC2388F80330FEF74B
:105AB0004BF9402811DC98F8043013F0800F10D017
:105AC00033780133402B28BF00231AF80320D2B2C9
:105AD00088F80720DBB2337003E0FF2801DDFFF711
