:1000000000800020BD010000E53D0000A93D00008A
:10001000A93D0000A93D0000A93D0000A93D000048
:10002000A93D0000A93D0000A93D0000E53D0000FC
:10003000E53D0000A93D0000E53D0000993D0000C0
:10004000E53D0000E53D0000E53D0000E53D000028
:10005000E53D0000E53D0000E53D0000E53D000018
:10006000E53D0000E53D0000E53D0000E53D000008
:10007000E53D0000E53D0000E53D0000E53D0000F8
:10008000E53D0000E53D0000E53D0000E53D0000E8
:10009000E53D0000E53D0000E53D0000E53D0000D8
:1000A000F9360000E53D0000E53D0000E53D0000BB
:1000B000E53D0000E53D0000E53D0000E53D0000B8
:1000C000E53D0000E53D0000E53D0000E53D0000A8
:1000D000E53D0000E53D0000E53D0000E53D000098
:1000E000E53D0000E53D0000E53D0000E53D000088
:1000F000E53D0000455D0000E53D00004163000076
:10010000E53D000061680000E53D0000E53D0000C0
:10011000E53D0000E53D0000E53D0000E53D000057
:10012000E53D0000E53D0000E53D0000E53D000047
:10013000E53D0000E53D0000E53D0000E53D000037
:10014000E53D0000E53D0000E53D0000E53D000027
:10015000E53D0000E53D0000E53D0000E53D000017
:10016000E53D000095450000E53D0000E53D00004F
:10017000E53D0000E53D0000E53D0000E53D0000F7
:10018000E53D0000E53D0000E53D0000E53D0000E7
:10019000E53D0000E53D0000E53D0000E53D0000D7
:1001A000E53D0000E53D0000E53D0000E53D0000C7
:1001B000E53D0000E53D000065520000574B4CF264
:1001C000205210B51A804DF628121A8000BF00BFC9
:1001D00003F00CFE524B4FF010621A60514A9A60C5
:1001E000514ADA60A3F53043203B1A6812F480725A
:1001F00004D14E490A604FF4A8521A604C4B1A7849
:10020000110703D51A7842F008021A70494B4A4C7C
:100210004A482A221A704A4A00239918A14203D256
:10022000195899500433F8E7464B474900228B424E
:1002300002D243F8042BFAE74448454900235A58B0
:100240001A500433B3F5DE7FF9D1424B424A802184
:1002500003F8011B9342FBD1404B3C4A1A60404BD0
:100260000A221A70A3F5805324225A70A0221A7011
:100270009A799207FCD59A79D406FCD4394A9379B5
:1002800003F00C03082B374BF9D103221A714022DB
:100290005A719A799006FCD5324A9179314B4906C8
:1002A000FBD5314A314911600221516020221A7078
:1002B0009A7902F00C020C2AFAD12D4B2D4A1A60C1
:1002C0002D4B2E4A1A6000225A60072243F8042C54
:1002D0002B4AC3F80C2D62B604F01EF8134B1B68B2
:1002E000DA0705D5274803F07BFF274B274A1A601A
:1002F000274B1B785B0609D5234C244A236893427D
:1003000004D1204803F06CFF0023236008F088FD2F
:1003100003F072FD05F016FAFEE700BF0E2005405F
:1003200030800440823F04000100002B14D00340C1
:1003300002D0074000E00740889AFF1FA4AA0000EF
:100340006091FF1F889AFF1FE4590020008CFF1F57
:100350000000000000E400E05FE400E008ED00E0E1
:100360000050064000400640448004400000030165
:1003700004800440C010050014E000E0FF76010096
:10038000000020200AE102571CE00340A5C3945A54
:1003900000F00740FFFFFFFFFFFFFFFFFFFFFFFF32
:1003A000FFFFFFFFFFFFFFFFFFFFFFFFFFFFFFFF5D
:1003B000FFFFFFFFFFFFFFFFFFFFFFFFFFFFFFFF4D
:1003C000FFFFFFFFFFFFFFFFFFFFFFFFFFFFFFFF3D
:1003D000FFFFFFFFFFFFFFFFFFFFFFFFFFFFFFFF2D
:1003E000FFFFFFFFFFFFFFFFFFFFFFFFFFFFFFFF1D
:1003F000FFFFFFFFFFFFFFFFFFFFFFFFFFFFFFFF0D
:10040000FFFFFFFFFFFFFFFFFFFFFFFFFEFFFFFFFD
:1004100010B5054C237833B9044B13B10448AFF33E
:1004200000800123237010BD889AFF1F0000000088
:10043000A4AA000008B5064B1BB106480649AFF355
:1004400000800648036813B1054B03B1984708BD07
:1004500000000000A4AA00008C9AFF1F889AFF1FCA
:10046000000000000122014B1A707047AC9BFF1F77
:100470000122014B1A707047AD9BFF1F10B5044657
:10048000034A40F81C2B02F0CBFC204610BD00BFF5
:10049000C0A5000038B5064D05F595447034103DF3
:1004A000204604F0F9FF103CAC42F9D138BD00BF42
:1004B00040B0FF1F38B5064D05F595447034103D2A
:1004C000204604F0E9FF103CAC42F9D138BD00BF32
:1004D00094FBFF1F0F4B0360417202610023037204
:1004E000C36039B11946026942F823100133427AD8
:1004F0009A42F8DC084B1A680AB9186004E053699C
:100500000BB11A46FBE75061002343618380C3802F
:10051000704700BFB0A100009857002010B50446F6
:100520000F4B03600023437203610372C3600D4BE2
:100530001A680AB9186004E053690BB11A46FBE760
:10054000546100236361A380E3802046064B40F89A
:100550001C3B02F055FC204601F0A8FC204610BDD3
:10056000B0A1000098570020C0A500002DE9F04779
:10057000AEB005468846794E794FDFF80C9204A854
:100580002946002202F074F99DF83530032B00F261
:10059000CE8068460DF1360104F0CAFF6846314648
:1005A00005F098F8002800F0C68011A8394604F03C
:1005B000BFFF684611A905F081F8002840F0BD8012
:1005C00015A8494604F0B4FF684615A905F076F869
:1005D000D0F1010438BF002415A804F05DFF00E04D
:1005E000002411A804F058FF002C35D05D4805F018
:1005F000A1F804465C4B1B689842C4BF5A4B186074
:1006000000EB8003C3EB0313DFF86CA15AF8202042
:100610001A44564800EB02100DF1360104F0B2FF07
:100620005AF824009DF83530012B94BF0999002118
:1006300004EB8402C2EB021213184D4A42F8231055
:100640004C4800EB0310474904F086FF4A4B53F82F
:100650002420013243F824209DF83530023BDBB2E0
:10066000012B70D819A8454904F062FF684619A902
:1006700005F024F8002868D11DA8414904F058FF6E
:1006800068461DA905F01AF8D0F1010438BF00240E
:100690001DA804F001FF00E0002419A804F0FCFEEE
:1006A000002C3AD02F480DF1360104F06BFF9DF875
:1006B00014308DF88830069B23939DF81C308DF8FC
:1006C0009030304B2193089B2593099B26930A9BDE
:1006D00027930B9B28930C9B29939DF834308DF81E
:1006E000A8309DF835308DF8A930DDF83610DDF8EA
:1006F0003A20DDF83E30CDF8AA10CDF8AE20CDF886
:10070000B2309DF842308DF8B63021A808F10101D1
:10071000FFF72CFF21A802F083FB04A802F094FC51
:10072000684604F0B9FE04A802F07AFB27E704A8A3
:1007300002F076FB0EE0002300E00123002B7FF4A3
:100740004FAF002450E7002300E00123002BA3D18A
:100750000024A5E72EB0BDE8F08700BF38AFFF1F2B
:10076000BCA10000F0AEFF1F5CAFFF1F94FBFF1F9A
:10077000149CFF1F40B0FF1FFCAFFF1FC0A1000073
:10078000C8A1000008A60000B8A10000B0B584B060
:1007900000AF04460D463846144904F0C9FE3846F9
:1007A000214604F03BFF3846114904F019FF04EBE1
:1007B0008404C4EB0414254438460E4901EB0511AA
:1007C00004F006FFBA6802F1080323F00703ADEB5B
:1007D000030D384669460132002304F093FF384682
:1007E00004F05AFE68461037BD46B0BD28A200008E
:1007F000D0A1000094FBFF1FB0B584B000AF044649
:100800000D463846144904F093FE3846214604F05C
:1008100005FF3846114904F0E3FE04EB8404C4EB01
:100820000414254438460E4901EB051104F0D0FEAE
:10083000BA6802F1080323F00703ADEB030D384655
:1008400069460132002304F05DFF384604F024FEBF
:1008500068461037BD46B0BDD4A10000D0A100004D
:1008600094FBFF1F08B54FF4FA7003F03FFD024AF6
:10087000024B1A6008BD00BF0400FA050CED00E051
:1008800038B5164C23685B68204615490522984701
:100890002046144B196804F0E7FD23685B68204686
:1008A0001149092298472046104B196804F0DCFDD5
:1008B00023685B6820460E49062298470D4B1D6849
:1008C000284609F085F9024623685B6820462946D8
:1008D0009847204604F07CFD38BD00BFC857002073
:1008E000D8A10000209BFF1FE0A100001CAFFF1F4C
:1008F000ECA10000D4AEFF1F10B504460620C4F3DF
:10090000C00103F07DFC0520C4F3800103F078FCF6
:100910000420C4F3400103F073FC032004F0010140
:1009200003F06EFC10BD00BF38B572B62F4B1B7FB5
:1009300003F0FF0213B100212C4B197762B6002A95
:1009400052D02B4B1A682B4B1A6072B6274BB3F957
:100950002000B3F91E20801A47F6FF72DA834FF4A5
:1009600000421A8462B608F001F8234908F006F93B
:100970004FF0814108F04EF80446002108F0FCF9E0
:1009800038B120464FF07C5107F03CFF08F008FAE0
:1009900006E020464FF07C5107F032FF08F000FAE5
:1009A00007F002FC02460B4600204FF0804106F0A3
:1009B000D1F904460D460022002307F0E1FE40B1C4
:1009C0002046294600220D4B07F0A2FA07F0ECFE64
:1009D00007E0204629460022084B07F097FA07F067
:1009E000E3FE0138FFF788FF38BD00BF2C9BFF1FD7
:1009F000A056002090FBFF1F00FF7F470000E03F54
:100A000008B504F097FE012814BF0020012008BD9E
:100A100030B59DB004460D464A4904F019FE58B160
:100A20006846294604F0A2FD6846FFF7E9FF464BF9
:100A30001870684604F030FD2046444904F008FE72
:100A400020B1284604F076FE414B1860204641490B
:100A500004F0FEFD58B104A8294604F087FD04A85F
:100A6000FFF7CEFF3C4B187004A804F015FD20469C
:100A70003A4904F0EDFD20B1284604F05BFE384B06
:100A800018602046374904F0E3FD58B108A829460C
:100A900004F06CFD08A8FFF7B3FF334B187008A8EB
:100AA00004F0FAFC2046314904F0D2FD58B10CA8FC
:100AB000294604F05BFD0CA8FFF7A2FF2C4B187031
:100AC0000CA804F0E9FC20462A4904F0C1FD58B105
:100AD00010A8294604F04AFD10A8FFF791FF264B05
:100AE000187010A804F0D8FC2046244904F0B0FD8A
:100AF00058B114A8294604F039FD14A8FFF780FF67
:100B00001F4B187014A804F0C7FC20461D4904F0C0
:100B10009FFD20B1284604F00DFE1B4B18602046B7
:100B20001A4904F095FD58B118A8294604F01EFD95
:100B300018A8FFF765FF164B187018A804F0ACFC56
:100B40001DB030BD94A2000014AFFF1F9CA2000096
:100B50007491FF1FA4A200007891FF1FB0A20000B3
:100B60007091FF1FBCA200008091FF1FD0A2000067
:100B70008191FF1FE0A2000000AFFF1FF4A2000060
:100B8000C09BFF1F08A300008491FF1F18A3000053
:100B90008891FF1F30B5A7B001A8002104F0C8FC60
:100BA00005A8002104F0C4FC09A85149002201F065
:100BB000D9FF504C9DF8283023710B9BA3609DF802
:100BC000303023730D9B23610E9B63610F9BA361E8
:100BD000109BE361119B23629DF8483084F8243018
:100BE0009DF8493084F8253026AB53F84E5D58689F
:100BF0009968C4F82650C4F82A00C4F82E101B7B4C
:100C000084F8323009A802F00BF994F82530032B50
:100C10005BD8254650E0284602F0C6F9C4B23D2C08
:100C200014D016A801A904F0A1FC16A8214604F0CE
:100C300009FD014601A804F08FFC16A804F02CFC65
:100C4000284602F0B1F9C4B23D2CEAD1284602F0A0
:100C5000ABF9C4B20A2C2FD01AA805A904F086FC5F
:100C60001AA8214604F0EEFC014605A804F074FC25
:100C70001AA804F011FC284602F096F9C4B20A2C16
:100C8000EAD11EA801A904F071FC22A805A904F06C
:100C90006DFC1EA822A9FFF7BBFE22A804F0FCFBF6
:100CA0001EA804F0F9FB144C01A8214604F06AFCCC
:100CB00005A8214604F066FC284602F091F80028B9
:100CC000A9D10C4802F0C0F909E00C4C23685B681C
:100CD00020460B491A229847204604F079FB05A8C4
:100CE00004F0DAFB01A804F0D7FB27B030BD00BF49
:100CF00020A30000EC9AFF1F28A20000C857002084
:100D000030A3000030B58FB001A86049012201F086
:100D100029FF5F4C9DF808302371039BA3609DF869
:100D200010302373059B2361069B6361079BA361BE
:100D3000089BE361099B23629DF8283084F82430E6
:100D40009DF8293084F825300EAB53F80E5D5868B5
:100D50009968C4F82650C4F82A00C4F82E101B7BEA
:100D600084F8323001A802F05BF823685B68204603
:100D70004849052298472046474B197804F074FBF0
:100D8000204604F025FB23685B682046434908227F
:100D900098472046424B196804F066FB204604F051
:100DA00017FB23685B6820463E490A229847204685
:100DB0003D4B197804F058FB204604F009FB2368EA
:100DC0005B68204639490A2298472046384B196803
:100DD00004F04AFB204604F0FBFA23685B682046D7
:100DE0003449112298472046334B197804F03CFBD4
:100DF000204604F0EDFA23685B6820462F49102254
:100E0000984720462E4B197804F02EFB204604F01C
:100E1000DFFA23685B6820462A4912229847204659
:100E2000294B197804F020FB204604F0D1FA2368FE
:100E30005B6820462549112298472046244B1978A3
:100E400004F012FB204604F0C3FA23685B682046D6
:100E500020490F22984720461F4B196804F004FBD5
:100E6000204604F0B5FA23685B6820461B49082237
:100E7000984720461A4B197804F0F6FA204604F0F9
:100E8000A7FA204602F0E0F80FB030BD20A3000022
:100E9000EC9AFF1F18A2000014AFFF1F20A2000051
:100EA0007491FF1F2CA200007891FF1F38A2000050
:100EB0007091FF1F44A200008091FF1F58A2000004
:100EC0008191FF1F6CA2000000AFFF1F80A20000F5
:100ED000C09BFF1F4CA300008491FF1F5CA3000078
:100EE0008891FF1FF0B59BB00220002103F0BAF9F2
:100EF0000820002103F0B6F90920002103F0B2F91F
:100F00001420002103F0AEF90B20012103F0AAF90F
:100F10000620012103F0A6F90520012103F0A2F922
:100F20000420012103F09EF90320012103F09AF926
:100F30005C4B1868FFF7E0FC5B48072104F072F88F
:100F40005A4B1A7842F005021A700A2002F084F80F
:100F5000C8B90A260F27642510E03846FFF7CCFCF5
:100F6000284603F0C3F90020FFF7C6FC284603F02B
:100F7000BDF90134062C01DDFFF774FC304602F0A8
:100F80006BF80028E9D04A4B4BF233329A61DA61B0
:100F900068464849002201F0E5FD474B9DF80420D2
:100FA0001A71029A9A609DF80C201A73049A1A61B9
:100FB000059A5A61069A9A61079ADA61089A1A6242
:100FC0009DF8242083F824209DF8252083F82520EF
:100FD00003F126011AAA52F8425D54689068C3F8DA
:100FE0002650C3F82A40C3F82E00137B0B736846C3
:100FF00001F016FF314801F091FE10B1FFF7CAFD74
:1010000001E0FFF77FFE2C4B1A798DF838209A68A3
:101010000F921A7B8DF84020294A0D921A6911927D
:101020005A6912929A691392DA6914921A6A15929D
:1010300093F824208DF8582093F825208DF8592016
:1010400053F8260F59689A68CDF85A00CDF85E100B
:10105000CDF862201B7B8DF866300DA80021FFF7CC
:1010600085FA0DA801F0DCFE002002F069FE154BA8
:101070001B68984205DC0B4B18600122124B1A705A
:1010800003E00020014602F06FFE09200F49032211
:1010900003F046F814200E49032203F041F81BB078
:1010A000F0BD00BF209BFF1F0082FF1FC457002020
:1010B00064AFFF1FD0A10000AC9AFF1F20A3000067
:1010C00008A600005CAFFF1F6491FF1F65040000CD
:1010D000710400002DE9F04F87B07E4B1B68002B98
:1010E0001BDD00263546344637464FF0170A4FF0D1
:1010F0001509DFF8E081504602F03EFD07444846FE
:1011000002F03AFD0444162002F036FD0544013693
:10111000D8F80030B342EEDC02E000252C462F4622
:1011200097FBF3F7002694FBF3F495FBF3F56A4B7A
:101130001B680493694BD3F800B0694B1B68059397
:10114000684B1B68E31A83EAE371A1EBE371029138
:10115000654BD3F80080654B1B68EB1A83EAE3729A
:10116000A2EBE372039240F2FF394F45B4BF384619
:101170004846DFF8BCA1DAF800205D4B53F8223076
:10118000009320EAE07031464FF48062334604F069
:1011900075F9584B1968584B1A68DAF8003003EBA8
:1011A0008303C3EB031303EB020E544B53F82EE0FF
:1011B000534BA3FB0EC3C3EB0E0E03EB5E0E4FEAC5
:1011C0005E2E01FB0EFE63194B4528BF4B46B3FB59
:1011D000F1F303FB0EF3904217D004997A1A002A18
:1011E000B8BF52425A456ADD464A1060464A1178F5
:1011F000464A1170384A176061E0424A1060444A1A
:101200001178424A1170364A1660029A424507DD4B
:10121000404A1360404A1178404A1170314A1460C4
:10122000DDF80CC0E04507DA3A4A13603C4B1A7807
:101230003A4B1A702D4B1D603A4800F085FB38B1CF
:10124000384800F063FB003018BF0120334B1870A2
:10125000354C2668354D2B68F61A082002F0F4FF4D
:10126000236806FB103028602368181AB0F5C87F81
:101270002CD92F4A1368013313602E4A1268934207
:1012800002DD00222A4B1A60294B1968184B53F8CB
:1012900021301C4A1268934202DC013B194A136058
:1012A00001221A4B1A70204B1868204A10601A68E5
:1012B000214B1A600020C9B202F056FD06E0059AE3
:1012C000002AB8BF5242934597DB9EE707B0BDE8BE
:1012D000F08F00BF9091FF1FE49AFF1F6C91FF1FDA
:1012E000A49AFF1FA89AFF1F7C91FF1FE89AFF1F77
:1012F000FCAFFF1F8491FF1F1CAFFF1F149CFF1F3B
:10130000051040009CAFFF1F8091FF1F6491FF1FDD
:101310008191FF1F249BFF1F00AFFF1FAC9BFF1F8E
:10132000C09BFF1F48AFFF1FA0560020944600201F
:10133000209BFF1F5CAFFF1F289BFF1F38B58F4B03
:1013400093F8583013F0FF0F04D18D4B1B78002B0E
:1013500040F0EB80894B1B7E0BB1FFF783FA894B82
:101360001B78002B39D0884D884C28682168FFF7FE
:101370000DFA874B186028682168FFF73DFA854B06
:1013800018602268844B1A60844B1B783BB97C4BF5
:101390001B7823B1794800F019FE814B1860804C0E
:1013A000226822F00F0222607448794B196800F01D
:1013B000A1FD7C48774B1968226800F09BFD2268EC
:1013C000794B1A60704B1868FFF796FA00226D4B44
:1013D0001A70764B1A68764B1A60764B1B781BB9DD
:1013E0006E4B1B78002B61D0734B1B78002B40F0A9
:1013F000BA806D4A136803F51A532C331360674B98
:101400001B781BB1664B1A68674B1A60664C2368E1
:1014100023F00F0323605C4B18685F4B1968FFF7DC
:10142000EBF901465B4B18605E48226800F062FDF4
:10143000624C63482146002200F034FB614821469B
:10144000012200F02FFB02F02FFF5F4B18600122FA
:10145000594B1A7087E0544C236803F2B91323F0F8
:101460000F032360484B18684B4B1968FFF78EF940
:101470000146474B18604148226800F03BFD4F4C45
:101480004F482146012200F00DFB4E482146002224
:1014900000F008FB0023474A1370474A137002F01C
:1014A00003FF494B186000223C4B1A703F4B1A68EF
:1014B000464B1B68D31A464A12689A4205D8FFF772
:1014C00009FE3A4B1A68414B1A60384B1A68414B77
:1014D0001B68D31A404A12689A4205D2FFF7D0F926
:1014E000324B1A683B4B1A60304C2168304B1B68FA
:1014F000C91A0B2009298CBF0021012102F080FEAE
:101500002268364B1B68D31A532B36D92268344BCA
:101510001B68D31A334A12689A422ED2324B1B7878
:10152000002B2AD0FFF700FA38BD174C20681A4B61
:101530001968FFF72BF90146154B18600F48002278
:1015400000F0D8FC2068114B1968FFF755F90146E7
:10155000104B18601348002200F0CCFC134B1A68A3
:10156000134B1A60F6E602F09FFE174B1B68C01A79
:1015700042F20F72904296D96DE738BD509BFF1F23
:101580008891FF1F6491FF1F209BFF1F9CAFFF1FCF
:10159000D4AEFF1F58AFFF1F1CAFFF1FAC9BFF1F38
:1015A000249BFF1FA0AFFF1F20AFFF1FA0560020EE
:1015B000E09AFF1FAD9BFF1F109CFF1F929B9400A2
:1015C00040FBFF1F68FBFF1FD8AEFF1F60AFFF1F70
:1015D0008C91FF1F3CB0FF1F6891FF1F90FBFF1F06
:1015E000289BFF1F7091FF1F7891FF1F2DE9F84F77
:1015F00002F06CFB904C204601F002FCDFF88C926C
:1016000020468E494A4607F0F1FB8D4D28460421BD
:1016100005F12802FEF75EFF8A4B2B604FF4803302
:10162000AB61EB612B626B62874C2046FEF776FF65
:10163000864E204631464A4607F0D8FBDFF898B27E
:101640005846FEF76BFF584631464A4607F0CEFB38
:10165000DFF888824046012108F12402FEF73AFFB4
:10166000DFF87CA2C8F800A04FF0FF36C8F8186079
:10167000774F3846012107F12402FEF72BFFC7F808
:1016800000A0BE61734E3046012106F11802FEF73C
:1016900021FF714B336047F6FF73F3834FF4004330
:1016A0003384DFF840A2504601210AF11802FEF708
:1016B00011FF6A4BCAF80030504600F003FB68483F
:1016C0000460C0F80480002404724472C46003F013
:1016D0009BFD6448C0F800B0476004724472C46067
:1016E00003F092FD60480560C0F804A004724472E3
:1016F000C46003F089FD5D48C0F800804560047255
:101700004472C46003F080FD59480760456004726C
:1017100001234372C46003F077FD564805604660BC
:1017200004724472C46003F06FFD534C2046534969
:1017300003F0FEFE204652494A4607F057FB514D42
:1017400005F5966705F59F4808F1300800260BE07F
:101750002046314603F0ECFE1034AC42F8D13D4651
:1017600007F59667474503D02C4605F59665EFE7E4
:1017700000204549454A07F039FB454D05F5966778
:1017800005F59F4808F1300800260BE02046314659
:1017900003F0CEFE1034AC42F8D13D4607F5966713
:1017A000474503D02C4605F59665EFE7374C0020FA
:1017B0003849224607F01AFB374D2846374903F0CF
:1017C000B7FE28462E49224607F010FB344D284626
:1017D00001F016FB28461949224607F007FB31485D
:1017E0000821142200F080F82F480221142200F072
:1017F0007BF82E4C22682E4B1A6022682D4B1A6003
:1018000002F052FD2C4B186022682C4B1A602268A3
:101810002B4B1A6022682B4B1A6022682A4B1A60E5
:1018200022682A4B1A602268294B1A6002F03CFD9C
:10183000284B1860BDE8F88FEC9AFF1F212E00009E
:1018400064AFFF1FA0A50000509BFF1F7D04000098
:1018500068FBFF1F2C9BFF1F80A50000B0A50000A8
:10186000B09BFF1FC49BFF1F04AFFF1F28AFFF1FCC
:10187000D49BFF1FDCAEFF1F38AFFF1F68A3000023
:101880009954000094FBFF1FB50400006091FF1FF6
:1018900040B0FF1F95040000F0AEFF1F6CA30000D6
:1018A000AC9AFF1F48AFFF1F009CFF1FA0560020EF
:1018B00024AFFF1F18AFFF1FECAEFF1F3CB0FF1F90
:1018C000E09AFF1F9446002060AFFF1F289BFF1F78
:1018D00090FBFF1FD8AEFF1FA0AFFF1F40FBFF1FF5
:1018E00090A50000E49BFF1F38B504460D464260FA
:1018F00000238360044B1B680360084602F0A4FCCD
:1019000020736573204638BDA0560020007B7047C9
:1019100010B50446407B02F097FC237B83420CD039
:10192000084B1A682368D21A63689A4207D3054B9A
:101930001B6823602073012010BD002010BD002013
:1019400010BD00BFA056002010B50446FFF7E0FF11
:10195000034620B10023A3600123A37311E0A26812
:101960006AB1094908682168411A8A4207D8064BBA
:101970001B6823600023A3600123A37301E00022FE
:10198000A273184610BD00BFA0560020F8B5064649
:10199000002103F009FC0746B8B1031D00F582756C
:1019A000B6F91E40B6F9201033F9022B9442A8BFB5
:1019B00014469142B8BF11469D42F5D8F483318454
:1019C00001233377384603F0B9FBF8BD2DE9F04F1A
:1019D00083B0019084693CB9002103F0E5FB002845
:1019E0005AD003F0ABFB57E0B4F1FF3F0FD10198A1
:1019F000002103F0D9FB044600284DD00198214670
:101A0000002203F0BBFB204603F098FB44E0019862
:101A1000002103F0D5FB804600283DD0019BD3F880
:101A20001CC093F8209000231D4F9B464FF0FF3AB7
:101A30004E46200EC4F30F2108EB0302B2F9045006
:101A4000C1F5803E37F91090013037F9100001FBE5
:101A500000F109FB0E11091401FB05F1C913918076
:101A600026B1E243944506D2644407E0A44504D27B
:101A7000CCEB040402E0544600E05C460233B3F5CC
:101A8000807FD6D1019B9C6118464146002203F01D
:101A900075FB404603F052FB03B0BDE8F08F00BF7A
:101AA00070A3000072B6836913B90123836105E056
:101AB000B3F1FF3F04BF6FF001038361C16180F8A0
:101AC000202062B6704700BF10B5044603F066FCE4
:101AD000204610BD08B503480349044A07F086F9BB
:101AE00008BD00BF98460020C91A00006091FF1F82
:101AF00008B503480349044A07F078F908BD00BF58
:101B0000A0460020C91A00006091FF1F2DE9F8438C
:101B10008146804600263746F7B94846314603F0ED
:101B20004FFB0746002853D0D8F81810B1F5803F76
:101B30004ED0031D00F582741A6831FB02F031FBB0
:101B400012F200F30F0002F30F02C0EA024243F860
:101B5000042B9C42F0D83BE04846314603F024FB7E
:101B60008446A8B33B1D051DD8F8184007F5827EB2
:101B7000B4F5803F16D107F10C040C3054F8082C52
:101B800050F8081C92FA11F244F8082C5A6850F8E0
:101B9000041C92FA11F25A600833083408309E454A
:101BA000ECD812E055F8042B34FB02F034FB12F2AF
:101BB00000F30F0002F30F02C0EA0242196892FA22
:101BC00011F143F8041B9E45ECD8604603F0B6FAC9
:101BD000013608F10408042E9ED13FB1484639462B
:101BE000002203F0CBFA384603F0A8FABDE8F883E8
:101BF00008B5002103F0D8FA0246A0B172B60A4B2C
:101C0000186810B91A6062B608BD084B1B681BB98A
:101C1000064B1A6062B608BD03490B60034B1A609D
:101C200062B603F08BFA08BDB8460020A846002033
:101C300038B51C4B1A68126819791B4B19701B4B6D
:101C40009A4206D2A3F5807404F5807304F50074FB
:101C500002E0174B03F58074164A106898B1021D14
:101C600047F6FF7532F9021B2944091123F8021BBC
:101C70009C42F7D803F062FA0F4B1A680D490A60CC
:101C800000221A6005E040F2FF7223F8022B9C420A
:101C9000FBD80A4B1B781BB14FF08042084B1A60EF
:101CA00038BD00BFAC4600201F8000401C8AFF1FCB
:101CB0001C89FF1FB8460020A8460020B44600201B
:101CC00008E200E070B54F48012103F009FB4E4BDC
:101CD0001A6842F480521A60802203F5032303F647
:101CE000F5731A700024494E01253480284602F00D
:101CF000FDFA0834A4B223B2B3F5006FF5D1444B1A
:101D00001B6813F4800F16D0424B1A6848F6A27372
:101D10001A409A420FD1404B1A6840F23F439A4210
:101D200009D13E4B1B68012B05D13D4B1A6840F28F
:101D300001139A4217D0364B1A6842F480021A6097
:101D40000122A3F59033303B1A6040F23F42083B3A
:101D50001A60043B48F6A3721A60324A1A6040F2D5
:101D6000011210331A60274C23681A6800222E498A
:101D700019602368022119715A7101209871D87174
:101D800019725A729A72DA721A736FF001015973EA
:101D90004FF0FF319973D97319691C4919611A758C
:101DA0005A75D98A4FF48071D9821A765A769A7602
:101DB000DA76D88BD983998B06219983237903F11D
:101DC000804303F504331A70B0221A7003F034FA1A
:101DD000164B18702279164B1A70227902F11001F5
:101DE0001448154B43F8210053119B0003F1604345
:101DF00003F5614302F01F02012101FA02F21A60A9
:101E000070BD00BFAC4600202C80044000C00C40D8
:101E10003C80044000600340046003400C600340C9
:101E200010600340A28F01001C89FF1FB4460020F0
:101E30001B800040311C0000008CFF1F08B50348C8
:101E40000349044A06F0D2FF08BD00BFAC4600209B
:101E5000C91A00006091FF1F08B503480349044AEE
:101E600006F0C4FF08BD00BFBC460020C91A000030
:101E70006091FF1F08B503480349044A06F0B6FF06
:101E800008BD00BFC4460020C91A00006091FF1FB2
:101E900008B503480349044A06F0A8FF08BD00BF7F
:101EA000CC460020C91A00006091FF1F002380F873
:101EB000583043650365704708B572B690F85830DE
:101EC00013F0FF0F12D0002380F8583062B61C3098
:101ED00001F0BAF8064B1B8823B1013B9BB2044AC0
:101EE000138023B95E2000F051F908BD62B608BD29
:101EF000D446002070B58EB004460E461546FFF756
:101F0000DBFF5E2000F028F92D4B1A8801321A8081
:101F100072B601A83146002200F024FE9DF8083078
:101F200084F82030039B63629DF8103084F82830D9
:101F3000059BE362069B2363079B6363089BA36384
:101F4000099BE3639DF8283084F840309DF82930E0
:101F500084F841300EAB53F80E6D58689A68C4F897
:101F60004260C4F84600C4F84A201B7B84F84E3017
:101F700001A800F055FF62B694F84130032B0BD94D
:101F8000104C23685B6820460F491722984720466B
:101F900003F01EFA002010E0012B94BF236B0023F6
:101FA0002365B5FBF3F104F11C0003FB115101F0B3
:101FB0001FF86565012084F858000EB070BD00BFA1
:101FC000D4460020C8570020C8A50000406D7047C7
:101FD0002DE9F041074690F8583013F0FF0F68D014
:101FE00003F050F88046002863D007F11C04204617
:101FF00000F0F6FE002848D0204608F104014FF416
:10200000807200F019FF0546B0F5807F24D92A4E72
:1020100033685B6830462949032298473046294691
:102020000A22002303F0E4F9304603F0D1F92046F8
:1020300001F00AF8224B1B8823B1013B9BB2204AD6
:10204000138013B95E2000F0A1F8002387F8583000
:1020500001233B76BDE8F0817B6D03447B65002363
:102060003B7645087F2D0AD86E00C6F5807608EBD2
:1020700045051C46EA1894800233B342FAD138462B
:102080004146002203F07AF810E0204600F0DCFF21
:102090000B4B1B8823B1013B9BB2094A138013B938
:1020A0005E2000F073F8002387F85830404603F0B4
:1020B00045F8BDE8F08100BFC8570020E0A500004A
:1020C000D4460020184B1A6842F480521A60174B0D
:1020D000174A1A60174ADA6002F180421A61164AFA
:1020E0001A60164B1B7813F0010F07BF4FF41072E4
:1020F000134B4FF40072134B1A60104B1B7813F004
:10210000020F4FF400720CBF0F4B104B1A600B4BB9
:102110001B7813F0040F07BF4FF410720C4B4FF4F1
:1021200000720C4B1A6070473C80044000C00240B3
:1021300001401F000110003800001F80C45700201C
:1021400018B0044008C004401CB004400CC0044057
:1021500014B0044004C0044030B45E2810D84309D1
:10216000084A012101FA03F514782C431470064A39
:1021700000F01F00814052F823400C4342F82340F6
:1021800030BC7047F0460020D84600205E2815D8A5
:10219000430900F01F00012202FA00F0084A52F839
:1021A000231021EA000042F8230038B9054A012132
:1021B00001FA03F3117821EA03031370704700BF9B
:1021C000D8460020F046002072B60D4B4FF0FF308D
:1021D000002203F65461C3F8000283F8082283F852
:1021E000092203F5037343F8083C8B42F3D3002222
:1021F00043F8082C024A034B1A6062B6704700BFCE
:10220000F8460020F446002003684BB172B603681C
:1022100093F80822013A83F8082262B6002303608B
:10222000704700BF2DE9F84380460F4691462C4B7E
:102230001B680BB9FFF7C8FFD8F8000030B1D0F821
:102240000032BB424AD04046FFF7DEFF72B6244B55
:102250001868034600252E462A46D3F80012B942D4
:1022600014D119463AB1D3F80442C2F80442C3F873
:1022700004021B4A136091F80822013281F80822F7
:1022800062B6C8F800101846BDE8F88393F8084213
:10229000002C08BF1546002C08BF1E46D3F8044288
:1022A00014B11A462346D8E7B9F1000F13D096B1FE
:1022B0003DB1D6F80432C5F80432C6F80402084B22
:1022C0001E60012386F80832C6F80072002386F8E3
:1022D0000932C8F8006062B6D8F80000BDE8F8839B
:1022E000F4460020F8B50D4617463D4B1B78002BF1
:1022F00028D072B63A4B1B7813F0010F07D0394B38
:102300001968394A12680A4038490A601A60344B21
:102310001B7813F0020F07D0354B1968324A526808
:102320000A4032494A601A602D4B1B7813F0040FA3
:1023300007D0304B19682C4A92680A402B498A60B2
:102340001A6062B62C4BDB68B3F1384F0AD02A4BC7
:102350002A4A1A604FF03842DA604FF078421A6128
:10236000274A1A6029460122FFF75CFF0446A8B1FC
:1023700090F8093213F0010F01D0064611E006462D
:102380002846214600F0BCF950B11FB9012384F85A
:10239000093206E0052384F8093202E0002600E055
:1023A00000260F4B1B78C3B113F0010F03D00F4B66
:1023B0001A68144B1A600A4B1B7813F0020F03D0F3
:1023C0000A4B5A68104B1A60054B1B7813F0040F28
:1023D00003D0064B9A680D4B1A603046F8BD00BF1B
:1023E000F046002080E100E0D8460020E4460020CE
:1023F00084E100E088E100E000C0024001401F00ED
:1024000000001F8000E100E004E100E008E100E0DE
:10241000F8B505460E461746414B1B78002B28D0D1
:1024200072B63F4B1B7813F0010F07D03D4B196874
:102430003D4A12680A403D490A601A60384B1B78D1
:1024400013F0020F07D03A4B1968374A52680A4016
:1024500036494A601A60324B1B7813F0040F07D0DC
:10246000344B1968304A92680A4030498A601A60D1
:1024700062B6314BDB68B3F1384F0AD02E4B2F4A8E
:102480001A604FF03842DA604FF078421A612C4AF5
:102490001A60284631460022FFF7C4FE044620B1E8
:1024A00090F8093213F0010F05D13046394600F09B
:1024B00027F9064600E00126194B1B78C3B113F03B
:1024C000010F03D0194B1A681E4B1A60144B1B786E
:1024D00013F0020F03D0154B5A681B4B1A60104BB8
:1024E0001B7813F0040F03D0104B9A68174B1A6037
:1024F000A4B194F8093213F0010F0AD038462146EE
:102500004FF4007201F090F92846FFF77DFE01209C
:10251000F8BD2846FFF778FE3046F8BD3046F8BDD6
:10252000F046002080E100E0D8460020E44600208C
:1025300084E100E088E100E000C0024001401F00AB
:1025400000001F8000E100E004E100E008E100E09D
:102550001B4B1B68012283F800211A4B4FF00042ED
:10256000DA62020A5A631A46D36A002BFCDA154B68
:102570009A6B4FF00042DA620A0C42F080525A63C2
:102580001A46D36A002BFCDA0E4B9A6B4FF00042CE
:10259000DA6289B241F0805159631A46D36A002B3E
:1025A000FCDA084B9A6B4FF00042DA62C0B2586313
:1025B0001A46D36A002BFCDA024B9B6B704700BFB4
:1025C0004C55002000C0024030B40921094A4FF0A8
:1025D0000045FF24D5625463D36A002BFCDA906B6C
:1025E00010F0800F03D04B1E13F0FF01F2D1C0B2E8
:1025F00030BC704700C002400D4B4FF00042DA6221
:102600000C4A5A631A46D36A002BFCDA084B986BC3
:1026100000044FF00042DA62064A5A631A46D36A4F
:10262000002BFCDA024B9B6B9BB21843704700BF38
:1026300000C00240FFFF0010084B1B68012283F816
:102640008020074B4FF00042DA62FF225A631A469D
:10265000D36A002BFCDA024B9B6B70474C55002071
:1026600000C0024010B544F295000021FFF770FF52
:10267000FFF7AAFF0446FFF7DFFF204610BD00BFAB
:1026800010B544F687004FF4D571FFF761FFFFF7EF
:102690009BFF012818BF4FF0004403D1FFF7ACFFA8
:1026A0000446FFE7FFF7C8FF204610BD10B50446FB
:1026B00047F2FF700021FFF74BFFFFF785FFFFF7A1
:1026C000BBFF46F6FF102146FFF742FFFFF77CFFF6
:1026D0000446FFF7B1FF204610BD00BF10B547F616
:1026E000FF200021FFF734FFFFF76EFF18B9FFF757
:1026F00083FF044600E00024FFF79EFF204610BD44
:1027000070B503460D46324A1278012A98BF43023B
:1027100045F2FF101946FFF71BFFFFF755FF18B1F1
:10272000FFF78AFF002070BD2A4A4FF00044FF20C7
:10273000D4625063D36A002BFCDA936BDBB2FE2BBE
:1027400005D0FF2BF4D0FFF777FF002070BD05F513
:10275000FF76204B204A5A635A63B54213D2A81C15
:1027600005F500751A461C4CD36A13F0F00FFBD028
:102770005463936B190A00F8021C00F8013C023004
:10278000A842F1D100E02E46124AD36A13F0F00FAE
:10279000FBD0104B9B6B1A0A327073700D4AD36AD0
:1027A00013F0F00FFBD00B4B9A6B0C4A126801210F
:1027B00082F880104FF00042DA62FF225A631A4614
:1027C000D36A002BFCDA034B9B6B012070BD00BF6A
:1027D0005055002000C00240FFFF00104C55002063
:1027E00010B400230361CB6943618A8A4B8B43EAAF
:1027F00002438361C361CB7A03F01003DBB2002B89
:102800000CBF0023022380F825300A78202A08BF55
:1028100000F1260308D020E014F8012F202A03D06D
:1028200003F8012B8342F7D10A7A202A12D02E22F4
:102830001A700A7A5A704A7A202A02D1981C0931F1
:1028400002E0D81C0A319A700A78202A1ABF431C69
:102850000270034600221A7006E000F1270380F898
:1028600026200C462E30D7E75DF8044B704700BF9A
:102870002DE9F04F87B082460D46144600F0C0FAAD
:10288000002C40F0A38095F82530032B08D12B694C
:102890005C0AAB69E31801936B695B0A039318E068
:1028A000022B40F093804B4B1B7803F1090001226F
:1028B00002FA00F00138296901404C0AE96902393D
:1028C00001FA03F0444909680144214401919A4006
:1028D00003922E69C6F34316DFF800B1DFF80091CA
:1028E000CDF808A0A246002206A840F8042D0199C0
:1028F000FFF7F8FC00285BD000EB46173C4607F5D5
:102900000077A7EB46174FF00B08E37A0F2B29D07F
:102910002378002B4FD0E52B24D020464946424651
:1029200006F052FDF0B120465946424606F04CFDF5
:10293000C0B1DDF808A050462146FFF751FF05A8B9
:10294000FFF762FC2B6920332B61224A127809328F
:10295000012101FA02F2013A1A422ED1284600F072
:10296000F1F92AE02B6920332B612034BC42CCD111
:1029700005A8FFF749FC0AF1010A039B534512D849
:1029800095F82530032B1CD0284600F0DBF9C0B1A8
:10299000EB69023B0F4A127893400F4A12689A186B
:1029A00001924FF0000A05A8FFF72EFC00269AE7D7
:1029B000DDF808A001E0DDF808A005A8FFF724FC79
:1029C00004E0DDF808A005A8FFF71EFC504607B09C
:1029D000BDE8F08F5C55002058550020F0A50000A0
:1029E000E4A500002DE9F04F87B0064691460B782C
:1029F000002B00F0A3802F2B0DD1A5E011F8013F93
:102A0000002B00F0A2802F2B0CD19EE002F8011BBE
:102A10009A42FBD321E003AA05A820240DF1150C4E
:102A20000DF117052E2B0BD1824214D2134603F859
:102A3000014B8342FBD1531CC3EB0C031A440AE045
:102A40007E2B08D8A3F16107FFB2192F9CBF203B52
:102A5000DBB213700132AA42D0D396F82530032B93
:102A600005D1D6F818B073695B0A01930EE0022B0A
:102A700066D1B269F261394B1B78023A02FA03FB64
:102A8000374A1268934401229A4001920021009132
:102A900001278A4639E006A840F810AD594652464B
:102AA000FFF720FC044648B355464FF00B0820467C
:102AB00003A9424606F088FC28B948462146FFF79C
:102AC0008FFE01241DE023783FB10BB1E52B05D12A
:102AD000C9F820B089F8245057468BB133692033A8
:102AE000336120340135102DE1D10BF1010B02A827
:102AF000FFF78AFB009A0132009206E0002400E012
:102B0000002402A8FFF780FB23E0009B01998B4281
:102B1000C1D396F82530032B14D0304600F012F9BB
:102B20000446B0B1F369023B0C490A7803FA02FB90
:102B30000B4A13689B44CDF800A0E6E7002408E0A8
:102B4000002406E0002404E003AA20210DF117036D
:102B50005CE7204607B0BDE8F08F00BF5C55002061
:102B60005855002030B59BB005460C4600F048F99A
:102B7000684B1A798DF804209A6802921A7B8DF8B6
:102B80000C20654A00921A6904925A6905929A6962
:102B90000692DA6907921A6A089293F824208DF84F
:102BA000242093F825208DF8252053F8260F596806
:102BB0009A68CDF82600CDF82A10CDF82E201B7B80
:102BC0008DF8323000E0013423782F2BFBD043BB4B
:102BD0009DF804302B71029BAB609DF80C302B7379
:102BE000049B2B61059B6B61069BAB61079BEB61B3
:102BF000089B2B629DF8243085F824309DF8253001
:102C000085F825301AAB53F8424D58689968C5F8D5
:102C10002640C5F82A00C5F82E101B7B85F83230F7
:102C200071E00DA800F0ECF8684621460DAAFFF708
:102C3000D9FE631C1C4613F8012B2F2A5DD0002AF5
:102C4000F8D15DE09DF838302B710F9BAB609DF89B
:102C500040302B73119B2B61129B6B61139BAB61FB
:102C6000149BEB61159B2B629DF8583085F824303E
:102C70009DF8593085F825301AAB53F80E4D586839
:102C80009968C5F82640C5F82A00C5F82E101B7BA8
:102C900085F832302DE09DF838308DF804300F9BE8
:102CA00002939DF840308DF80C30119B0493129BD9
:102CB0000593139B0693149B0793159B08939DF80C
:102CC00058308DF824309DF859308DF825301AABE6
:102CD00053F80E0D59689A68CDF82600CDF82A10E1
:102CE000CDF82E201B7B8DF832300DA800F098F81F
:102CF0006AE70DA800F094F805E00028CBD1F8E7CA
:102D000000289FD1F5E7684600F08AF828461BB0F6
:102D100030BD00BF6055002008A6000010B58EB081
:102D2000014601A80022FFF71DFF9DF82940032C52
:102D30008CBF0024012401A800F072F820460EB0D8
:102D400010BD00BF30B583B0044600230193174B7C
:102D50001968C569164B1B78102B0AD101A801EB25
:102D600015210122FFF7BEFAB0B1EDB230F81530EF
:102D70000AE001A801EBD5110122FFF7B3FA68B10F
:102D800005F07F0550F82530E3610A4A1468A34234
:102D90008CBF0024012402E0002400E0002401A8EC
:102DA000FFF732FA204603B030BD00BF9455002033
:102DB000985500209C55002010B582B002AB03F856
:102DC000011D0268546819460122A04702B010BDD7
:102DD00090F82530012B1CBF0123037100207047A0
:102DE00090F82530012B07D803694069C01A0028E4
:102DF000B8BF6FF00040704700207047704700BFB9
:102E0000002202714FF47A718160027303490160FC
:102E1000042180F8251080F82620704708A60000BD
:102E2000044A0260042280F82520002280F826202F
:102E3000704700BF08A600002DE9F04F83B006469A
:102E4000884690F82530012B00F2A3800369416980
:102E5000C91A8A4234BF91468946B9F1000F00F081
:102E60009A804F4A127802F10901012000FA01F11B
:102E700001390B40F1698C1E94404A4A10680444A1
:102E800004EB5324C3F30805002D3CD0002202A814
:102E900040F8042D2146FFF725FA014610B3C5F589
:102EA000007BCB4509D9404629444A4600F0BCFC8A
:102EB00033694B4433614D4615E0404629445A4638
:102EC00000F0B2FC33695B44336101A8FFF79CF961
:102ED0000134334B1B78012202FA03F3013B1C42FD
:102EE0000BD104E0002501A8FFF78EF954E030462D
:102EF000FFF728FF08B95D464EE0CB4501D2D84424
:102F000003E05D4648E04FF0000BCBEB09075D4660
:102F1000CBEB080BDFF888A00BEB0508002301932F
:102F2000B7F5007F0FD201A821461A46FFF7DAF95C
:102F3000014608B340463A4600F076FC33693B440C
:102F400033614D4618E001A821464246FFF760FA7A
:102F500090B1336903F50073336105F5007501A87D
:102F6000FFF752F901349AF80030012202FA03F314
:102F7000013B1C4208D103E001A8FFF745F90BE033
:102F80003046FFF7DFFE38B1A7F50077A945C3D873
:102F900002E0002500E00025284603B0BDE8F08FE0
:102FA0005C5500205855002000B583B00DF1070195
:102FB0000122FFF741FF01280CBF9DF807004FF0E9
:102FC000FF3003B05DF804FB70B582B004460669BB
:102FD000C5690DF107010122FFF72EFF012803BF8C
:102FE0002661E5619DF807004FF0FF3002B070BD2B
:102FF000F8B505460E4690F82530012B1DD84369DB
:103000008B421CD3C7690F4B1B78093321FA03F499
:10301000026922FA03F3E31A52BF1C468369C361B3
:1030200044B12846FFF78EFE034608B9EF6107E07A
:10303000013CF6D12E61012302E0002300E00023D1
:103040001846F8BD5C550020042380F82530002385
:1030500080F82630704700BF2DE9F04F83B07B4DDC
:103060007B4B53F830302B6001247A4B1C70214687
:1030700001F0F8F82B6883F88040FFF723F8764BCF
:103080001B78002B28D072B6734B1B7813F0010FFE
:1030900007D0724B1968724A12680A4071490A6077
:1030A0001A606D4B1B7813F0020F07D06E4B196836
:1030B0006B4A52680A406B494A601A60664B1B783B
:1030C00013F0040F07D0694B1968654A92680A40EB
:1030D00064498A601A6062B6654BDB68B3F1384FA9
:1030E0000AD0634B634A1A604FF03842DA604FF0FF
:1030F00078421A61604A1A6005215D4A4FF0004427
:103100005E48D4625063D36A002BFCDA936B4B1E8B
:1031100013F0FF01F5D15A4B1D684F4CDFF8709149
:10312000DFF868A1DFF844814F4F4C4EFFF79AFA61
:10313000012856D02378B3B113F0010F03D0494BC7
:103140001A68504B1A60237813F0020F03D0454BD6
:103150005B68CAF80030237813F0040F03D0414BAA
:103160009B68C9F80030464B1B685B1BFA2B00F2CA
:10317000BD81237823B372B6237813F0010F06D0F4
:103180003268374B1B681340364A1360336023782C
:1031900013F0020F06D03A68314B5B681340314A96
:1031A00053603B60237813F0040F08D0D8F8002058
:1031B0002B4B9B6813402B4A9360C8F8003062B6D3
:1031C0002B4BDB68B3F1384FB0D0294B294A1A603A
:1031D0004FF03842DA604FF078421A61264A1A609E
:1031E000A4E7FFF74DFAB0F1004F04D10122264BBE
:1031F0001A7000254EE0B0F5D57F05D10222224B92
:103200001A704FF0804545E0134B1B78002B00F0FF
:103210006F8113F0010F03D0124B1A68194B1A601B
:103220000D4B1B7813F0020F03D00E4B5A68174B4F
:103230001A60094B1B7813F0040F00F05B81094BF7
:103240009A68134B1A60002459E100BF4C550020C6
:1032500068A6000051550020F046002080E100E003
:10326000D8460020E446002084E100E088E100E048
:1032700000C0024001401F0000001F80FFFF00103F
:10328000A056002000E100E05055002004E100E0DD
:1032900008E100E09C4B1E689C4CDFF898A2DFF828
:1032A00090B2DFF8B092DFF8B082994F2846FFF76E
:1032B000FDF9024600285DD02378B3B113F0010F69
:1032C00003D0944B1968944B1960237813F0020FC4
:1032D00003D0904B5B68CBF80030237813F0040FD9
:1032E00003D08C4B9B68CAF80030012A00F204819D
:1032F000854B1A68921B40F2DC539A4200F2FE8022
:10330000237833B372B6237813F0010F06D03A68EE
:10331000824B1B6813407F4A13603B60237813F095
:10332000020F08D0D8F800207C4B5B681340794A24
:103330005360C8F80030237813F0040F08D0D9F890
:103340000020764B9B681340724A9360C9F80030A6
:1033500062B6734BDB68B3F1384FA7D0704B714A3C
:103360001A604FF03842DA604FF078421A616E4AC4
:103370001A609BE76D4B1B78022B07D1FFF7AEF964
:10338000800F032802D10322684B1A705F4B1B7811
:10339000C3B113F0010F03D05E4B1A685E4B1A6085
:1033A0005A4B1B7813F0020F03D05A4B5A68604BEC
:1033B0001A60564B1B7813F0040F03D0554B9A68D4
:1033C0005C4B1A60002202A840F8042D1146FEF75B
:1033D00089FFB0F8FE214AF655239A4277D190F83A
:1033E000C231062B03D00B3BDBB2012B02D8D0F845
:1033F000C64100E0002401A8FEF706FF01A821460F
:103400000022FEF76FFFB0F8FE214AF655239A42DC
:103410005FD1B0F80B30B3F5007F5CD1037C022B99
:103420005BD1C589002D5AD0427BB2FA82F2C2F13B
:103430001F02414B1A70C38A03B9436AB0F8117076
:1034400007F10F0E4FEA1E1EB0F8136006B9066AA8
:1034500061193A4C21601944394C216003EB0E0C80
:103460008C44384CC4F800C0741BCEEB0404A4EBAD
:10347000430424FA02F2551C334C256040F6F474E0
:10348000A2422ED94FF6F474A2420BD810202F4A34
:1034900010702F4A7F0157610B449361032382F818
:1034A00025300AE02022294B1A70294B00225A614C
:1034B000C26A9A61022283F82520254B9A69DA6153
:1034C00000221A6101A8FEF79FFE01240AE00024F1
:1034D00008E0002406E0002404E0002402E00024C8
:1034E00000E0002401A8FEF78FFE08E0002406E0BB
:1034F000002404E0002402E0002400E00024204630
:1035000003B0BDE8F08F00BFA0560020F0460020B9
:1035100080E100E0E446002000E100E0D846002021
:1035200000C0024001401F0000001F8050550020D5
:1035300004E100E008E100E05C5500209455002023
:1035400054550020585500209C55002098550020C7
:103550006055002088E100E084E100E010B5054CF2
:103560002046FFF74DFC20460349044A05F03EFC87
:1035700010BD00BF60550020212E00006091FF1F8C
:10358000014A024B1A60704701100138A055002013
:103590000B4B1B7813B90B4B1B7873B10A4B1B7881
:1035A000202B03D90123037100207047581C064AC1
:1035B0001070064AD154012070470020704700BFA8
:1035C0000E560020D05500200F560020AC5500208C
:1035D000704700BF024B1878024B1B78C01A704727
:1035E0000D5600200C560020074B1B78074A127816
:1035F0009A4205D9591C044A1170054AD05C70479B
:103600004FF0FF30704700BF0C5600200D560020D1
:10361000D4550020054B1B78054A12789A4286BF84
:10362000044AD05C4FF0FF30704700BF0C560020BA
:103630000D560020D455002008B5104BDB7813F050
:10364000200F0CD1122000F0B3FD0D4B1B689BB175
:1036500000210C4A11700C4A1078984708BD0B4A9B
:1036600013780133DBB21370012B02D8084B1B789F
:1036700013B9122000F09CFD08BD00BF0060064099
:10368000A85500200C5600200D560020F8550020AB
:10369000D055002038B514460D4B1B7813B90D4B8F
:1036A0001B7893B10C4B1D78C5F12103A34202D2C4
:1036B000012202711C4609482844224600F0B4F851
:1036C0002544054B1D70204638BD002038BD00BF85
:1036D0000E560020D05500200F560020AC5500207B
:1036E000002202714FF47A7181600273014A026014
:1036F000704700BF28A6000008B53D4BDB78DBB261
:1037000013F0100F06D01021394AD17013F0400F7A
:1037100003D108BD13F0400F2CD013F0040F1BD0C1
:103720000023344A1370344A1370344B1B681BB1A6
:103730009847314B1B782BB901222F4B1A7000226E
:103740002F4B1A702A4BD0229A702D4A12781A7178
:1037500001222C4B1A7009E00122264B1A7000221C
:10376000294B1A70224BC0229A701B790222204BDF
:10377000DA7008BD1E4A927812F0100F1CD013F0B8
:10378000010F14D11F4B1B781B4A12789A4207D99C
:10379000591C1C4A11701A4AD25C154B1A7102E06E
:1037A0000022134B1A71D022114B9A701BE0104B60
:1037B000C0229A701B7916E00022144B1A70122056
:1037C0001349032200F0ACFC094B1B79DAB20E4B13
:1037D0001B781F2B07D80749097821B1581C0A49C3
:1037E00008700C49CA540222014BDA7008BD00BFB0
:1037F00000600640A45500200F560020F45500201C
:10380000AC550020105600200D560020F855002021
:1038100039360000D455002008B50248FFF760FF94
:1038200008BD00BFFC550020844641EA000313F0A8
:1038300003036DD1403A41D351F8043B40F8043BB7
:1038400051F8043B40F8043B51F8043B40F8043B7A
:1038500051F8043B40F8043B51F8043B40F8043B6A
:1038600051F8043B40F8043B51F8043B40F8043B5A
:1038700051F8043B40F8043B51F8043B40F8043B4A
:1038800051F8043B40F8043B51F8043B40F8043B3A
:1038900051F8043B40F8043B51F8043B40F8043B2A
:1038A00051F8043B40F8043B51F8043B40F8043B1A
:1038B00051F8043B40F8043B403ABDD2303211D3BA
:1038C00051F8043B40F8043B51F8043B40F8043BFA
:1038D00051F8043B40F8043B51F8043B40F8043BEA
:1038E000103AEDD20C3205D351F8043B40F8043BBA
:1038F000043AF9D2043208D0D2071CBF11F8013BB8
:1039000000F8013B01D30B8803806046704700BF7D
:10391000082A13D38B078DD010F003038AD0C3F18C
:103920000403D21ADB071CBF11F8013B00F8013B6E
:1039300080D331F8023B20F8023B7BE7043AD9D32D
:10394000013A11F8013B00F8013BF9D20B78037002
:103950004B7843708B7883706046704730B4394A37
:103960003949136813F0800FFBD10B6813F0800FF7
:10397000F7D172B6354B1B78002B5FD0344B1C68E7
:1039800004331D68043318680433196804331A6853
:1039900004331B682C44204401440A441A44C2F3F3
:1039A0004E0242F400422B4B1A602C331C68043345
:1039B0001D68043318680433196804331A68043323
:1039C0001B682C44204401440A441A44C2F34E02AA
:1039D00042F40042204B1A6003F108131C680433C0
:1039E0001D68043318680433196804331A680433F3
:1039F0001B682C44204401440A441A44C2F34E027A
:103A000042F40042154B1A602C331C6804331D68C5
:103A1000043318680433196804331A6804331B68C4
:103A20002C44204401440A441A44C2F34E0242F496
:103A300000420B4B1A600022044B1A7062B630BC75
:103A4000704700BF24B0034024B00B401256002042
:103A500038B003402CB0034030B003402CB00B40D2
:103A600030B00B4060223A4B1A70E12201331A70D9
:103A7000384B1B78082B10D1012203F1804303F54A
:103A80006C331A60132334490B6001F5FF2101F2F6
:103A9000FC710A60314A13601FE00A2B0DD13922F4
:103AA0002F4B1A6013232C490B6001F5FF2101F203
:103AB000FC710A60294A13600FE00C2B0CBF352201
:103AC0003D22274B1A60122323490B6001F5FF2189
:103AD00001F2FC710A60214A1360224B1B7833B15A
:103AE0000123214A136002F50022136005E0002340
:103AF0001D4A136002F5002213601C4B1B78012B3A
:103B000006D880231A4A136002F5002213601AE0D7
:103B1000042B06D88423164A136002F50022136092
:103B200011E0082B06D88523114A136002F5002204
:103B3000136008E0102B94BF862387230C4A136080
:103B400002F50022136001220A4B1A70704700BF71
:103B5000004007409491FF1F0CB003400CB00B4095
:103B600008B003401556002020B003409591FF1F78
:103B700024B00340125600202DE9F8430D2813D934
:103B8000172802D80E38C0B20EE0A0F11A03DBB23B
:103B9000052B02D80938C0B206E0A0F12203DBB23F
:103BA000062B73D81838C0B23A4B1E5C3A4B1B78C0
:103BB0000BB1FFF7D3FE16F0800F29D172B6374C48
:103BC000374D4FF0010726602F7062B672B623683A
:103BD00013F0800F04D12B7813F0FF0F0FD1F2E711
:103BE000304B186800222E4B1A7062B62E4B1B7891
:103BF0001841BDE8F8832B7813F0FF0FE3D062B6CD
:103C000001F0D4FD72B6236813F0800FF3D0E7E71C
:103C100072B606F040095FFA89F9244F244C06F089
:103C20003F06244D4FF00108B9F1000F04D03B6866
:103C300023F010033B6003E03B6843F010033B605C
:103C4000266085F8008062B672B6236813F0800F94
:103C500004D12B7813F0FF0F0FD1E5E7164B18684E
:103C60000022144B1A7062B60F4B1B781841BDE846
:103C7000F8832B7813F0FF0FD6D062B601F096FDD3
:103C800072B6236813F0800FF3D0E7E70020BDE899
:103C9000F88300BF40A600001256002000B0034089
:103CA0001456002010B00340115600200CB00B40F9
:103CB00000B00B401356002010B00B40024A13789E
:103CC00013F0010FFBD070470100024010B584B023
:103CD000174B6C46186859689A68DB680FC4154B17
:103CE0001B7813F0020F19D08022134B1A70332265
:103CF00004331A700322013B1A7072B66B4643F00C
:103D000001030E4C2046984762B6237813F07003E7
:103D100004D0237009E0013B03D106E044F621639F
:103D200004490A7812F0010FF5D004B010BD00BFAD
:103D300058A60000010002400700024000000240B7
:103D400010B50446B0F5006F0AD2064B1B7813F08D
:103D5000010F01D1FFF7BAFF04F1A054207810BD84
:103D6000002010BD0100024038B504460D46B0F5F4
:103D7000006F0ED2074B1B7813F0010F01D1FFF734
:103D8000A5FF04F1A0542378AB4202D02570FFF7C1
:103D900095FF38BD01000240024B1A6801321A60DB
:103DA000704700BFA056002008B50D4C236813F4DF
:103DB000802F01D000F0EEFB236813F4806F01D058
:103DC00001F0C0FF236813F4006F01D002F0B8FACD
:103DD000236813F4805FE9D002F042FDE6E700BFFC
:103DE0003480044008B5FFF7DFFF00BF1022014B0D
:103DF0001A80704700200540704700BF024A1368D0
:103E000018441060184670479891FF1FFEE700BFE6
:103E1000EFF31383ABB9EFF31083ABB9EFF3058383
:103E200023B10F2B05D9094A985C03E04FF4807049
:103E300000E00020EFF311833BB1834238BF184606
:103E400070474FF0FF30704700207047F0E300E00C
:103E500010B5154B1C681C6014F4805F05D0134B23
:103E6000DB6813B1114BDB68984714F4005F05D091
:103E70000E4B1B6913B10D4B1B69984714F0200FB3
:103E800005D00A4B1B6E13B1084B1B6E984714F0FC
:103E9000100F07D0054BD3F884301BB1034BD3F878
:103EA0008430984710BD00BFA090044018560020F1
:103EB00010B5274B1C681C6014F4803F05D0254BBF
:103EC0001B6813B1234B1B68984714F4003F05D0BF
:103ED000204B5B6813B11F4B5B68984714F0010FD0
:103EE00005D01C4B1B6C13B11A4B1B6C984714F07C
:103EF000020F05D0174B5B6C13B1164B5B6C9847E8
:103F000014F0080F05D0134B9B6C13B1114B9B6C35
:103F1000984714F0040F05D00E4BDB6C13B10D4B1A
:103F2000DB6C984714F4002F05D00A4B5B6E13B17D
:103F3000084B5B6E984714F4802F07D0054BD3F8DD
:103F400080301BB1034BD3F88030984710BD00BFC1
:103F5000A0A004401856002010B5384B1C681C6007
:103F600014F0080F05D0364B5B6A13B1344B5B6A13
:103F7000984714F0100F05D0314B9B6A13B1304BAA
:103F80009B6A984714F0400F05D02D4BDB6A13B1A4
:103F90002B4BDB6A984714F0800F05D0284B1B6B26
:103FA00013B1274B1B6B984714F0200F05D0244BFF
:103FB0005B6B13B1224B5B6B984714F0010F05D07C
:103FC0001F4BDB6B13B11E4BDB6B984714F0020FDA
:103FD00005D01B4B9B6D13B1194B9B6D984714F08B
:103FE000040F05D0164BDB6D13B1154BDB6D9847F5
:103FF00014F4007F05D0124BDB6E13B1104BDB6E57
:10400000984714F4807F05D00D4B1B6F13B10C4BF8
:104010001B6F984714F4806F05D0094B5B6F13B189
:10402000074B5B6F984714F4006F05D0044B9B6FF0
:1040300013B1034B9B6F984710BD00BFA0B0044065
:104040001856002010B5264B1C681C6014F0010F98
:1040500005D0244B9B6813B1224B9B68984714F002
:10406000800F05D01F4B5B6913B11E4B5B699847EE
:1040700014F0100F05D01B4B9B6913B1194B9B69B2
:10408000984714F0040F05D0164BDB6913B1154B9C
:10409000DB69984714F0080F05D0124B1B6A13B167
:1040A000104B1B6A984714F0020F05D00D4B9B6B09
:1040B00013B10C4B9B6B984714F0200F05D0094BA4
:1040C0001B6D13B1074B1B6D984714F0400F05D0C3
:1040D000044B5B6D13B1034B5B6D984710BD00BF84
:1040E000A0C004401856002010B50B4B1C681C6083
:1040F00014F0020F05D0094B9B6E13B1074B9B6E5A
:10410000984714F0010F05D0044BDB6F13B1034B3C
:10411000DB6F984710BD00BFA0D0044018560020A8
:1041200030B4212831D8042A2FD8DFE802F007095B
:10413000050B03000B2406E00A2404E0082402E037
:104140000C2400E00924124B03EBC0035A68114B06
:10415000114DC3F89C51114DC3F8A051104DC3F837
:10416000A451104DC3F8A8510F4DC3F8AC5172B60D
:10417000136823F4702313600C4D45F8201043F0AE
:10418000807343EA0444146062B630BC704700BFD9
:1041900068A60000008CFF1F513E0000B13E0000E9
:1041A000593F000045400000E9400000185600203B
:1041B000094B03EBC0035A6872B6136823F0877388
:1041C00023F4803343F0807313600022034B43F8E1
:1041D000202062B6704700BF68A600001856002075
:1041E000044B00221A6004490A60044A106010223D
:1041F0001A60704714D0034004D0034000D003403D
:1042000021281ED80F4B53F8303093F8802212F03B
:10421000FF0F08D019B1012283F8802070470122D6
:1042200083F800217047074B03EBC000436821B1BE
:104230001A6842F003021A6070471A6822F00202FC
:104240001A60704768A60000212806D8044B53F86E
:10425000303093F80002C0B270470020704700BFB2
:1042600068A6000021281CD80E4B03EBC0035B6836
:10427000012908D10B4A52F8302082F880124FF4FD
:10428000A2721A607047074A52F83020002082F864
:10429000800219B94FF480721A60704740F203121D
:1042A0001A60704768A6000072B60C4B1B680C4A77
:1042B00012680C49096862B611F0806F02D0322B87
:1042C00088BF0132C3F5BB33FF330749A1FB0303AA
:1042D0009B094FF47A7000FB0230704718E000E051
:1042E000A056002004ED00E0ABAAAAAA38B5054606
:1042F000FFF7DAFF044625B938BD013D0AD004F5C1
:104300007A74FFF7D1FF001BB0F57A7FF5D201F088
:104310004DFAF6E738BD00BF10B5254B4FF400024B
:104320001A604FF080721A604FF000721A604FF0FE
:1043300080621A604FF000621A6000201D4B186006
:104340004BF6FF710433196028231B4A13600832AF
:1043500013600832136008321360083213600832A9
:10436000136008321360083213600922134C226074
:1043700004F5805404342060043421600434236044
:1043800008342360143C226004F5FE2404342060C9
:104390000B4801600B490B6008310B600A4B1A6037
:1043A000FFF760FBFA20FFF7A1FF00F073FC10BDE0
:1043B00008E100E0048003400C80034000800340DB
:1043C00008800B400C800B4000800B4030B40E4B3B
:1043D0001B7843F002020D4C04EBC20460600C48F1
:1043E000007800280CBF8824C82444EA0141074D06
:1043F00045F8321080F00100054A107083F0010387
:10440000014A137030BC70470C5700200080FF1F1A
:104410008557002010B4431E032B11D872B60A4AE8
:1044200052F8230050B14268074941F82320074A57
:1044300032F813400188611A22F8131062B600E0C6
:1044400000205DF8044B7047FC560020CC5900203A
:10445000013803280DD872B6074B53F820302BB122
:10446000002001305B68002BFBD100E0002062B629
:1044700070470020704700BF5057002038B572B613
:1044800001231B491B4C5A1812F8012C12F0080F7B
:1044900024D09A0054F832506DB9164B03EBC20188
:1044A00008304860144943F83210144B1A78013A26
:1044B0001A7062B638BD42F0010254F832506DB93C
:1044C0000C4B03EBC201083048600D4943F8321031
:1044D0000A4B1A78013A1A7062B638BD0133052BBF
:1044E000D1D162B60022054B1A7000F037FC38BDFE
:1044F000A0A700000080FF1F880040007A5700201E
:10450000C800400010B4431E032B37D8400140F0D0
:1045100010001C4A104472B61B4AD25C032A09D808
:10452000DFE802F019021B050830022216E008300D
:10453000042213E0154A52F823201AB9134A42F80C
:10454000231003E0124A52F823205160104A42F827
:10455000231062B612E0032200E005220A4CE25466
:1045600001F10803436000F00803002B0CBF88230F
:10457000C8230A8843EA0243036062B65DF8044B2D
:10458000704700BF0080FF1FB85600205057002022
:10459000605700202DE9F84FA34CDFF8E092DFF8D8
:1045A000E0A2DFF8E0B22578EDB215F0040F1DD0DF
:1045B0009E4B1B7813F0FF0F16D09D4B1B7803F01A
:1045C000FF022BB1531EDBB2994A137003B900BE30
:1045D000984B1B7803F0FF0233B1531EDBB2954AB0
:1045E00013700BB900F0FAFC0423237015F0080FC8
:1045F00000F0E48299F80030DBB21D0940F021821E
:104600008D4D9E0805EBC6035A6855F83630C3F346
:104610008303013B0C2B00F21082DFE813F0CB0187
:10462000CB010E020E020E020E020E020E02E80175
:104630000E020E020E020D00804913680B605268D4
:104640004A607F4A45F8362000227E490A607A494E
:104650000A618A6101217C4A11709BB240F2816239
:10466000934218D8B3F5D06F2ED2B3F5817F00F006
:104670001E8106D8802B00F0C980822B00F0CC80F0
:1046800066E140F20232934200F02681B3F5A06F5A
:1046900000F062815CE142F22102934200F08681E7
:1046A00007D8B3F5086F00F0AB80B3F5106F11D0E9
:1046B0004EE142F22122934200F0418142F2213246
:1046C000934200F0498143E1604B5D68002D40F06A
:1046D000188130E1594B9A78544B1A70564D05F1B8
:1046E00080062B6A13F0800F03D0686A083800F048
:1046F00035FB0835B542F4D1DFF88C81002637460A
:10470000534AB05828B1456800F028FB0DB128463F
:10471000F9E700234E4973504E4AB3504E4BF058C0
:1047200028B1456800F01AFB0DB12846F9E70023CF
:1047300049497350494AB35028F8023F484BFB5C43
:10474000023B032B0AD8DFE803F002060206002230
:10475000434BDA5502E00122414BDA55013704366A
:10476000102ECDD100223F4B1A7001253E4EDFF8AE
:104770001C81314F05EB080313F8013C06F8043B9C
:1047800013F0080F2DD000F0C9FA48B1A90007EBCB
:10479000451200F108035360344A47F8312007E01E
:1047A000AB00002247F833202E4B1A7801321A70E2
:1047B00000F0B4FA58B1AB0043F0010307EBC301BA
:1047C00000F108024A601E4A47F8332009E0AB00B6
:1047D00043F00103002247F83320224B1A780132BC
:1047E0001A70AA0042F00201002347F8313042F06B
:1047F000030247F8323001351D4B9E42BAD11EE20A
:104800000A4B1B781B4D2B700127AAE0194D002382
:104810002B706B700227A4E0084B9B88042B37D9C0
:104820000F22154B1A70C1E08020074084570020EA
:104830000D570020865700200080FF1F7057002072
:10484000C8004000A456002085570020A4A70000FF
:10485000FC560020A856002050570020605700202A
:10486000B85600207A570020C42007408800400036
:10487000D42007407C570020C020074090200740EC
:104880009420074098200740CA590020A0A70000A4
:10489000A04A0021117051709F4A12F8233013F082
:1048A000020F5CD09B4D01232B70022759E09B4BDC
:1048B0009B8803F07F03042B02DC984A52881AB1CC
:1048C0000F22954B1A7071E0934A12F8231021F0D1
:1048D000020102F82310B2E1904B9B8803F07F03A2
:1048E000042B02DC8D4A52881AB10F228A4B1A70AF
:1048F0005CE0894A12F8231041F0020102F823100B
:104900009DE1864B5E889F88854BA3F10C02114682
:1049100033F80C0CB04209D133F80A0CB84205D177
:10492000360A032E0CBF2F7817891AE00D690C3355
:104930000C32002DEBD10F22774B1A7036E0794BF9
:104940001A68794B1A60754B9A78784B1A7076E131
:104950000F22714B1A7029E000273D4601E0022723
:104960006C4D6E4BDB889F4228BF1F46402F34BFE3
:104970003E46402628463146FFF728FD3544BF1BFA
:1049800003D13F2E00F2608110E0402F34BF3E463D
:10499000402628463146FFF719FD3544BF1B01D19B
:1049A0003F2E03D9624B1D60624B1F8001238AF8A2
:1049B000003042E0594B198842F22103994212D14A
:1049C0005D4BD81D12F8011B03F8011F8342F9D17A
:1049D0005A4B1B68862B02D10F22594B1A700020AC
:1049E0000146FFF7F3FC574B45F8363025E0504BB6
:1049F0001E68BEB14F4FB7F80080B8F1400F34BF0A
:104A00004546402530462946FFF7E0FCC5EB080344
:104A10009BB23B800BB9402D01D1354400E000250D
:104A2000434B1D603D4B1B88B3F5A06F05D13B4B3D
:104A300000225A709B788BF8003001238AF80030EE
:104A4000B9E0414E9F0806EBC708D8F80420A2F150
:104A50000800013DEDB213F0080F47D000F07EF9D9
:104A60003A4B53F825304BB35A68384941F8252062
:104A700003F10802C8F80420354A525D032A12D80F
:104A8000DFE802F002060A0E0321314A51550AE01E
:104A900002212F4A515506E005212D4A515502E0C9
:104AA00004212B4A515518F0080F0CBF8822C82248
:104AB0001B8842EA034346F837307CE0244B5B5DB9
:104AC000032B0BD8DFE803F0777702060022204B98
:104AD0005A5570E001221E4B5A556CE018F0080F31
:104AE0000CBF022203221A4B5A5564E056F83730A5
:104AF0001B0C22F8083C002B55D0002322F8063C62
:104B000042F8043C134B53F825302BBB114B43F8B0
:104B1000250025E07C570020C0200740705700206A
:104B2000B0A70000A0560020DC59002094570020B8
:104B3000A456002078570020D3590020D4590020D3
:104B40000D570020C80040000080FF1F5057002074
:104B5000B8560020FC5600203F4B53F825305860D3
:104B60003D4B43F825003D4B33F8151032F8082C27
:104B70000A4423F8152000F0D1F860B100F10803D1
:104B8000C8F8043018F0080F354B364A08BF1346F2
:104B900046F837300FE0002346F83730324B1A78AA
:104BA00001321A7007E018F0080F2D4B2D4A08BF8C
:104BB000134646F8373008232370F4E415F0010F4C
:104BC00022D02A4902230B700022294B1A70294B4C
:104BD00024481860284C5C6098602848D8601A61A6
:104BE0009A610D20264B1870FF2326480370083861
:104BF000037018300270244A13709F22234B1A70DE
:104C000001230B70BDE8F88F15F0800F05D00D2241
:104C10001B4B1A708022403B1A7015F0020F06D011
:104C2000184B1A78D2B21A700222083B1A7015F08B
:104C3000100F0ED01022164B1A70BDE8F88F00200E
:104C40000146FFF7C3FBB1E628460021FFF7BEFB94
:104C5000ACE6BDE8F88F00BFA8560020CC59002074
:104C6000C8004000880040007A5700209420074088
:104C70000C5700200080FF1FBC560020105700205A
:104C8000C0200740882007408C2007408420074030
:104C90008020074008B501F057FE00231B491A4643
:104CA0005A50C81842600833882BF9D1184B1A683B
:104CB00042F480221A60154BC3F30721154A117084
:104CC000C3F30741143211701B0E04321370FF231B
:104CD000343A137008321370783A13700123843217
:104CE000137000216C3211707C3A137070220A4BE1
:104CF0001A704FF40072A3F241331A60102203F1CC
:104D0000C04303F5C8231A7008BD00BF0080FF1F11
:104D1000348004409C20074049E400E072B60D4B0B
:104D20001A68B2FA82F30B2B02D962B600207047E0
:104D30004FF00041D94022EA010206490A6062B6FA
:104D4000054903EBC303DB00C8180022CA504260C8
:104D5000704700BF9C91FF1F008EFF1F08B50F4BCF
:104D6000C31A0F4AA2FB03131B090B2B14D80D4ABD
:104D700012783AB10C4A127812F0FF0F02D0FFF706
:104D80007DFB08BD72B6094A4FF0004121FA03F3DA
:104D900011681943116062B608BD00BF008EFF1F85
:104DA000398EE3387A570020845700209C91FF1FEA
:104DB00010B5134B1B6853B9124B1B7813F0FF0F40
:104DC00018D00320FFF726FB0D4B1860A8B10C4B41
:104DD000186843885A1C03441C7A03889A4206D3F5
:104DE000FFF7BCFF0022064B1A60204610BD428030
:104DF000204610BD4FF0FF3010BD4FF0FF3010BD0A
:104E0000905700208457002008B50D4B1B6883B9CC
:104E10000C4B1B7813F0FF0F08D00320FFF7FAFAB2
:104E2000074B186028B94FF0FF3008BD4FF0FF3036
:104E300008BD034B1B685A881344187A08BD00BF8D
:104E40009057002084570020044B9888044B1B681F
:104E50001BB11A885B88D31A18447047CC590020BC
:104E6000905700202DE9F04704460122374B1A7075
:104E70000E46002964D0DFF8E080DFF8E0909A4623
:104E8000334FD8F8003083BB99F8003013F0FF0F90
:104E900006D100222D4B1A704FF0FF30BDE8F0878D
:104EA0004AF2F9250420FFF7D3FA07280AD801238C
:104EB0008AF80030FFF732FFC8F80000A8B90023D5
:104EC0008AF80030013D01D03B7833B10122204BFC
:104ED0001A704FF0FF30BDE8F08700F067FC99F8DA
:104EE000003013F0FF0FDDD1D3E700233B70D8F87B
:104EF00000104A88C2F14005AE4238BF354602F183
:104F000008030B442A444A80761B3DB1254414F81B
:104F1000012B03F8012BAC42F9D100E025464B8868
:104F20003F2B07D940230B800420FFF7EBFA002327
:104F3000C8F800300522074B1A700EB12C46A0E7C6
:104F40000020024B1870BDE8F08700BF8757002093
:104F50008C57002086570020885700208457002057
:104F600000B583B002AB03F8010D18460121FFF72D
:104F700079FF03B05DF804FB10B5144B1B7813F0F8
:104F8000FF0F21D00122124B1A70124B196851B138
:104F90000024114B1C704B880B800420FFF7B2FAE1
:104FA0000C4B1C600DE0FFF7B9FE014630B100224A
:104FB000094B1A700420FFF7A5FA02E00122064B04
:104FC0001A700022024B1A7010BD00BF84570020D7
:104FD00087570020885700208657002008B50E4BC1
:104FE0001B7813F0FF0F16D10C4B196841B14B8899
:104FF0000B800420FFF786FA0022084B1A6008BDD8
:10500000FFF78CFE014618B10420FFF77BFA08BDBC
:105010000122034B1A7008BD8757002088570020D3
:1050200086570020F0B4C02928BFC02172B6134BA8
:105030001860134B00221A605A609A60DA601A6195
:105040005A61C1B113460E4C01275A0903F01F06DD
:1050500007FA06F654F82250354344F8225001333B
:105060008B42F2D10022134684186370013302F59B
:1050700082728B42F8D162B6F0BC7047A057002014
:10508000A857002010B472B6234B1B688BB9224B73
:105090005B6883B9204B9B687BB91F4BDB6873B996
:1050A0001D4B1B696BB91C4B5B6963B962B6002071
:1050B0002EE0194A08E0194A06E0194A04E0194AA4
:1050C00002E0194A00E0194AB3FA83F14FF00040B8
:1050D000C84023EA00031360154803780133DBB2AC
:1050E000037062B60C48121A9210C1EB421202EB26
:1050F000821241F67C7101EB82020E490968881820
:1051000001248C540C4A12789A423CBF0A4A13700C
:105110005DF8044B704700BFA8570020AC57002033
:10512000B0570020B4570020B8570020BC570020CB
:10513000A5570020A05700209C570020427872B647
:105140000378012B02D9013B037011E05111094B87
:10515000D24302F01F024FF0004020FA02F253F84F
:105160002100104343F82100034B1A78013A1A70CA
:1051700062B67047A8570020A557002030B4C36816
:1051800083B1187A90420AD158685C7A006950F865
:10519000245025B940F82410087801300870DB68E5
:1051A000002BEED130BC7047437A8B4206D903699D
:1051B00053F82100002243F8212070470020704757
:1051C00038B5437A8B4218D9036953F8214000223D
:1051D00043F821209CB12378012B12D9FFF752FF0D
:1051E000054628B10430211D4FF48072FEF71CFBE8
:1051F0002378013B2370284638BD002038BD204667
:1052000038BD204638BD00BF4368427A5B7A9A4277
:1052100010D872B60368DA680AB9D86004E0D368B7
:105220000BB11A46FBE7D060026801231372426893
:10523000137262B6704700BF084B1B785BB9D0226F
:10524000074B1A704FF08042A3F256331A600120C8
:10525000024B187070470020704700BFA457002011
:105260005EE400E0F8B5184B1A6842F080721A60EC
:10527000164B1A6842F001021A6004331F68144B7F
:105280001C689CB1134D237A6BB12E6823681B6890
:10529000204698472B689B1B1B099AB2A280E18885
:1052A0008B4288BFE2806469002CECD1094B1B68FB
:1052B000DF1B3F09BBB2084A1380084A1288974295
:1052C00084BF064A1380F8BDFCED00E0001000E04A
:1052D00098570020041000E0C0570020A657002077
:1052E00030B472B699B902688AB103790F2B0ED81F
:1052F00027490988194111F0010F08D003F1007303
:1053000003F59063B2EB431F01D162B63EE0204B40
:105310001D882946002341FA03F212F0010F2DD116
:10532000012202FA03F42543194A158062B6DAB263
:10533000027118490C6844F002040C6004390C68CE
:1053400044F002040C60822413490C601A310A7084
:1053500004310A7006390A7007310A7003F10073CC
:1053600003F590635B01036000221A605A609A6043
:10537000DA601A615A619A61DA6107E00133102B31
:10538000C9D162B6002303601023037130BC70479B
:10539000C2570020408004400080004003790F2B5A
:1053A00010D8094A137072B6084B0279012101FA2C
:1053B00002F2198821EA02021A8062B610230371F0
:1053C00000230360704700BF1A800040C2570020CE
:1053D00000B583B0054B1B88ADF8043003685B68EB
:1053E00001A90222984703B05DF804FB78A70000EA
:1053F000F0B58BB0164622B903681B68C9B298474E
:105400002FE0012A08BF0A2621B930228DF8252075
:10541000212417E021243746B1FBF6F506FB1515CC
:10542000EDB22246092D94BF30353735EDB20DF17E
:10543000280E724402F8245CB1FBF7F111B1013C73
:10544000E4B2E9E733B1013CE4B20AAB23442D22D4
:1054500003F8242C03685B6801A92144C4F12202EB
:1054600098470BB0F0BD00BF08B50029BABF49424C
:105470002D2300230A22FFF7BBFF08BD10B4401AFA
:10548000019CE41A04FB00F4521A94FBF2F0184455
:105490005DF8044B704700BF10B50446006803F088
:1054A000EFFC204610BD00BF38B504460D4600682D
:1054B000013104F021F818B120606560012038BD89
:1054C000002038BD10B5044643688B420AD2FFF76E
:1054D000EBFF034648B1A36833B9236800221A7072
:1054E000012302E0012300E00123184610BD00BFA4
:1054F00070B504460E4615462AB9036803B11A7002
:105500000023A36012E01146FFF7DCFF48B92068D2
:1055100018B103F0B5FC0023236000236360A3608F
:1055200004E0A5602068314604F0F4FA204670BD1E
:1055300038B50446002303604360836003730D465F
:1055400039B1084604F044FB024620462946FFF7DD
:10555000CFFF204638BD00BF08B50B46884203D0B8
:1055600009689A68FFF7C4FF08BD00BF10B504467C
:1055700000230360436083600373FFF7EDFF204661
:1055800010BD00BF38B504460D4641B1084604F0D1
:105590001FFB024620462946FFF7AAFF01E0002331
:1055A0008360204638BD00BF70B504460D46836851
:1055B0005AB1D6183146FFF785FF30B12068A3688D
:1055C0001844294604F0A6FAA660204670BD00BF24
:1055D00008B50B4609689A68FFF7E6FF08BD00BFEB
:1055E00038B504460D4639B1084604F0F1FA0246D2
:1055F00020462946FFF7D8FF204638BD10B582B0B7
:1056000004468DF8041000238DF8053001A901220D
:10561000FFF7CAFF204602B010BD00BF10B584B02E
:105620000446084601A90A2200F004F901A804F082
:10563000CFFA0246204601A9FFF7B6FF204604B084
:1056400010BD00BF10B50446FFF7D8FF204610BDBF
:1056500008B5836843B929B10878D0F1010038BF93
:10566000002008BD012008BD31B903681878D0F1C9
:10567000010038BF002008BD006804F03DF9D0F1FA
:10568000010038BF002008BD10B58B688468E41A9B
:1056900094420CD3006860B1096861B110441A46A5
:1056A00004F0C6FAD0F1010038BF002010BD002080
:1056B00010BD002010BD002010BD00BF08B58268DD
:1056C0008B689A4203D30022FFF7DEFF08BD00205B
:1056D00008BD00BF08B582688B689A420CD3006889
:1056E00060B1096861B1D31A184404F005F9D0F12A
:1056F000010038BF002008BD002008BD002008BD03
:10570000002008BD38B50C469AB191B18168994224
:1057100002D80023237038BD551EC91A8D4228BFF8
:105720000D460168204619442A4604F0DBFA00239E
:10573000635538BD08B5006810B103F05DFB08BDC6
:10574000002008BD08B5FBF7CDFBFBF7F7FD00F027
:105750002DF8FAE708B5FFF777FB08BD08B5FFF7A6
:1057600027FB08BD08B5FFF74FFB08BD08B5FFF7DD
:1057700003FC08BD08B50846FFF7F2FB08BD00BFF3
:1057800008B508461146FFF76DFB08BD704700BF1E
:10579000044B00221A714FF47A7199601A73024A0D
:1057A0001A607047C857002088A7000008B50F4B43
:1057B0001B78CBB901220D4B1A70FFF745FB08B1DE
:1057C000FFF7E4FF00F034FA08B101F087F900F0C8
:1057D0002DFD08B101F018FA00F0CCFF08B101F07E
:1057E000A9FA0022014B1A7008BD00BFD85700204B
:1057F00030B40023B0FBF2F402FB14041D46092C64
:1058000094BF30343734E4B2CC54B0FBF2F008B17A
:105810000133EFE70D4400226A70934207DD885C94
:10582000CC5C8C54C8540132013B9A42F7DB0846E9
:1058300030BC704710B50C46002802DBFFF7D8FFDC
:1058400010BD2D2301F8013B4042FFF7D1FF204658
:1058500010BD00BF194B1A6842F480621A60002321
:10586000174A1370174A1370174A1370174A1370A8
:10587000174A137040F21332164B1A604FF45172EC
:1058800004331A60C0F34432134B1A70C0F347124A
:105890005A7000F01F00987204229A700221D97485
:1058A0005A7588221A743C22DA7040220B4B1A7007
:1058B0004FF40052A3F229331A6070473480044039
:1058C00064580020E15700206C58002065580020E3
:1058D000E057002040A0044000A006402DE400E076
:1058E000164B9B7803F0EC0300F00302134310F017
:1058F000040F18BF43F01003104A937000F00F0319
:10590000042B04D11346927942F040029A710B4B5A
:105910005A7902F0EF0210F0100F18BF42F0100297
:10592000064B5A719B7903F0EF0310F0200F18BF5C
:1059300043F01003014A9371704700BF00A0064076
:1059400010B5144B1B6813F4806F21D0124B1B78D9
:1059500013F0FF0F06D0104CFFF728FF237813F049
:10596000FF0FF9D14FF400520C4B1A6000230C4A80
:10597000D37040F203120B490A6004310A600A4AEC
:1059800013700A4A13700A4B1B680BB101221A707C
:1059900010BD00BF34800440E057002084E100E0E7
:1059A00000A0064040A0044064580020E1570020B9
:1059B000DC57002010B50446094A137813F0FF0F96
:1059C000FBD120460121FEF74DFC20460021FEF7C9
:1059D00017FC044B53F83420034B1A6010BD00BF72
:1059E000E057002068A600006858002010B50D4B55
:1059F0001B6813F4806F12D021280CD80A4C0B4B73
:105A000053F8303023600121FEF72CFC236800227C
:105A10001A70012010BD0020034B186010BD00203B
:105A200010BD00BF34800440DC57002068A6000091
:105A3000114B1B6813F4806F1BD0122804D140F265
:105A400002320E4B1A600DE0142804D140F20232EB
:105A50000B4B1A6006E00B4B5A7B02F0FE025A73A6
:105A600000207047074B5A7B42F001025A73012015
:105A700070470020704700BF348004400CA00440F1
:105A800014C0044000A006402DE9F04107461F4B1A
:105A90001B6813F4806F37D01D4B1B680BB10122BC
:105AA0001A701C4B1C780134402C28BF00241A4D5E
:105AB0001A4EDFF86C8017E0FEF7AAF940280FDCD9
:105AC000337913F0800F0FD02B780133402B28BF90
:105AD000002318F80320D2B2F271DBB22B7003E07E
